{
	"data": {
		"bytecode": {
			"linkReferences": {},
			"object": "608060405234801561000f575f80fd5b50335f73ffffffffffffffffffffffffffffffffffffffff168173ffffffffffffffffffffffffffffffffffffffff1603610081575f6040517f1e4fbdf700000000000000000000000000000000000000000000000000000000815260040161007891906101dd565b60405180910390fd5b610090816100dd60201b60201c565b50600180819055503360055f6101000a81548173ffffffffffffffffffffffffffffffffffffffff021916908373ffffffffffffffffffffffffffffffffffffffff1602179055506101f6565b5f805f9054906101000a900473ffffffffffffffffffffffffffffffffffffffff169050815f806101000a81548173ffffffffffffffffffffffffffffffffffffffff021916908373ffffffffffffffffffffffffffffffffffffffff1602179055508173ffffffffffffffffffffffffffffffffffffffff168173ffffffffffffffffffffffffffffffffffffffff167f8be0079c531659141344cd1fd0a4f28419497f9722a3daafe3b4186f6b6457e060405160405180910390a35050565b5f73ffffffffffffffffffffffffffffffffffffffff82169050919050565b5f6101c78261019e565b9050919050565b6101d7816101bd565b82525050565b5f6020820190506101f05f8301846101ce565b92915050565b613efa806102035f395ff3fe608060405234801561000f575f80fd5b5060043610610114575f3560e01c8063b06c1ba3116100a0578063d2c35ce81161006f578063d2c35ce8146102e1578063d46a5d7e146102fd578063e8abfd9414610319578063ec9790821461034c578063f2fde38b1461036a57610114565b8063b06c1ba314610231578063b1283e771461026c578063b4824034146102a5578063c415b95c146102c357610114565b806358057fe5116100e757806358057fe51461019c578063715018a6146101d15780638da5cb5b146101db578063919a27b5146101f9578063ae169a501461021557610114565b8063301e996b146101185780633193213014610134578063380ca1c514610150578063456051f114610180575b5f80fd5b610132600480360381019061012d919061264c565b610386565b005b61014e600480360381019061014991906126b8565b61058e565b005b61016a60048036038101906101659190612842565b61061c565b6040516101779190612985565b60405180910390f35b61019a6004803603810190610195919061299e565b6108e7565b005b6101b660048036038101906101b191906126b8565b6109e2565b6040516101c896959493929190612a07565b60405180910390f35b6101d9610a51565b005b6101e3610a64565b6040516101f09190612a66565b60405180910390f35b610213600480360381019061020e9190612a7f565b610a8b565b005b61022f600480360381019061022a91906126b8565b610ba8565b005b61024b600480360381019061024691906126b8565b611308565b6040516102639c9b9a99989796959493929190612cd9565b60405180910390f35b610286600480360381019061028191906126b8565b611637565b60405161029c9a99989796959493929190612fd3565b60405180910390f35b6102ad611a15565b6040516102ba9190612985565b60405180910390f35b6102cb611a1b565b6040516102d89190612a66565b60405180910390f35b6102fb60048036038101906102f69190613079565b611a40565b005b610317600480360381019061031291906130ce565b611b30565b005b610333600480360381019061032e919061311e565b611ec6565b604051610343949392919061315c565b60405180910390f35b610354612008565b6040516103619190612985565b60405180910390f35b610384600480360381019061037f9190613079565b61200e565b005b61038e612092565b5f60025f8581526020019081526020015f20905080600c01544210156103e9576040517f08c379a00000000000000000000000000000000000000000000000000000000081526004016103e0906131e9565b60405180910390fd5b5f60038111156103fc576103fb612b1d565b5b81600d015f9054906101000a900460ff16600381111561041f5761041e612b1d565b5b1461045f576040517f08c379a000000000000000000000000000000000000000000000000000000000815260040161045690613251565b60405180910390fd5b6001600381111561047357610472612b1d565b5b83600381111561048657610485612b1d565b5b14806104b65750600260038111156104a1576104a0612b1d565b5b8360038111156104b4576104b3612b1d565b5b145b806104e457506003808111156104cf576104ce612b1d565b5b8360038111156104e2576104e1612b1d565b5b145b610523576040517f08c379a000000000000000000000000000000000000000000000000000000000815260040161051a906132b9565b60405180910390fd5b8281600d015f6101000a81548160ff0219169083600381111561054957610548612b1d565b5b0217905550837f755280b6fd2e837dcfce7038b2668dbe9e358bd91d53b47e15442a9bdd0943d984846040516105809291906132d7565b60405180910390a250505050565b610596612092565b610bb88111156105db576040517f08c379a00000000000000000000000000000000000000000000000000000000081526004016105d29061334f565b60405180910390fd5b806004819055507fc820040c4f09c7fac2f325e2119eada1a6906b23583b4fd94c377f744f7e3df1816040516106119190612985565b60405180910390a150565b5f610625612092565b42851015610668576040517f08c379a000000000000000000000000000000000000000000000000000000000815260040161065f906133b7565b60405180910390fd5b5f84116106aa576040517f08c379a00000000000000000000000000000000000000000000000000000000081526004016106a19061341f565b60405180910390fd5b5f73ffffffffffffffffffffffffffffffffffffffff168373ffffffffffffffffffffffffffffffffffffffff1603610718576040517f08c379a000000000000000000000000000000000000000000000000000000000815260040161070f90613487565b60405180910390fd5b610bb882111561075d576040517f08c379a00000000000000000000000000000000000000000000000000000000081526004016107549061334f565b60405180910390fd5b5f60035f815480929190610770906134d2565b9190505590505f60025f8381526020019081526020015f2090508b815f015f01908161079c919061370a565b508a815f0160010190816107b0919061370a565b5089815f0160020190816107c4919061370a565b5088815f016003015f6101000a81548160ff021916908360058111156107ed576107ec612b1d565b5b021790555087815f01600401908051906020019061080c9291906123d7565b508681600b0181905550858761082291906137d9565b81600c018190555084816010015f6101000a81548173ffffffffffffffffffffffffffffffffffffffff021916908373ffffffffffffffffffffffffffffffffffffffff1602179055505f841161087b5760045461087d565b835b8160110181905550428160050160050181905550817f7d724ed04f9a6de8ad516119fdd7eb7514aef40a98d93d452ac0d601f8e34fc78d8984600c0154898e6040516108cd95949392919061380c565b60405180910390a281925050509998505050505050505050565b6108ef612092565b5f60025f8481526020019081526020015f2090505f600381111561091657610915612b1d565b5b81600d015f9054906101000a900460ff16600381111561093957610938612b1d565b5b14610979576040517f08c379a000000000000000000000000000000000000000000000000000000000815260040161097090613251565b60405180910390fd5b600381600d015f6101000a81548160ff021916908360038111156109a05761099f612b1d565b5b0217905550827f4c4561c5b0048424071c1115e9f1e325486e21c21333d968f21097b7b72d12ad836040516109d59190613864565b60405180910390a2505050565b5f805f805f805f60025f8981526020019081526020015f206005019050805f0154816001015482600201548360030154846004015f9054906101000a900473ffffffffffffffffffffffffffffffffffffffff1685600501549650965096509650965096505091939550919395565b610a59612092565b610a625f612119565b565b5f805f9054906101000a900473ffffffffffffffffffffffffffffffffffffffff16905090565b610a93612092565b610bb8811115610ad8576040517f08c379a0000000000000000000000000000000000000000000000000000000008152600401610acf9061334f565b60405180910390fd5b5f60025f8481526020019081526020015f2090505f6003811115610aff57610afe612b1d565b5b81600d015f9054906101000a900460ff166003811115610b2257610b21612b1d565b5b14610b62576040517f08c379a0000000000000000000000000000000000000000000000000000000008152600401610b5990613251565b60405180910390fd5b818160110181905550827fb27c12a91635e11c22bffa7bd8e0a8735da52b94aaefd7f249776c7590ba789483604051610b9b9190612985565b60405180910390a2505050565b610bb06121da565b5f60025f8381526020019081526020015f2090505f6003811115610bd757610bd6612b1d565b5b81600d015f9054906101000a900460ff166003811115610bfa57610bf9612b1d565b5b03610c3a576040517f08c379a0000000000000000000000000000000000000000000000000000000008152600401610c31906138ce565b60405180910390fd5b806016015f3373ffffffffffffffffffffffffffffffffffffffff1673ffffffffffffffffffffffffffffffffffffffff1681526020019081526020015f205f9054906101000a900460ff1615610cc6576040517f08c379a0000000000000000000000000000000000000000000000000000000008152600401610cbd90613936565b60405180910390fd5b5f80600380811115610cdb57610cda612b1d565b5b83600d015f9054906101000a900460ff166003811115610cfe57610cfd612b1d565b5b03610d9457826014015f3373ffffffffffffffffffffffffffffffffffffffff1673ffffffffffffffffffffffffffffffffffffffff1681526020019081526020015f2054836013015f3373ffffffffffffffffffffffffffffffffffffffff1673ffffffffffffffffffffffffffffffffffffffff1681526020019081526020015f2054610d8d91906137d9565b9150610ff2565b5f60016003811115610da957610da8612b1d565b5b84600d015f9054906101000a900460ff166003811115610dcc57610dcb612b1d565b5b148015610e1757505f846013015f3373ffffffffffffffffffffffffffffffffffffffff1673ffffffffffffffffffffffffffffffffffffffff1681526020019081526020015f2054115b80610ea0575060026003811115610e3157610e30612b1d565b5b84600d015f9054906101000a900460ff166003811115610e5457610e53612b1d565b5b148015610e9f57505f846014015f3373ffffffffffffffffffffffffffffffffffffffff1673ffffffffffffffffffffffffffffffffffffffff1681526020019081526020015f2054115b5b90508015610ff0575f60016003811115610ebd57610ebc612b1d565b5b85600d015f9054906101000a900460ff166003811115610ee057610edf612b1d565b5b14610f2a57846014015f3373ffffffffffffffffffffffffffffffffffffffff1673ffffffffffffffffffffffffffffffffffffffff1681526020019081526020015f2054610f6b565b846013015f3373ffffffffffffffffffffffffffffffffffffffff1673ffffffffffffffffffffffffffffffffffffffff1681526020019081526020015f20545b90505f60016003811115610f8257610f81612b1d565b5b86600d015f9054906101000a900460ff166003811115610fa557610fa4612b1d565b5b14610fb45785600f0154610fba565b85600e01545b90505f86600f015487600e0154610fd191906137d9565b9050818184610fe09190613954565b610fea91906139c2565b95505050505b505b5f8211611034576040517f08c379a000000000000000000000000000000000000000000000000000000000815260040161102b90613a3c565b60405180910390fd5b5f8360110154111561106e576127108360110154836110539190613954565b61105d91906139c2565b9050808261106b9190613a5a565b91505b6001836016015f3373ffffffffffffffffffffffffffffffffffffffff1673ffffffffffffffffffffffffffffffffffffffff1681526020019081526020015f205f6101000a81548160ff021916908315150217905550826010015f9054906101000a900473ffffffffffffffffffffffffffffffffffffffff1673ffffffffffffffffffffffffffffffffffffffff1663a9059cbb33846040518363ffffffff1660e01b8152600401611123929190613a8d565b6020604051808303815f875af115801561113f573d5f803e3d5ffd5b505050506040513d601f19601f820116820180604052508101906111639190613ac8565b6111a2576040517f08c379a000000000000000000000000000000000000000000000000000000000815260040161119990613b3d565b60405180910390fd5b5f8111156112a957826010015f9054906101000a900473ffffffffffffffffffffffffffffffffffffffff1673ffffffffffffffffffffffffffffffffffffffff1663a9059cbb60055f9054906101000a900473ffffffffffffffffffffffffffffffffffffffff16836040518363ffffffff1660e01b8152600401611229929190613a8d565b6020604051808303815f875af1158015611245573d5f803e3d5ffd5b505050506040513d601f19601f820116820180604052508101906112699190613ac8565b6112a8576040517f08c379a000000000000000000000000000000000000000000000000000000000815260040161129f90613ba5565b60405180910390fd5b5b3373ffffffffffffffffffffffffffffffffffffffff16847ffc6ecd966b430510beae9124efe7dd517ed5286d7ed0ae258f8556c7a9765a4484846040516112f2929190613bc3565b60405180910390a3505050611305612229565b50565b60608060605f60605f805f805f805f8060025f8f81526020019081526020015f209050805f015f01815f01600101825f01600201835f016003015f9054906101000a900460ff16845f0160040185600b015486600c015487600d015f9054906101000a900460ff1688600e015489600f01548a6010015f9054906101000a900473ffffffffffffffffffffffffffffffffffffffff168b601101548b80546113af90613546565b80601f01602080910402602001604051908101604052809291908181526020018280546113db90613546565b80156114265780601f106113fd57610100808354040283529160200191611426565b820191905f5260205f20905b81548152906001019060200180831161140957829003601f168201915b50505050509b508a805461143990613546565b80601f016020809104026020016040519081016040528092919081815260200182805461146590613546565b80156114b05780601f10611487576101008083540402835291602001916114b0565b820191905f5260205f20905b81548152906001019060200180831161149357829003601f168201915b50505050509a508980546114c390613546565b80601f01602080910402602001604051908101604052809291908181526020018280546114ef90613546565b801561153a5780601f106115115761010080835404028352916020019161153a565b820191905f5260205f20905b81548152906001019060200180831161151d57829003601f168201915b5050505050995087805480602002602001604051908101604052809291908181526020015f905b82821015611609578382905f5260205f2001805461157e90613546565b80601f01602080910402602001604051908101604052809291908181526020018280546115aa90613546565b80156115f55780601f106115cc576101008083540402835291602001916115f5565b820191905f5260205f20905b8154815290600101906020018083116115d857829003601f168201915b505050505081526020019060010190611561565b5050505097509c509c509c509c509c509c509c509c509c509c509c509c505091939597999b5091939597999b565b6002602052805f5260405f205f91509050805f016040518060a00160405290815f8201805461166590613546565b80601f016020809104026020016040519081016040528092919081815260200182805461169190613546565b80156116dc5780601f106116b3576101008083540402835291602001916116dc565b820191905f5260205f20905b8154815290600101906020018083116116bf57829003601f168201915b505050505081526020016001820180546116f590613546565b80601f016020809104026020016040519081016040528092919081815260200182805461172190613546565b801561176c5780601f106117435761010080835404028352916020019161176c565b820191905f5260205f20905b81548152906001019060200180831161174f57829003601f168201915b5050505050815260200160028201805461178590613546565b80601f01602080910402602001604051908101604052809291908181526020018280546117b190613546565b80156117fc5780601f106117d3576101008083540402835291602001916117fc565b820191905f5260205f20905b8154815290600101906020018083116117df57829003601f168201915b50505050508152602001600382015f9054906101000a900460ff16600581111561182957611828612b1d565b5b600581111561183b5761183a612b1d565b5b815260200160048201805480602002602001604051908101604052809291908181526020015f905b8282101561190b578382905f5260205f2001805461188090613546565b80601f01602080910402602001604051908101604052809291908181526020018280546118ac90613546565b80156118f75780601f106118ce576101008083540402835291602001916118f7565b820191905f5260205f20905b8154815290600101906020018083116118da57829003601f168201915b505050505081526020019060010190611863565b505050508152505090806005016040518060c00160405290815f8201548152602001600182015481526020016002820154815260200160038201548152602001600482015f9054906101000a900473ffffffffffffffffffffffffffffffffffffffff1673ffffffffffffffffffffffffffffffffffffffff1673ffffffffffffffffffffffffffffffffffffffff1681526020016005820154815250509080600b01549080600c01549080600d015f9054906101000a900460ff169080600e01549080600f015490806010015f9054906101000a900473ffffffffffffffffffffffffffffffffffffffff1690806011015490806012015f9054906101000a900460ff1690508a565b60045481565b60055f9054906101000a900473ffffffffffffffffffffffffffffffffffffffff1681565b611a48612092565b5f73ffffffffffffffffffffffffffffffffffffffff168173ffffffffffffffffffffffffffffffffffffffff1603611ab6576040517f08c379a0000000000000000000000000000000000000000000000000000000008152600401611aad90613c34565b60405180910390fd5b8060055f6101000a81548173ffffffffffffffffffffffffffffffffffffffff021916908373ffffffffffffffffffffffffffffffffffffffff1602179055507fe5693914d19c789bdee50a362998c0bc8d035a835f9871da5d51152f0582c34f81604051611b259190612a66565b60405180910390a150565b611b386121da565b5f60025f8581526020019081526020015f20905080600b0154421015611b93576040517f08c379a0000000000000000000000000000000000000000000000000000000008152600401611b8a90613c9c565b60405180910390fd5b80600c01544210611bd9576040517f08c379a0000000000000000000000000000000000000000000000000000000008152600401611bd090613d04565b60405180910390fd5b5f6003811115611bec57611beb612b1d565b5b81600d015f9054906101000a900460ff166003811115611c0f57611c0e612b1d565b5b14611c4f576040517f08c379a0000000000000000000000000000000000000000000000000000000008152600401611c4690613251565b60405180910390fd5b5f8211611c91576040517f08c379a0000000000000000000000000000000000000000000000000000000008152600401611c8890613d6c565b60405180910390fd5b806010015f9054906101000a900473ffffffffffffffffffffffffffffffffffffffff1673ffffffffffffffffffffffffffffffffffffffff166323b872dd3330856040518463ffffffff1660e01b8152600401611cf193929190613d8a565b6020604051808303815f875af1158015611d0d573d5f803e3d5ffd5b505050506040513d601f19601f82011682018060405250810190611d319190613ac8565b611d70576040517f08c379a0000000000000000000000000000000000000000000000000000000008152600401611d6790613e09565b60405180910390fd5b8215611dea5781816013015f3373ffffffffffffffffffffffffffffffffffffffff1673ffffffffffffffffffffffffffffffffffffffff1681526020019081526020015f205f828254611dc491906137d9565b925050819055508181600e015f828254611dde91906137d9565b92505081905550611e5a565b81816014015f3373ffffffffffffffffffffffffffffffffffffffff1673ffffffffffffffffffffffffffffffffffffffff1681526020019081526020015f205f828254611e3891906137d9565b925050819055508181600f015f828254611e5291906137d9565b925050819055505b611e65843384612232565b3373ffffffffffffffffffffffffffffffffffffffff16847f77a255f45c79d26605c257d8dfc37f9a619f53963ddbed1e95aa0aab1c801cee858542604051611eb093929190613e27565b60405180910390a350611ec1612229565b505050565b5f805f805f60025f8881526020019081526020015f209050806013015f8773ffffffffffffffffffffffffffffffffffffffff1673ffffffffffffffffffffffffffffffffffffffff1681526020019081526020015f2054816014015f8873ffffffffffffffffffffffffffffffffffffffff1673ffffffffffffffffffffffffffffffffffffffff1681526020019081526020015f2054826015015f8973ffffffffffffffffffffffffffffffffffffffff1673ffffffffffffffffffffffffffffffffffffffff1681526020019081526020015f205f9054906101000a900460ff16836016015f8a73ffffffffffffffffffffffffffffffffffffffff1673ffffffffffffffffffffffffffffffffffffffff1681526020019081526020015f205f9054906101000a900460ff1694509450945094505092959194509250565b60035481565b612016612092565b5f73ffffffffffffffffffffffffffffffffffffffff168173ffffffffffffffffffffffffffffffffffffffff1603612086575f6040517f1e4fbdf700000000000000000000000000000000000000000000000000000000815260040161207d9190612a66565b60405180910390fd5b61208f81612119565b50565b61209a6123d0565b73ffffffffffffffffffffffffffffffffffffffff166120b8610a64565b73ffffffffffffffffffffffffffffffffffffffff1614612117576120db6123d0565b6040517f118cdaa700000000000000000000000000000000000000000000000000000000815260040161210e9190612a66565b60405180910390fd5b565b5f805f9054906101000a900473ffffffffffffffffffffffffffffffffffffffff169050815f806101000a81548173ffffffffffffffffffffffffffffffffffffffff021916908373ffffffffffffffffffffffffffffffffffffffff1602179055508173ffffffffffffffffffffffffffffffffffffffff168173ffffffffffffffffffffffffffffffffffffffff167f8be0079c531659141344cd1fd0a4f28419497f9722a3daafe3b4186f6b6457e060405160405180910390a35050565b60026001540361221f576040517f08c379a000000000000000000000000000000000000000000000000000000000815260040161221690613ea6565b60405180910390fd5b6002600181905550565b60018081905550565b5f60025f8581526020019081526020015f2090505f816005019050816015015f8573ffffffffffffffffffffffffffffffffffffffff1673ffffffffffffffffffffffffffffffffffffffff1681526020019081526020015f205f9054906101000a900460ff1661230d57805f015f8154809291906122b0906134d2565b91905055506001826015015f8673ffffffffffffffffffffffffffffffffffffffff1673ffffffffffffffffffffffffffffffffffffffff1681526020019081526020015f205f6101000a81548160ff0219169083151502179055505b806001015f815480929190612321906134d2565b91905055508060010154836001836001015461233d9190613a5a565b836002015461234c9190613954565b61235691906137d9565b61236091906139c2565b816002018190555080600301548311156123c05782816003018190555083816004015f6101000a81548173ffffffffffffffffffffffffffffffffffffffff021916908373ffffffffffffffffffffffffffffffffffffffff1602179055505b4281600501819055505050505050565b5f33905090565b828054828255905f5260205f2090810192821561241d579160200282015b8281111561241c57825182908161240c919061370a565b50916020019190600101906123f5565b5b50905061242a919061242e565b5090565b5b8082111561244d575f81816124449190612451565b5060010161242f565b5090565b50805461245d90613546565b5f825580601f1061246e575061248b565b601f0160209004905f5260205f209081019061248a919061248e565b5b50565b5b808211156124a5575f815f90555060010161248f565b5090565b5f604051905090565b5f80fd5b5f80fd5b5f819050919050565b6124cc816124ba565b81146124d6575f80fd5b50565b5f813590506124e7816124c3565b92915050565b600481106124f9575f80fd5b50565b5f8135905061250a816124ed565b92915050565b5f80fd5b5f80fd5b5f601f19601f8301169050919050565b7f4e487b71000000000000000000000000000000000000000000000000000000005f52604160045260245ffd5b61255e82612518565b810181811067ffffffffffffffff8211171561257d5761257c612528565b5b80604052505050565b5f61258f6124a9565b905061259b8282612555565b919050565b5f67ffffffffffffffff8211156125ba576125b9612528565b5b6125c382612518565b9050602081019050919050565b828183375f83830152505050565b5f6125f06125eb846125a0565b612586565b90508281526020810184848401111561260c5761260b612514565b5b6126178482856125d0565b509392505050565b5f82601f83011261263357612632612510565b5b81356126438482602086016125de565b91505092915050565b5f805f60608486031215612663576126626124b2565b5b5f612670868287016124d9565b9350506020612681868287016124fc565b925050604084013567ffffffffffffffff8111156126a2576126a16124b6565b5b6126ae8682870161261f565b9150509250925092565b5f602082840312156126cd576126cc6124b2565b5b5f6126da848285016124d9565b91505092915050565b600681106126ef575f80fd5b50565b5f81359050612700816126e3565b92915050565b5f67ffffffffffffffff8211156127205761271f612528565b5b602082029050602081019050919050565b5f80fd5b5f61274761274284612706565b612586565b9050808382526020820190506020840283018581111561276a57612769612731565b5b835b818110156127b157803567ffffffffffffffff81111561278f5761278e612510565b5b80860161279c898261261f565b8552602085019450505060208101905061276c565b5050509392505050565b5f82601f8301126127cf576127ce612510565b5b81356127df848260208601612735565b91505092915050565b5f73ffffffffffffffffffffffffffffffffffffffff82169050919050565b5f612811826127e8565b9050919050565b61282181612807565b811461282b575f80fd5b50565b5f8135905061283c81612818565b92915050565b5f805f805f805f805f6101208a8c0312156128605761285f6124b2565b5b5f8a013567ffffffffffffffff81111561287d5761287c6124b6565b5b6128898c828d0161261f565b99505060208a013567ffffffffffffffff8111156128aa576128a96124b6565b5b6128b68c828d0161261f565b98505060408a013567ffffffffffffffff8111156128d7576128d66124b6565b5b6128e38c828d0161261f565b97505060606128f48c828d016126f2565b96505060808a013567ffffffffffffffff811115612915576129146124b6565b5b6129218c828d016127bb565b95505060a06129328c828d016124d9565b94505060c06129438c828d016124d9565b93505060e06129548c828d0161282e565b9250506101006129668c828d016124d9565b9150509295985092959850929598565b61297f816124ba565b82525050565b5f6020820190506129985f830184612976565b92915050565b5f80604083850312156129b4576129b36124b2565b5b5f6129c1858286016124d9565b925050602083013567ffffffffffffffff8111156129e2576129e16124b6565b5b6129ee8582860161261f565b9150509250929050565b612a0181612807565b82525050565b5f60c082019050612a1a5f830189612976565b612a276020830188612976565b612a346040830187612976565b612a416060830186612976565b612a4e60808301856129f8565b612a5b60a0830184612976565b979650505050505050565b5f602082019050612a795f8301846129f8565b92915050565b5f8060408385031215612a9557612a946124b2565b5b5f612aa2858286016124d9565b9250506020612ab3858286016124d9565b9150509250929050565b5f81519050919050565b5f82825260208201905092915050565b8281835e5f83830152505050565b5f612aef82612abd565b612af98185612ac7565b9350612b09818560208601612ad7565b612b1281612518565b840191505092915050565b7f4e487b71000000000000000000000000000000000000000000000000000000005f52602160045260245ffd5b60068110612b5b57612b5a612b1d565b5b50565b5f819050612b6b82612b4a565b919050565b5f612b7a82612b5e565b9050919050565b612b8a81612b70565b82525050565b5f81519050919050565b5f82825260208201905092915050565b5f819050602082019050919050565b5f82825260208201905092915050565b5f612bd382612abd565b612bdd8185612bb9565b9350612bed818560208601612ad7565b612bf681612518565b840191505092915050565b5f612c0c8383612bc9565b905092915050565b5f602082019050919050565b5f612c2a82612b90565b612c348185612b9a565b935083602082028501612c4685612baa565b805f5b85811015612c815784840389528151612c628582612c01565b9450612c6d83612c14565b925060208a01995050600181019050612c49565b50829750879550505050505092915050565b60048110612ca457612ca3612b1d565b5b50565b5f819050612cb482612c93565b919050565b5f612cc382612ca7565b9050919050565b612cd381612cb9565b82525050565b5f610180820190508181035f830152612cf2818f612ae5565b90508181036020830152612d06818e612ae5565b90508181036040830152612d1a818d612ae5565b9050612d29606083018c612b81565b8181036080830152612d3b818b612c20565b9050612d4a60a083018a612976565b612d5760c0830189612976565b612d6460e0830188612cca565b612d72610100830187612976565b612d80610120830186612976565b612d8e6101408301856129f8565b612d9c610160830184612976565b9d9c50505050505050505050505050565b612db681612b70565b82525050565b5f82825260208201905092915050565b5f612dd682612b90565b612de08185612dbc565b935083602082028501612df285612baa565b805f5b85811015612e2d5784840389528151612e0e8582612c01565b9450612e1983612c14565b925060208a01995050600181019050612df5565b50829750879550505050505092915050565b5f60a083015f8301518482035f860152612e598282612bc9565b91505060208301518482036020860152612e738282612bc9565b91505060408301518482036040860152612e8d8282612bc9565b9150506060830151612ea26060860182612dad565b5060808301518482036080860152612eba8282612dcc565b9150508091505092915050565b612ed0816124ba565b82525050565b612edf81612807565b82525050565b60c082015f820151612ef95f850182612ec7565b506020820151612f0c6020850182612ec7565b506040820151612f1f6040850182612ec7565b506060820151612f326060850182612ec7565b506080820151612f456080850182612ed6565b5060a0820151612f5860a0850182612ec7565b50505050565b5f819050919050565b5f612f81612f7c612f77846127e8565b612f5e565b6127e8565b9050919050565b5f612f9282612f67565b9050919050565b5f612fa382612f88565b9050919050565b612fb381612f99565b82525050565b5f8115159050919050565b612fcd81612fb9565b82525050565b5f6101e0820190508181035f830152612fec818d612e3f565b9050612ffb602083018c612ee5565b61300860e083018b612976565b61301661010083018a612976565b613024610120830189612cca565b613032610140830188612976565b613040610160830187612976565b61304e610180830186612faa565b61305c6101a0830185612976565b61306a6101c0830184612fc4565b9b9a5050505050505050505050565b5f6020828403121561308e5761308d6124b2565b5b5f61309b8482850161282e565b91505092915050565b6130ad81612fb9565b81146130b7575f80fd5b50565b5f813590506130c8816130a4565b92915050565b5f805f606084860312156130e5576130e46124b2565b5b5f6130f2868287016124d9565b9350506020613103868287016130ba565b9250506040613114868287016124d9565b9150509250925092565b5f8060408385031215613134576131336124b2565b5b5f613141858286016124d9565b92505060206131528582860161282e565b9150509250929050565b5f60808201905061316f5f830187612976565b61317c6020830186612976565b6131896040830185612fc4565b6131966060830184612fc4565b95945050505050565b7f4d61726b6574206e6f7420656e646564207965740000000000000000000000005f82015250565b5f6131d3601483612ac7565b91506131de8261319f565b602082019050919050565b5f6020820190508181035f830152613200816131c7565b9050919050565b7f4d61726b657420616c7265616479207265736f6c7665640000000000000000005f82015250565b5f61323b601783612ac7565b915061324682613207565b602082019050919050565b5f6020820190508181035f8301526132688161322f565b9050919050565b7f496e76616c6964206f7574636f6d6500000000000000000000000000000000005f82015250565b5f6132a3600f83612ac7565b91506132ae8261326f565b602082019050919050565b5f6020820190508181035f8301526132d081613297565b9050919050565b5f6040820190506132ea5f830185612cca565b81810360208301526132fc8184612ae5565b90509392505050565b7f4665652070657263656e7461676520746f6f20686967680000000000000000005f82015250565b5f613339601783612ac7565b915061334482613305565b602082019050919050565b5f6020820190508181035f8301526133668161332d565b9050919050565b7f53746172742074696d65206d75737420626520696e20746865206675747572655f82015250565b5f6133a1602083612ac7565b91506133ac8261336d565b602082019050919050565b5f6020820190508181035f8301526133ce81613395565b9050919050565b7f4475726174696f6e206d75737420626520706f736974697665000000000000005f82015250565b5f613409601983612ac7565b9150613414826133d5565b602082019050919050565b5f6020820190508181035f830152613436816133fd565b9050919050565b7f496e76616c696420746f6b656e206164647265737300000000000000000000005f82015250565b5f613471601583612ac7565b915061347c8261343d565b602082019050919050565b5f6020820190508181035f83015261349e81613465565b9050919050565b7f4e487b71000000000000000000000000000000000000000000000000000000005f52601160045260245ffd5b5f6134dc826124ba565b91507fffffffffffffffffffffffffffffffffffffffffffffffffffffffffffffffff820361350e5761350d6134a5565b5b600182019050919050565b7f4e487b71000000000000000000000000000000000000000000000000000000005f52602260045260245ffd5b5f600282049050600182168061355d57607f821691505b6020821081036135705761356f613519565b5b50919050565b5f819050815f5260205f209050919050565b5f6020601f8301049050919050565b5f82821b905092915050565b5f600883026135d27fffffffffffffffffffffffffffffffffffffffffffffffffffffffffffffffff82613597565b6135dc8683613597565b95508019841693508086168417925050509392505050565b5f61360e613609613604846124ba565b612f5e565b6124ba565b9050919050565b5f819050919050565b613627836135f4565b61363b61363382613615565b8484546135a3565b825550505050565b5f90565b61364f613643565b61365a81848461361e565b505050565b5b8181101561367d576136725f82613647565b600181019050613660565b5050565b601f8211156136c25761369381613576565b61369c84613588565b810160208510156136ab578190505b6136bf6136b785613588565b83018261365f565b50505b505050565b5f82821c905092915050565b5f6136e25f19846008026136c7565b1980831691505092915050565b5f6136fa83836136d3565b9150826002028217905092915050565b61371382612abd565b67ffffffffffffffff81111561372c5761372b612528565b5b6137368254613546565b613741828285613681565b5f60209050601f831160018114613772575f8415613760578287015190505b61376a85826136ef565b8655506137d1565b601f19841661378086613576565b5f5b828110156137a757848901518255600182019150602085019450602081019050613782565b868310156137c457848901516137c0601f8916826136d3565b8355505b6001600288020188555050505b505050505050565b5f6137e3826124ba565b91506137ee836124ba565b9250828201905080821115613806576138056134a5565b5b92915050565b5f60a0820190508181035f8301526138248188612ae5565b90506138336020830187612976565b6138406040830186612976565b61384d60608301856129f8565b61385a6080830184612b81565b9695505050505050565b5f6020820190508181035f83015261387c8184612ae5565b905092915050565b7f4d61726b6574206e6f74207265736f6c766564207965740000000000000000005f82015250565b5f6138b8601783612ac7565b91506138c382613884565b602082019050919050565b5f6020820190508181035f8301526138e5816138ac565b9050919050565b7f52657761726420616c726561647920636c61696d6564000000000000000000005f82015250565b5f613920601683612ac7565b915061392b826138ec565b602082019050919050565b5f6020820190508181035f83015261394d81613914565b9050919050565b5f61395e826124ba565b9150613969836124ba565b9250828202613977816124ba565b9150828204841483151761398e5761398d6134a5565b5b5092915050565b7f4e487b71000000000000000000000000000000000000000000000000000000005f52601260045260245ffd5b5f6139cc826124ba565b91506139d7836124ba565b9250826139e7576139e6613995565b5b828204905092915050565b7f4e6f2072657761726420746f20636c61696d00000000000000000000000000005f82015250565b5f613a26601283612ac7565b9150613a31826139f2565b602082019050919050565b5f6020820190508181035f830152613a5381613a1a565b9050919050565b5f613a64826124ba565b9150613a6f836124ba565b9250828203905081811115613a8757613a866134a5565b5b92915050565b5f604082019050613aa05f8301856129f8565b613aad6020830184612976565b9392505050565b5f81519050613ac2816130a4565b92915050565b5f60208284031215613add57613adc6124b2565b5b5f613aea84828501613ab4565b91505092915050565b7f526577617264207472616e73666572206661696c6564000000000000000000005f82015250565b5f613b27601683612ac7565b9150613b3282613af3565b602082019050919050565b5f6020820190508181035f830152613b5481613b1b565b9050919050565b7f466565207472616e73666572206661696c6564000000000000000000000000005f82015250565b5f613b8f601383612ac7565b9150613b9a82613b5b565b602082019050919050565b5f6020820190508181035f830152613bbc81613b83565b9050919050565b5f604082019050613bd65f830185612976565b613be36020830184612976565b9392505050565b7f496e76616c6964206164647265737300000000000000000000000000000000005f82015250565b5f613c1e600f83612ac7565b9150613c2982613bea565b602082019050919050565b5f6020820190508181035f830152613c4b81613c12565b9050919050565b7f4d61726b6574206e6f74207374617274656400000000000000000000000000005f82015250565b5f613c86601283612ac7565b9150613c9182613c52565b602082019050919050565b5f6020820190508181035f830152613cb381613c7a565b9050919050565b7f4d61726b65742068617320656e646564000000000000000000000000000000005f82015250565b5f613cee601083612ac7565b9150613cf982613cba565b602082019050919050565b5f6020820190508181035f830152613d1b81613ce2565b9050919050565b7f416d6f756e74206d75737420626520706f7369746976650000000000000000005f82015250565b5f613d56601783612ac7565b9150613d6182613d22565b602082019050919050565b5f6020820190508181035f830152613d8381613d4a565b9050919050565b5f606082019050613d9d5f8301866129f8565b613daa60208301856129f8565b613db76040830184612976565b949350505050565b7f546f6b656e207472616e73666572206661696c656400000000000000000000005f82015250565b5f613df3601583612ac7565b9150613dfe82613dbf565b602082019050919050565b5f6020820190508181035f830152613e2081613de7565b9050919050565b5f606082019050613e3a5f830186612fc4565b613e476020830185612976565b613e546040830184612976565b949350505050565b7f5265656e7472616e637947756172643a207265656e7472616e742063616c6c005f82015250565b5f613e90601f83612ac7565b9150613e9b82613e5c565b602082019050919050565b5f6020820190508181035f830152613ebd81613e84565b905091905056fea26469706673582212208cfaaa46d6008d613a05aecbb8c032c8385aaee77ccf0d110baf4ab594f4010264736f6c634300081a0033",
			"opcodes": "PUSH1 0x80 PUSH1 0x40 MSTORE CALLVALUE DUP1 ISZERO PUSH2 0xF JUMPI PUSH0 DUP1 REVERT JUMPDEST POP CALLER PUSH0 PUSH20 0xFFFFFFFFFFFFFFFFFFFFFFFFFFFFFFFFFFFFFFFF AND DUP2 PUSH20 0xFFFFFFFFFFFFFFFFFFFFFFFFFFFFFFFFFFFFFFFF AND SUB PUSH2 0x81 JUMPI PUSH0 PUSH1 0x40 MLOAD PUSH32 0x1E4FBDF700000000000000000000000000000000000000000000000000000000 DUP2 MSTORE PUSH1 0x4 ADD PUSH2 0x78 SWAP2 SWAP1 PUSH2 0x1DD JUMP JUMPDEST PUSH1 0x40 MLOAD DUP1 SWAP2 SUB SWAP1 REVERT JUMPDEST PUSH2 0x90 DUP2 PUSH2 0xDD PUSH1 0x20 SHL PUSH1 0x20 SHR JUMP JUMPDEST POP PUSH1 0x1 DUP1 DUP2 SWAP1 SSTORE POP CALLER PUSH1 0x5 PUSH0 PUSH2 0x100 EXP DUP2 SLOAD DUP2 PUSH20 0xFFFFFFFFFFFFFFFFFFFFFFFFFFFFFFFFFFFFFFFF MUL NOT AND SWAP1 DUP4 PUSH20 0xFFFFFFFFFFFFFFFFFFFFFFFFFFFFFFFFFFFFFFFF AND MUL OR SWAP1 SSTORE POP PUSH2 0x1F6 JUMP JUMPDEST PUSH0 DUP1 PUSH0 SWAP1 SLOAD SWAP1 PUSH2 0x100 EXP SWAP1 DIV PUSH20 0xFFFFFFFFFFFFFFFFFFFFFFFFFFFFFFFFFFFFFFFF AND SWAP1 POP DUP2 PUSH0 DUP1 PUSH2 0x100 EXP DUP2 SLOAD DUP2 PUSH20 0xFFFFFFFFFFFFFFFFFFFFFFFFFFFFFFFFFFFFFFFF MUL NOT AND SWAP1 DUP4 PUSH20 0xFFFFFFFFFFFFFFFFFFFFFFFFFFFFFFFFFFFFFFFF AND MUL OR SWAP1 SSTORE POP DUP2 PUSH20 0xFFFFFFFFFFFFFFFFFFFFFFFFFFFFFFFFFFFFFFFF AND DUP2 PUSH20 0xFFFFFFFFFFFFFFFFFFFFFFFFFFFFFFFFFFFFFFFF AND PUSH32 0x8BE0079C531659141344CD1FD0A4F28419497F9722A3DAAFE3B4186F6B6457E0 PUSH1 0x40 MLOAD PUSH1 0x40 MLOAD DUP1 SWAP2 SUB SWAP1 LOG3 POP POP JUMP JUMPDEST PUSH0 PUSH20 0xFFFFFFFFFFFFFFFFFFFFFFFFFFFFFFFFFFFFFFFF DUP3 AND SWAP1 POP SWAP2 SWAP1 POP JUMP JUMPDEST PUSH0 PUSH2 0x1C7 DUP3 PUSH2 0x19E JUMP JUMPDEST SWAP1 POP SWAP2 SWAP1 POP JUMP JUMPDEST PUSH2 0x1D7 DUP2 PUSH2 0x1BD JUMP JUMPDEST DUP3 MSTORE POP POP JUMP JUMPDEST PUSH0 PUSH1 0x20 DUP3 ADD SWAP1 POP PUSH2 0x1F0 PUSH0 DUP4 ADD DUP5 PUSH2 0x1CE JUMP JUMPDEST SWAP3 SWAP2 POP POP JUMP JUMPDEST PUSH2 0x3EFA DUP1 PUSH2 0x203 PUSH0 CODECOPY PUSH0 RETURN INVALID PUSH1 0x80 PUSH1 0x40 MSTORE CALLVALUE DUP1 ISZERO PUSH2 0xF JUMPI PUSH0 DUP1 REVERT JUMPDEST POP PUSH1 0x4 CALLDATASIZE LT PUSH2 0x114 JUMPI PUSH0 CALLDATALOAD PUSH1 0xE0 SHR DUP1 PUSH4 0xB06C1BA3 GT PUSH2 0xA0 JUMPI DUP1 PUSH4 0xD2C35CE8 GT PUSH2 0x6F JUMPI DUP1 PUSH4 0xD2C35CE8 EQ PUSH2 0x2E1 JUMPI DUP1 PUSH4 0xD46A5D7E EQ PUSH2 0x2FD JUMPI DUP1 PUSH4 0xE8ABFD94 EQ PUSH2 0x319 JUMPI DUP1 PUSH4 0xEC979082 EQ PUSH2 0x34C JUMPI DUP1 PUSH4 0xF2FDE38B EQ PUSH2 0x36A JUMPI PUSH2 0x114 JUMP JUMPDEST DUP1 PUSH4 0xB06C1BA3 EQ PUSH2 0x231 JUMPI DUP1 PUSH4 0xB1283E77 EQ PUSH2 0x26C JUMPI DUP1 PUSH4 0xB4824034 EQ PUSH2 0x2A5 JUMPI DUP1 PUSH4 0xC415B95C EQ PUSH2 0x2C3 JUMPI PUSH2 0x114 JUMP JUMPDEST DUP1 PUSH4 0x58057FE5 GT PUSH2 0xE7 JUMPI DUP1 PUSH4 0x58057FE5 EQ PUSH2 0x19C JUMPI DUP1 PUSH4 0x715018A6 EQ PUSH2 0x1D1 JUMPI DUP1 PUSH4 0x8DA5CB5B EQ PUSH2 0x1DB JUMPI DUP1 PUSH4 0x919A27B5 EQ PUSH2 0x1F9 JUMPI DUP1 PUSH4 0xAE169A50 EQ PUSH2 0x215 JUMPI PUSH2 0x114 JUMP JUMPDEST DUP1 PUSH4 0x301E996B EQ PUSH2 0x118 JUMPI DUP1 PUSH4 0x31932130 EQ PUSH2 0x134 JUMPI DUP1 PUSH4 0x380CA1C5 EQ PUSH2 0x150 JUMPI DUP1 PUSH4 0x456051F1 EQ PUSH2 0x180 JUMPI JUMPDEST PUSH0 DUP1 REVERT JUMPDEST PUSH2 0x132 PUSH1 0x4 DUP1 CALLDATASIZE SUB DUP2 ADD SWAP1 PUSH2 0x12D SWAP2 SWAP1 PUSH2 0x264C JUMP JUMPDEST PUSH2 0x386 JUMP JUMPDEST STOP JUMPDEST PUSH2 0x14E PUSH1 0x4 DUP1 CALLDATASIZE SUB DUP2 ADD SWAP1 PUSH2 0x149 SWAP2 SWAP1 PUSH2 0x26B8 JUMP JUMPDEST PUSH2 0x58E JUMP JUMPDEST STOP JUMPDEST PUSH2 0x16A PUSH1 0x4 DUP1 CALLDATASIZE SUB DUP2 ADD SWAP1 PUSH2 0x165 SWAP2 SWAP1 PUSH2 0x2842 JUMP JUMPDEST PUSH2 0x61C JUMP JUMPDEST PUSH1 0x40 MLOAD PUSH2 0x177 SWAP2 SWAP1 PUSH2 0x2985 JUMP JUMPDEST PUSH1 0x40 MLOAD DUP1 SWAP2 SUB SWAP1 RETURN JUMPDEST PUSH2 0x19A PUSH1 0x4 DUP1 CALLDATASIZE SUB DUP2 ADD SWAP1 PUSH2 0x195 SWAP2 SWAP1 PUSH2 0x299E JUMP JUMPDEST PUSH2 0x8E7 JUMP JUMPDEST STOP JUMPDEST PUSH2 0x1B6 PUSH1 0x4 DUP1 CALLDATASIZE SUB DUP2 ADD SWAP1 PUSH2 0x1B1 SWAP2 SWAP1 PUSH2 0x26B8 JUMP JUMPDEST PUSH2 0x9E2 JUMP JUMPDEST PUSH1 0x40 MLOAD PUSH2 0x1C8 SWAP7 SWAP6 SWAP5 SWAP4 SWAP3 SWAP2 SWAP1 PUSH2 0x2A07 JUMP JUMPDEST PUSH1 0x40 MLOAD DUP1 SWAP2 SUB SWAP1 RETURN JUMPDEST PUSH2 0x1D9 PUSH2 0xA51 JUMP JUMPDEST STOP JUMPDEST PUSH2 0x1E3 PUSH2 0xA64 JUMP JUMPDEST PUSH1 0x40 MLOAD PUSH2 0x1F0 SWAP2 SWAP1 PUSH2 0x2A66 JUMP JUMPDEST PUSH1 0x40 MLOAD DUP1 SWAP2 SUB SWAP1 RETURN JUMPDEST PUSH2 0x213 PUSH1 0x4 DUP1 CALLDATASIZE SUB DUP2 ADD SWAP1 PUSH2 0x20E SWAP2 SWAP1 PUSH2 0x2A7F JUMP JUMPDEST PUSH2 0xA8B JUMP JUMPDEST STOP JUMPDEST PUSH2 0x22F PUSH1 0x4 DUP1 CALLDATASIZE SUB DUP2 ADD SWAP1 PUSH2 0x22A SWAP2 SWAP1 PUSH2 0x26B8 JUMP JUMPDEST PUSH2 0xBA8 JUMP JUMPDEST STOP JUMPDEST PUSH2 0x24B PUSH1 0x4 DUP1 CALLDATASIZE SUB DUP2 ADD SWAP1 PUSH2 0x246 SWAP2 SWAP1 PUSH2 0x26B8 JUMP JUMPDEST PUSH2 0x1308 JUMP JUMPDEST PUSH1 0x40 MLOAD PUSH2 0x263 SWAP13 SWAP12 SWAP11 SWAP10 SWAP9 SWAP8 SWAP7 SWAP6 SWAP5 SWAP4 SWAP3 SWAP2 SWAP1 PUSH2 0x2CD9 JUMP JUMPDEST PUSH1 0x40 MLOAD DUP1 SWAP2 SUB SWAP1 RETURN JUMPDEST PUSH2 0x286 PUSH1 0x4 DUP1 CALLDATASIZE SUB DUP2 ADD SWAP1 PUSH2 0x281 SWAP2 SWAP1 PUSH2 0x26B8 JUMP JUMPDEST PUSH2 0x1637 JUMP JUMPDEST PUSH1 0x40 MLOAD PUSH2 0x29C SWAP11 SWAP10 SWAP9 SWAP8 SWAP7 SWAP6 SWAP5 SWAP4 SWAP3 SWAP2 SWAP1 PUSH2 0x2FD3 JUMP JUMPDEST PUSH1 0x40 MLOAD DUP1 SWAP2 SUB SWAP1 RETURN JUMPDEST PUSH2 0x2AD PUSH2 0x1A15 JUMP JUMPDEST PUSH1 0x40 MLOAD PUSH2 0x2BA SWAP2 SWAP1 PUSH2 0x2985 JUMP JUMPDEST PUSH1 0x40 MLOAD DUP1 SWAP2 SUB SWAP1 RETURN JUMPDEST PUSH2 0x2CB PUSH2 0x1A1B JUMP JUMPDEST PUSH1 0x40 MLOAD PUSH2 0x2D8 SWAP2 SWAP1 PUSH2 0x2A66 JUMP JUMPDEST PUSH1 0x40 MLOAD DUP1 SWAP2 SUB SWAP1 RETURN JUMPDEST PUSH2 0x2FB PUSH1 0x4 DUP1 CALLDATASIZE SUB DUP2 ADD SWAP1 PUSH2 0x2F6 SWAP2 SWAP1 PUSH2 0x3079 JUMP JUMPDEST PUSH2 0x1A40 JUMP JUMPDEST STOP JUMPDEST PUSH2 0x317 PUSH1 0x4 DUP1 CALLDATASIZE SUB DUP2 ADD SWAP1 PUSH2 0x312 SWAP2 SWAP1 PUSH2 0x30CE JUMP JUMPDEST PUSH2 0x1B30 JUMP JUMPDEST STOP JUMPDEST PUSH2 0x333 PUSH1 0x4 DUP1 CALLDATASIZE SUB DUP2 ADD SWAP1 PUSH2 0x32E SWAP2 SWAP1 PUSH2 0x311E JUMP JUMPDEST PUSH2 0x1EC6 JUMP JUMPDEST PUSH1 0x40 MLOAD PUSH2 0x343 SWAP5 SWAP4 SWAP3 SWAP2 SWAP1 PUSH2 0x315C JUMP JUMPDEST PUSH1 0x40 MLOAD DUP1 SWAP2 SUB SWAP1 RETURN JUMPDEST PUSH2 0x354 PUSH2 0x2008 JUMP JUMPDEST PUSH1 0x40 MLOAD PUSH2 0x361 SWAP2 SWAP1 PUSH2 0x2985 JUMP JUMPDEST PUSH1 0x40 MLOAD DUP1 SWAP2 SUB SWAP1 RETURN JUMPDEST PUSH2 0x384 PUSH1 0x4 DUP1 CALLDATASIZE SUB DUP2 ADD SWAP1 PUSH2 0x37F SWAP2 SWAP1 PUSH2 0x3079 JUMP JUMPDEST PUSH2 0x200E JUMP JUMPDEST STOP JUMPDEST PUSH2 0x38E PUSH2 0x2092 JUMP JUMPDEST PUSH0 PUSH1 0x2 PUSH0 DUP6 DUP2 MSTORE PUSH1 0x20 ADD SWAP1 DUP2 MSTORE PUSH1 0x20 ADD PUSH0 KECCAK256 SWAP1 POP DUP1 PUSH1 0xC ADD SLOAD TIMESTAMP LT ISZERO PUSH2 0x3E9 JUMPI PUSH1 0x40 MLOAD PUSH32 0x8C379A000000000000000000000000000000000000000000000000000000000 DUP2 MSTORE PUSH1 0x4 ADD PUSH2 0x3E0 SWAP1 PUSH2 0x31E9 JUMP JUMPDEST PUSH1 0x40 MLOAD DUP1 SWAP2 SUB SWAP1 REVERT JUMPDEST PUSH0 PUSH1 0x3 DUP2 GT ISZERO PUSH2 0x3FC JUMPI PUSH2 0x3FB PUSH2 0x2B1D JUMP JUMPDEST JUMPDEST DUP2 PUSH1 0xD ADD PUSH0 SWAP1 SLOAD SWAP1 PUSH2 0x100 EXP SWAP1 DIV PUSH1 0xFF AND PUSH1 0x3 DUP2 GT ISZERO PUSH2 0x41F JUMPI PUSH2 0x41E PUSH2 0x2B1D JUMP JUMPDEST JUMPDEST EQ PUSH2 0x45F JUMPI PUSH1 0x40 MLOAD PUSH32 0x8C379A000000000000000000000000000000000000000000000000000000000 DUP2 MSTORE PUSH1 0x4 ADD PUSH2 0x456 SWAP1 PUSH2 0x3251 JUMP JUMPDEST PUSH1 0x40 MLOAD DUP1 SWAP2 SUB SWAP1 REVERT JUMPDEST PUSH1 0x1 PUSH1 0x3 DUP2 GT ISZERO PUSH2 0x473 JUMPI PUSH2 0x472 PUSH2 0x2B1D JUMP JUMPDEST JUMPDEST DUP4 PUSH1 0x3 DUP2 GT ISZERO PUSH2 0x486 JUMPI PUSH2 0x485 PUSH2 0x2B1D JUMP JUMPDEST JUMPDEST EQ DUP1 PUSH2 0x4B6 JUMPI POP PUSH1 0x2 PUSH1 0x3 DUP2 GT ISZERO PUSH2 0x4A1 JUMPI PUSH2 0x4A0 PUSH2 0x2B1D JUMP JUMPDEST JUMPDEST DUP4 PUSH1 0x3 DUP2 GT ISZERO PUSH2 0x4B4 JUMPI PUSH2 0x4B3 PUSH2 0x2B1D JUMP JUMPDEST JUMPDEST EQ JUMPDEST DUP1 PUSH2 0x4E4 JUMPI POP PUSH1 0x3 DUP1 DUP2 GT ISZERO PUSH2 0x4CF JUMPI PUSH2 0x4CE PUSH2 0x2B1D JUMP JUMPDEST JUMPDEST DUP4 PUSH1 0x3 DUP2 GT ISZERO PUSH2 0x4E2 JUMPI PUSH2 0x4E1 PUSH2 0x2B1D JUMP JUMPDEST JUMPDEST EQ JUMPDEST PUSH2 0x523 JUMPI PUSH1 0x40 MLOAD PUSH32 0x8C379A000000000000000000000000000000000000000000000000000000000 DUP2 MSTORE PUSH1 0x4 ADD PUSH2 0x51A SWAP1 PUSH2 0x32B9 JUMP JUMPDEST PUSH1 0x40 MLOAD DUP1 SWAP2 SUB SWAP1 REVERT JUMPDEST DUP3 DUP2 PUSH1 0xD ADD PUSH0 PUSH2 0x100 EXP DUP2 SLOAD DUP2 PUSH1 0xFF MUL NOT AND SWAP1 DUP4 PUSH1 0x3 DUP2 GT ISZERO PUSH2 0x549 JUMPI PUSH2 0x548 PUSH2 0x2B1D JUMP JUMPDEST JUMPDEST MUL OR SWAP1 SSTORE POP DUP4 PUSH32 0x755280B6FD2E837DCFCE7038B2668DBE9E358BD91D53B47E15442A9BDD0943D9 DUP5 DUP5 PUSH1 0x40 MLOAD PUSH2 0x580 SWAP3 SWAP2 SWAP1 PUSH2 0x32D7 JUMP JUMPDEST PUSH1 0x40 MLOAD DUP1 SWAP2 SUB SWAP1 LOG2 POP POP POP POP JUMP JUMPDEST PUSH2 0x596 PUSH2 0x2092 JUMP JUMPDEST PUSH2 0xBB8 DUP2 GT ISZERO PUSH2 0x5DB JUMPI PUSH1 0x40 MLOAD PUSH32 0x8C379A000000000000000000000000000000000000000000000000000000000 DUP2 MSTORE PUSH1 0x4 ADD PUSH2 0x5D2 SWAP1 PUSH2 0x334F JUMP JUMPDEST PUSH1 0x40 MLOAD DUP1 SWAP2 SUB SWAP1 REVERT JUMPDEST DUP1 PUSH1 0x4 DUP2 SWAP1 SSTORE POP PUSH32 0xC820040C4F09C7FAC2F325E2119EADA1A6906B23583B4FD94C377F744F7E3DF1 DUP2 PUSH1 0x40 MLOAD PUSH2 0x611 SWAP2 SWAP1 PUSH2 0x2985 JUMP JUMPDEST PUSH1 0x40 MLOAD DUP1 SWAP2 SUB SWAP1 LOG1 POP JUMP JUMPDEST PUSH0 PUSH2 0x625 PUSH2 0x2092 JUMP JUMPDEST TIMESTAMP DUP6 LT ISZERO PUSH2 0x668 JUMPI PUSH1 0x40 MLOAD PUSH32 0x8C379A000000000000000000000000000000000000000000000000000000000 DUP2 MSTORE PUSH1 0x4 ADD PUSH2 0x65F SWAP1 PUSH2 0x33B7 JUMP JUMPDEST PUSH1 0x40 MLOAD DUP1 SWAP2 SUB SWAP1 REVERT JUMPDEST PUSH0 DUP5 GT PUSH2 0x6AA JUMPI PUSH1 0x40 MLOAD PUSH32 0x8C379A000000000000000000000000000000000000000000000000000000000 DUP2 MSTORE PUSH1 0x4 ADD PUSH2 0x6A1 SWAP1 PUSH2 0x341F JUMP JUMPDEST PUSH1 0x40 MLOAD DUP1 SWAP2 SUB SWAP1 REVERT JUMPDEST PUSH0 PUSH20 0xFFFFFFFFFFFFFFFFFFFFFFFFFFFFFFFFFFFFFFFF AND DUP4 PUSH20 0xFFFFFFFFFFFFFFFFFFFFFFFFFFFFFFFFFFFFFFFF AND SUB PUSH2 0x718 JUMPI PUSH1 0x40 MLOAD PUSH32 0x8C379A000000000000000000000000000000000000000000000000000000000 DUP2 MSTORE PUSH1 0x4 ADD PUSH2 0x70F SWAP1 PUSH2 0x3487 JUMP JUMPDEST PUSH1 0x40 MLOAD DUP1 SWAP2 SUB SWAP1 REVERT JUMPDEST PUSH2 0xBB8 DUP3 GT ISZERO PUSH2 0x75D JUMPI PUSH1 0x40 MLOAD PUSH32 0x8C379A000000000000000000000000000000000000000000000000000000000 DUP2 MSTORE PUSH1 0x4 ADD PUSH2 0x754 SWAP1 PUSH2 0x334F JUMP JUMPDEST PUSH1 0x40 MLOAD DUP1 SWAP2 SUB SWAP1 REVERT JUMPDEST PUSH0 PUSH1 0x3 PUSH0 DUP2 SLOAD DUP1 SWAP3 SWAP2 SWAP1 PUSH2 0x770 SWAP1 PUSH2 0x34D2 JUMP JUMPDEST SWAP2 SWAP1 POP SSTORE SWAP1 POP PUSH0 PUSH1 0x2 PUSH0 DUP4 DUP2 MSTORE PUSH1 0x20 ADD SWAP1 DUP2 MSTORE PUSH1 0x20 ADD PUSH0 KECCAK256 SWAP1 POP DUP12 DUP2 PUSH0 ADD PUSH0 ADD SWAP1 DUP2 PUSH2 0x79C SWAP2 SWAP1 PUSH2 0x370A JUMP JUMPDEST POP DUP11 DUP2 PUSH0 ADD PUSH1 0x1 ADD SWAP1 DUP2 PUSH2 0x7B0 SWAP2 SWAP1 PUSH2 0x370A JUMP JUMPDEST POP DUP10 DUP2 PUSH0 ADD PUSH1 0x2 ADD SWAP1 DUP2 PUSH2 0x7C4 SWAP2 SWAP1 PUSH2 0x370A JUMP JUMPDEST POP DUP9 DUP2 PUSH0 ADD PUSH1 0x3 ADD PUSH0 PUSH2 0x100 EXP DUP2 SLOAD DUP2 PUSH1 0xFF MUL NOT AND SWAP1 DUP4 PUSH1 0x5 DUP2 GT ISZERO PUSH2 0x7ED JUMPI PUSH2 0x7EC PUSH2 0x2B1D JUMP JUMPDEST JUMPDEST MUL OR SWAP1 SSTORE POP DUP8 DUP2 PUSH0 ADD PUSH1 0x4 ADD SWAP1 DUP1 MLOAD SWAP1 PUSH1 0x20 ADD SWAP1 PUSH2 0x80C SWAP3 SWAP2 SWAP1 PUSH2 0x23D7 JUMP JUMPDEST POP DUP7 DUP2 PUSH1 0xB ADD DUP2 SWAP1 SSTORE POP DUP6 DUP8 PUSH2 0x822 SWAP2 SWAP1 PUSH2 0x37D9 JUMP JUMPDEST DUP2 PUSH1 0xC ADD DUP2 SWAP1 SSTORE POP DUP5 DUP2 PUSH1 0x10 ADD PUSH0 PUSH2 0x100 EXP DUP2 SLOAD DUP2 PUSH20 0xFFFFFFFFFFFFFFFFFFFFFFFFFFFFFFFFFFFFFFFF MUL NOT AND SWAP1 DUP4 PUSH20 0xFFFFFFFFFFFFFFFFFFFFFFFFFFFFFFFFFFFFFFFF AND MUL OR SWAP1 SSTORE POP PUSH0 DUP5 GT PUSH2 0x87B JUMPI PUSH1 0x4 SLOAD PUSH2 0x87D JUMP JUMPDEST DUP4 JUMPDEST DUP2 PUSH1 0x11 ADD DUP2 SWAP1 SSTORE POP TIMESTAMP DUP2 PUSH1 0x5 ADD PUSH1 0x5 ADD DUP2 SWAP1 SSTORE POP DUP2 PUSH32 0x7D724ED04F9A6DE8AD516119FDD7EB7514AEF40A98D93D452AC0D601F8E34FC7 DUP14 DUP10 DUP5 PUSH1 0xC ADD SLOAD DUP10 DUP15 PUSH1 0x40 MLOAD PUSH2 0x8CD SWAP6 SWAP5 SWAP4 SWAP3 SWAP2 SWAP1 PUSH2 0x380C JUMP JUMPDEST PUSH1 0x40 MLOAD DUP1 SWAP2 SUB SWAP1 LOG2 DUP2 SWAP3 POP POP POP SWAP10 SWAP9 POP POP POP POP POP POP POP POP POP JUMP JUMPDEST PUSH2 0x8EF PUSH2 0x2092 JUMP JUMPDEST PUSH0 PUSH1 0x2 PUSH0 DUP5 DUP2 MSTORE PUSH1 0x20 ADD SWAP1 DUP2 MSTORE PUSH1 0x20 ADD PUSH0 KECCAK256 SWAP1 POP PUSH0 PUSH1 0x3 DUP2 GT ISZERO PUSH2 0x916 JUMPI PUSH2 0x915 PUSH2 0x2B1D JUMP JUMPDEST JUMPDEST DUP2 PUSH1 0xD ADD PUSH0 SWAP1 SLOAD SWAP1 PUSH2 0x100 EXP SWAP1 DIV PUSH1 0xFF AND PUSH1 0x3 DUP2 GT ISZERO PUSH2 0x939 JUMPI PUSH2 0x938 PUSH2 0x2B1D JUMP JUMPDEST JUMPDEST EQ PUSH2 0x979 JUMPI PUSH1 0x40 MLOAD PUSH32 0x8C379A000000000000000000000000000000000000000000000000000000000 DUP2 MSTORE PUSH1 0x4 ADD PUSH2 0x970 SWAP1 PUSH2 0x3251 JUMP JUMPDEST PUSH1 0x40 MLOAD DUP1 SWAP2 SUB SWAP1 REVERT JUMPDEST PUSH1 0x3 DUP2 PUSH1 0xD ADD PUSH0 PUSH2 0x100 EXP DUP2 SLOAD DUP2 PUSH1 0xFF MUL NOT AND SWAP1 DUP4 PUSH1 0x3 DUP2 GT ISZERO PUSH2 0x9A0 JUMPI PUSH2 0x99F PUSH2 0x2B1D JUMP JUMPDEST JUMPDEST MUL OR SWAP1 SSTORE POP DUP3 PUSH32 0x4C4561C5B0048424071C1115E9F1E325486E21C21333D968F21097B7B72D12AD DUP4 PUSH1 0x40 MLOAD PUSH2 0x9D5 SWAP2 SWAP1 PUSH2 0x3864 JUMP JUMPDEST PUSH1 0x40 MLOAD DUP1 SWAP2 SUB SWAP1 LOG2 POP POP POP JUMP JUMPDEST PUSH0 DUP1 PUSH0 DUP1 PUSH0 DUP1 PUSH0 PUSH1 0x2 PUSH0 DUP10 DUP2 MSTORE PUSH1 0x20 ADD SWAP1 DUP2 MSTORE PUSH1 0x20 ADD PUSH0 KECCAK256 PUSH1 0x5 ADD SWAP1 POP DUP1 PUSH0 ADD SLOAD DUP2 PUSH1 0x1 ADD SLOAD DUP3 PUSH1 0x2 ADD SLOAD DUP4 PUSH1 0x3 ADD SLOAD DUP5 PUSH1 0x4 ADD PUSH0 SWAP1 SLOAD SWAP1 PUSH2 0x100 EXP SWAP1 DIV PUSH20 0xFFFFFFFFFFFFFFFFFFFFFFFFFFFFFFFFFFFFFFFF AND DUP6 PUSH1 0x5 ADD SLOAD SWAP7 POP SWAP7 POP SWAP7 POP SWAP7 POP SWAP7 POP SWAP7 POP POP SWAP2 SWAP4 SWAP6 POP SWAP2 SWAP4 SWAP6 JUMP JUMPDEST PUSH2 0xA59 PUSH2 0x2092 JUMP JUMPDEST PUSH2 0xA62 PUSH0 PUSH2 0x2119 JUMP JUMPDEST JUMP JUMPDEST PUSH0 DUP1 PUSH0 SWAP1 SLOAD SWAP1 PUSH2 0x100 EXP SWAP1 DIV PUSH20 0xFFFFFFFFFFFFFFFFFFFFFFFFFFFFFFFFFFFFFFFF AND SWAP1 POP SWAP1 JUMP JUMPDEST PUSH2 0xA93 PUSH2 0x2092 JUMP JUMPDEST PUSH2 0xBB8 DUP2 GT ISZERO PUSH2 0xAD8 JUMPI PUSH1 0x40 MLOAD PUSH32 0x8C379A000000000000000000000000000000000000000000000000000000000 DUP2 MSTORE PUSH1 0x4 ADD PUSH2 0xACF SWAP1 PUSH2 0x334F JUMP JUMPDEST PUSH1 0x40 MLOAD DUP1 SWAP2 SUB SWAP1 REVERT JUMPDEST PUSH0 PUSH1 0x2 PUSH0 DUP5 DUP2 MSTORE PUSH1 0x20 ADD SWAP1 DUP2 MSTORE PUSH1 0x20 ADD PUSH0 KECCAK256 SWAP1 POP PUSH0 PUSH1 0x3 DUP2 GT ISZERO PUSH2 0xAFF JUMPI PUSH2 0xAFE PUSH2 0x2B1D JUMP JUMPDEST JUMPDEST DUP2 PUSH1 0xD ADD PUSH0 SWAP1 SLOAD SWAP1 PUSH2 0x100 EXP SWAP1 DIV PUSH1 0xFF AND PUSH1 0x3 DUP2 GT ISZERO PUSH2 0xB22 JUMPI PUSH2 0xB21 PUSH2 0x2B1D JUMP JUMPDEST JUMPDEST EQ PUSH2 0xB62 JUMPI PUSH1 0x40 MLOAD PUSH32 0x8C379A000000000000000000000000000000000000000000000000000000000 DUP2 MSTORE PUSH1 0x4 ADD PUSH2 0xB59 SWAP1 PUSH2 0x3251 JUMP JUMPDEST PUSH1 0x40 MLOAD DUP1 SWAP2 SUB SWAP1 REVERT JUMPDEST DUP2 DUP2 PUSH1 0x11 ADD DUP2 SWAP1 SSTORE POP DUP3 PUSH32 0xB27C12A91635E11C22BFFA7BD8E0A8735DA52B94AAEFD7F249776C7590BA7894 DUP4 PUSH1 0x40 MLOAD PUSH2 0xB9B SWAP2 SWAP1 PUSH2 0x2985 JUMP JUMPDEST PUSH1 0x40 MLOAD DUP1 SWAP2 SUB SWAP1 LOG2 POP POP POP JUMP JUMPDEST PUSH2 0xBB0 PUSH2 0x21DA JUMP JUMPDEST PUSH0 PUSH1 0x2 PUSH0 DUP4 DUP2 MSTORE PUSH1 0x20 ADD SWAP1 DUP2 MSTORE PUSH1 0x20 ADD PUSH0 KECCAK256 SWAP1 POP PUSH0 PUSH1 0x3 DUP2 GT ISZERO PUSH2 0xBD7 JUMPI PUSH2 0xBD6 PUSH2 0x2B1D JUMP JUMPDEST JUMPDEST DUP2 PUSH1 0xD ADD PUSH0 SWAP1 SLOAD SWAP1 PUSH2 0x100 EXP SWAP1 DIV PUSH1 0xFF AND PUSH1 0x3 DUP2 GT ISZERO PUSH2 0xBFA JUMPI PUSH2 0xBF9 PUSH2 0x2B1D JUMP JUMPDEST JUMPDEST SUB PUSH2 0xC3A JUMPI PUSH1 0x40 MLOAD PUSH32 0x8C379A000000000000000000000000000000000000000000000000000000000 DUP2 MSTORE PUSH1 0x4 ADD PUSH2 0xC31 SWAP1 PUSH2 0x38CE JUMP JUMPDEST PUSH1 0x40 MLOAD DUP1 SWAP2 SUB SWAP1 REVERT JUMPDEST DUP1 PUSH1 0x16 ADD PUSH0 CALLER PUSH20 0xFFFFFFFFFFFFFFFFFFFFFFFFFFFFFFFFFFFFFFFF AND PUSH20 0xFFFFFFFFFFFFFFFFFFFFFFFFFFFFFFFFFFFFFFFF AND DUP2 MSTORE PUSH1 0x20 ADD SWAP1 DUP2 MSTORE PUSH1 0x20 ADD PUSH0 KECCAK256 PUSH0 SWAP1 SLOAD SWAP1 PUSH2 0x100 EXP SWAP1 DIV PUSH1 0xFF AND ISZERO PUSH2 0xCC6 JUMPI PUSH1 0x40 MLOAD PUSH32 0x8C379A000000000000000000000000000000000000000000000000000000000 DUP2 MSTORE PUSH1 0x4 ADD PUSH2 0xCBD SWAP1 PUSH2 0x3936 JUMP JUMPDEST PUSH1 0x40 MLOAD DUP1 SWAP2 SUB SWAP1 REVERT JUMPDEST PUSH0 DUP1 PUSH1 0x3 DUP1 DUP2 GT ISZERO PUSH2 0xCDB JUMPI PUSH2 0xCDA PUSH2 0x2B1D JUMP JUMPDEST JUMPDEST DUP4 PUSH1 0xD ADD PUSH0 SWAP1 SLOAD SWAP1 PUSH2 0x100 EXP SWAP1 DIV PUSH1 0xFF AND PUSH1 0x3 DUP2 GT ISZERO PUSH2 0xCFE JUMPI PUSH2 0xCFD PUSH2 0x2B1D JUMP JUMPDEST JUMPDEST SUB PUSH2 0xD94 JUMPI DUP3 PUSH1 0x14 ADD PUSH0 CALLER PUSH20 0xFFFFFFFFFFFFFFFFFFFFFFFFFFFFFFFFFFFFFFFF AND PUSH20 0xFFFFFFFFFFFFFFFFFFFFFFFFFFFFFFFFFFFFFFFF AND DUP2 MSTORE PUSH1 0x20 ADD SWAP1 DUP2 MSTORE PUSH1 0x20 ADD PUSH0 KECCAK256 SLOAD DUP4 PUSH1 0x13 ADD PUSH0 CALLER PUSH20 0xFFFFFFFFFFFFFFFFFFFFFFFFFFFFFFFFFFFFFFFF AND PUSH20 0xFFFFFFFFFFFFFFFFFFFFFFFFFFFFFFFFFFFFFFFF AND DUP2 MSTORE PUSH1 0x20 ADD SWAP1 DUP2 MSTORE PUSH1 0x20 ADD PUSH0 KECCAK256 SLOAD PUSH2 0xD8D SWAP2 SWAP1 PUSH2 0x37D9 JUMP JUMPDEST SWAP2 POP PUSH2 0xFF2 JUMP JUMPDEST PUSH0 PUSH1 0x1 PUSH1 0x3 DUP2 GT ISZERO PUSH2 0xDA9 JUMPI PUSH2 0xDA8 PUSH2 0x2B1D JUMP JUMPDEST JUMPDEST DUP5 PUSH1 0xD ADD PUSH0 SWAP1 SLOAD SWAP1 PUSH2 0x100 EXP SWAP1 DIV PUSH1 0xFF AND PUSH1 0x3 DUP2 GT ISZERO PUSH2 0xDCC JUMPI PUSH2 0xDCB PUSH2 0x2B1D JUMP JUMPDEST JUMPDEST EQ DUP1 ISZERO PUSH2 0xE17 JUMPI POP PUSH0 DUP5 PUSH1 0x13 ADD PUSH0 CALLER PUSH20 0xFFFFFFFFFFFFFFFFFFFFFFFFFFFFFFFFFFFFFFFF AND PUSH20 0xFFFFFFFFFFFFFFFFFFFFFFFFFFFFFFFFFFFFFFFF AND DUP2 MSTORE PUSH1 0x20 ADD SWAP1 DUP2 MSTORE PUSH1 0x20 ADD PUSH0 KECCAK256 SLOAD GT JUMPDEST DUP1 PUSH2 0xEA0 JUMPI POP PUSH1 0x2 PUSH1 0x3 DUP2 GT ISZERO PUSH2 0xE31 JUMPI PUSH2 0xE30 PUSH2 0x2B1D JUMP JUMPDEST JUMPDEST DUP5 PUSH1 0xD ADD PUSH0 SWAP1 SLOAD SWAP1 PUSH2 0x100 EXP SWAP1 DIV PUSH1 0xFF AND PUSH1 0x3 DUP2 GT ISZERO PUSH2 0xE54 JUMPI PUSH2 0xE53 PUSH2 0x2B1D JUMP JUMPDEST JUMPDEST EQ DUP1 ISZERO PUSH2 0xE9F JUMPI POP PUSH0 DUP5 PUSH1 0x14 ADD PUSH0 CALLER PUSH20 0xFFFFFFFFFFFFFFFFFFFFFFFFFFFFFFFFFFFFFFFF AND PUSH20 0xFFFFFFFFFFFFFFFFFFFFFFFFFFFFFFFFFFFFFFFF AND DUP2 MSTORE PUSH1 0x20 ADD SWAP1 DUP2 MSTORE PUSH1 0x20 ADD PUSH0 KECCAK256 SLOAD GT JUMPDEST JUMPDEST SWAP1 POP DUP1 ISZERO PUSH2 0xFF0 JUMPI PUSH0 PUSH1 0x1 PUSH1 0x3 DUP2 GT ISZERO PUSH2 0xEBD JUMPI PUSH2 0xEBC PUSH2 0x2B1D JUMP JUMPDEST JUMPDEST DUP6 PUSH1 0xD ADD PUSH0 SWAP1 SLOAD SWAP1 PUSH2 0x100 EXP SWAP1 DIV PUSH1 0xFF AND PUSH1 0x3 DUP2 GT ISZERO PUSH2 0xEE0 JUMPI PUSH2 0xEDF PUSH2 0x2B1D JUMP JUMPDEST JUMPDEST EQ PUSH2 0xF2A JUMPI DUP5 PUSH1 0x14 ADD PUSH0 CALLER PUSH20 0xFFFFFFFFFFFFFFFFFFFFFFFFFFFFFFFFFFFFFFFF AND PUSH20 0xFFFFFFFFFFFFFFFFFFFFFFFFFFFFFFFFFFFFFFFF AND DUP2 MSTORE PUSH1 0x20 ADD SWAP1 DUP2 MSTORE PUSH1 0x20 ADD PUSH0 KECCAK256 SLOAD PUSH2 0xF6B JUMP JUMPDEST DUP5 PUSH1 0x13 ADD PUSH0 CALLER PUSH20 0xFFFFFFFFFFFFFFFFFFFFFFFFFFFFFFFFFFFFFFFF AND PUSH20 0xFFFFFFFFFFFFFFFFFFFFFFFFFFFFFFFFFFFFFFFF AND DUP2 MSTORE PUSH1 0x20 ADD SWAP1 DUP2 MSTORE PUSH1 0x20 ADD PUSH0 KECCAK256 SLOAD JUMPDEST SWAP1 POP PUSH0 PUSH1 0x1 PUSH1 0x3 DUP2 GT ISZERO PUSH2 0xF82 JUMPI PUSH2 0xF81 PUSH2 0x2B1D JUMP JUMPDEST JUMPDEST DUP7 PUSH1 0xD ADD PUSH0 SWAP1 SLOAD SWAP1 PUSH2 0x100 EXP SWAP1 DIV PUSH1 0xFF AND PUSH1 0x3 DUP2 GT ISZERO PUSH2 0xFA5 JUMPI PUSH2 0xFA4 PUSH2 0x2B1D JUMP JUMPDEST JUMPDEST EQ PUSH2 0xFB4 JUMPI DUP6 PUSH1 0xF ADD SLOAD PUSH2 0xFBA JUMP JUMPDEST DUP6 PUSH1 0xE ADD SLOAD JUMPDEST SWAP1 POP PUSH0 DUP7 PUSH1 0xF ADD SLOAD DUP8 PUSH1 0xE ADD SLOAD PUSH2 0xFD1 SWAP2 SWAP1 PUSH2 0x37D9 JUMP JUMPDEST SWAP1 POP DUP2 DUP2 DUP5 PUSH2 0xFE0 SWAP2 SWAP1 PUSH2 0x3954 JUMP JUMPDEST PUSH2 0xFEA SWAP2 SWAP1 PUSH2 0x39C2 JUMP JUMPDEST SWAP6 POP POP POP POP JUMPDEST POP JUMPDEST PUSH0 DUP3 GT PUSH2 0x1034 JUMPI PUSH1 0x40 MLOAD PUSH32 0x8C379A000000000000000000000000000000000000000000000000000000000 DUP2 MSTORE PUSH1 0x4 ADD PUSH2 0x102B SWAP1 PUSH2 0x3A3C JUMP JUMPDEST PUSH1 0x40 MLOAD DUP1 SWAP2 SUB SWAP1 REVERT JUMPDEST PUSH0 DUP4 PUSH1 0x11 ADD SLOAD GT ISZERO PUSH2 0x106E JUMPI PUSH2 0x2710 DUP4 PUSH1 0x11 ADD SLOAD DUP4 PUSH2 0x1053 SWAP2 SWAP1 PUSH2 0x3954 JUMP JUMPDEST PUSH2 0x105D SWAP2 SWAP1 PUSH2 0x39C2 JUMP JUMPDEST SWAP1 POP DUP1 DUP3 PUSH2 0x106B SWAP2 SWAP1 PUSH2 0x3A5A JUMP JUMPDEST SWAP2 POP JUMPDEST PUSH1 0x1 DUP4 PUSH1 0x16 ADD PUSH0 CALLER PUSH20 0xFFFFFFFFFFFFFFFFFFFFFFFFFFFFFFFFFFFFFFFF AND PUSH20 0xFFFFFFFFFFFFFFFFFFFFFFFFFFFFFFFFFFFFFFFF AND DUP2 MSTORE PUSH1 0x20 ADD SWAP1 DUP2 MSTORE PUSH1 0x20 ADD PUSH0 KECCAK256 PUSH0 PUSH2 0x100 EXP DUP2 SLOAD DUP2 PUSH1 0xFF MUL NOT AND SWAP1 DUP4 ISZERO ISZERO MUL OR SWAP1 SSTORE POP DUP3 PUSH1 0x10 ADD PUSH0 SWAP1 SLOAD SWAP1 PUSH2 0x100 EXP SWAP1 DIV PUSH20 0xFFFFFFFFFFFFFFFFFFFFFFFFFFFFFFFFFFFFFFFF AND PUSH20 0xFFFFFFFFFFFFFFFFFFFFFFFFFFFFFFFFFFFFFFFF AND PUSH4 0xA9059CBB CALLER DUP5 PUSH1 0x40 MLOAD DUP4 PUSH4 0xFFFFFFFF AND PUSH1 0xE0 SHL DUP2 MSTORE PUSH1 0x4 ADD PUSH2 0x1123 SWAP3 SWAP2 SWAP1 PUSH2 0x3A8D JUMP JUMPDEST PUSH1 0x20 PUSH1 0x40 MLOAD DUP1 DUP4 SUB DUP2 PUSH0 DUP8 GAS CALL ISZERO DUP1 ISZERO PUSH2 0x113F JUMPI RETURNDATASIZE PUSH0 DUP1 RETURNDATACOPY RETURNDATASIZE PUSH0 REVERT JUMPDEST POP POP POP POP PUSH1 0x40 MLOAD RETURNDATASIZE PUSH1 0x1F NOT PUSH1 0x1F DUP3 ADD AND DUP3 ADD DUP1 PUSH1 0x40 MSTORE POP DUP2 ADD SWAP1 PUSH2 0x1163 SWAP2 SWAP1 PUSH2 0x3AC8 JUMP JUMPDEST PUSH2 0x11A2 JUMPI PUSH1 0x40 MLOAD PUSH32 0x8C379A000000000000000000000000000000000000000000000000000000000 DUP2 MSTORE PUSH1 0x4 ADD PUSH2 0x1199 SWAP1 PUSH2 0x3B3D JUMP JUMPDEST PUSH1 0x40 MLOAD DUP1 SWAP2 SUB SWAP1 REVERT JUMPDEST PUSH0 DUP2 GT ISZERO PUSH2 0x12A9 JUMPI DUP3 PUSH1 0x10 ADD PUSH0 SWAP1 SLOAD SWAP1 PUSH2 0x100 EXP SWAP1 DIV PUSH20 0xFFFFFFFFFFFFFFFFFFFFFFFFFFFFFFFFFFFFFFFF AND PUSH20 0xFFFFFFFFFFFFFFFFFFFFFFFFFFFFFFFFFFFFFFFF AND PUSH4 0xA9059CBB PUSH1 0x5 PUSH0 SWAP1 SLOAD SWAP1 PUSH2 0x100 EXP SWAP1 DIV PUSH20 0xFFFFFFFFFFFFFFFFFFFFFFFFFFFFFFFFFFFFFFFF AND DUP4 PUSH1 0x40 MLOAD DUP4 PUSH4 0xFFFFFFFF AND PUSH1 0xE0 SHL DUP2 MSTORE PUSH1 0x4 ADD PUSH2 0x1229 SWAP3 SWAP2 SWAP1 PUSH2 0x3A8D JUMP JUMPDEST PUSH1 0x20 PUSH1 0x40 MLOAD DUP1 DUP4 SUB DUP2 PUSH0 DUP8 GAS CALL ISZERO DUP1 ISZERO PUSH2 0x1245 JUMPI RETURNDATASIZE PUSH0 DUP1 RETURNDATACOPY RETURNDATASIZE PUSH0 REVERT JUMPDEST POP POP POP POP PUSH1 0x40 MLOAD RETURNDATASIZE PUSH1 0x1F NOT PUSH1 0x1F DUP3 ADD AND DUP3 ADD DUP1 PUSH1 0x40 MSTORE POP DUP2 ADD SWAP1 PUSH2 0x1269 SWAP2 SWAP1 PUSH2 0x3AC8 JUMP JUMPDEST PUSH2 0x12A8 JUMPI PUSH1 0x40 MLOAD PUSH32 0x8C379A000000000000000000000000000000000000000000000000000000000 DUP2 MSTORE PUSH1 0x4 ADD PUSH2 0x129F SWAP1 PUSH2 0x3BA5 JUMP JUMPDEST PUSH1 0x40 MLOAD DUP1 SWAP2 SUB SWAP1 REVERT JUMPDEST JUMPDEST CALLER PUSH20 0xFFFFFFFFFFFFFFFFFFFFFFFFFFFFFFFFFFFFFFFF AND DUP5 PUSH32 0xFC6ECD966B430510BEAE9124EFE7DD517ED5286D7ED0AE258F8556C7A9765A44 DUP5 DUP5 PUSH1 0x40 MLOAD PUSH2 0x12F2 SWAP3 SWAP2 SWAP1 PUSH2 0x3BC3 JUMP JUMPDEST PUSH1 0x40 MLOAD DUP1 SWAP2 SUB SWAP1 LOG3 POP POP POP PUSH2 0x1305 PUSH2 0x2229 JUMP JUMPDEST POP JUMP JUMPDEST PUSH1 0x60 DUP1 PUSH1 0x60 PUSH0 PUSH1 0x60 PUSH0 DUP1 PUSH0 DUP1 PUSH0 DUP1 PUSH0 DUP1 PUSH1 0x2 PUSH0 DUP16 DUP2 MSTORE PUSH1 0x20 ADD SWAP1 DUP2 MSTORE PUSH1 0x20 ADD PUSH0 KECCAK256 SWAP1 POP DUP1 PUSH0 ADD PUSH0 ADD DUP2 PUSH0 ADD PUSH1 0x1 ADD DUP3 PUSH0 ADD PUSH1 0x2 ADD DUP4 PUSH0 ADD PUSH1 0x3 ADD PUSH0 SWAP1 SLOAD SWAP1 PUSH2 0x100 EXP SWAP1 DIV PUSH1 0xFF AND DUP5 PUSH0 ADD PUSH1 0x4 ADD DUP6 PUSH1 0xB ADD SLOAD DUP7 PUSH1 0xC ADD SLOAD DUP8 PUSH1 0xD ADD PUSH0 SWAP1 SLOAD SWAP1 PUSH2 0x100 EXP SWAP1 DIV PUSH1 0xFF AND DUP9 PUSH1 0xE ADD SLOAD DUP10 PUSH1 0xF ADD SLOAD DUP11 PUSH1 0x10 ADD PUSH0 SWAP1 SLOAD SWAP1 PUSH2 0x100 EXP SWAP1 DIV PUSH20 0xFFFFFFFFFFFFFFFFFFFFFFFFFFFFFFFFFFFFFFFF AND DUP12 PUSH1 0x11 ADD SLOAD DUP12 DUP1 SLOAD PUSH2 0x13AF SWAP1 PUSH2 0x3546 JUMP JUMPDEST DUP1 PUSH1 0x1F ADD PUSH1 0x20 DUP1 SWAP2 DIV MUL PUSH1 0x20 ADD PUSH1 0x40 MLOAD SWAP1 DUP2 ADD PUSH1 0x40 MSTORE DUP1 SWAP3 SWAP2 SWAP1 DUP2 DUP2 MSTORE PUSH1 0x20 ADD DUP3 DUP1 SLOAD PUSH2 0x13DB SWAP1 PUSH2 0x3546 JUMP JUMPDEST DUP1 ISZERO PUSH2 0x1426 JUMPI DUP1 PUSH1 0x1F LT PUSH2 0x13FD JUMPI PUSH2 0x100 DUP1 DUP4 SLOAD DIV MUL DUP4 MSTORE SWAP2 PUSH1 0x20 ADD SWAP2 PUSH2 0x1426 JUMP JUMPDEST DUP3 ADD SWAP2 SWAP1 PUSH0 MSTORE PUSH1 0x20 PUSH0 KECCAK256 SWAP1 JUMPDEST DUP2 SLOAD DUP2 MSTORE SWAP1 PUSH1 0x1 ADD SWAP1 PUSH1 0x20 ADD DUP1 DUP4 GT PUSH2 0x1409 JUMPI DUP3 SWAP1 SUB PUSH1 0x1F AND DUP3 ADD SWAP2 JUMPDEST POP POP POP POP POP SWAP12 POP DUP11 DUP1 SLOAD PUSH2 0x1439 SWAP1 PUSH2 0x3546 JUMP JUMPDEST DUP1 PUSH1 0x1F ADD PUSH1 0x20 DUP1 SWAP2 DIV MUL PUSH1 0x20 ADD PUSH1 0x40 MLOAD SWAP1 DUP2 ADD PUSH1 0x40 MSTORE DUP1 SWAP3 SWAP2 SWAP1 DUP2 DUP2 MSTORE PUSH1 0x20 ADD DUP3 DUP1 SLOAD PUSH2 0x1465 SWAP1 PUSH2 0x3546 JUMP JUMPDEST DUP1 ISZERO PUSH2 0x14B0 JUMPI DUP1 PUSH1 0x1F LT PUSH2 0x1487 JUMPI PUSH2 0x100 DUP1 DUP4 SLOAD DIV MUL DUP4 MSTORE SWAP2 PUSH1 0x20 ADD SWAP2 PUSH2 0x14B0 JUMP JUMPDEST DUP3 ADD SWAP2 SWAP1 PUSH0 MSTORE PUSH1 0x20 PUSH0 KECCAK256 SWAP1 JUMPDEST DUP2 SLOAD DUP2 MSTORE SWAP1 PUSH1 0x1 ADD SWAP1 PUSH1 0x20 ADD DUP1 DUP4 GT PUSH2 0x1493 JUMPI DUP3 SWAP1 SUB PUSH1 0x1F AND DUP3 ADD SWAP2 JUMPDEST POP POP POP POP POP SWAP11 POP DUP10 DUP1 SLOAD PUSH2 0x14C3 SWAP1 PUSH2 0x3546 JUMP JUMPDEST DUP1 PUSH1 0x1F ADD PUSH1 0x20 DUP1 SWAP2 DIV MUL PUSH1 0x20 ADD PUSH1 0x40 MLOAD SWAP1 DUP2 ADD PUSH1 0x40 MSTORE DUP1 SWAP3 SWAP2 SWAP1 DUP2 DUP2 MSTORE PUSH1 0x20 ADD DUP3 DUP1 SLOAD PUSH2 0x14EF SWAP1 PUSH2 0x3546 JUMP JUMPDEST DUP1 ISZERO PUSH2 0x153A JUMPI DUP1 PUSH1 0x1F LT PUSH2 0x1511 JUMPI PUSH2 0x100 DUP1 DUP4 SLOAD DIV MUL DUP4 MSTORE SWAP2 PUSH1 0x20 ADD SWAP2 PUSH2 0x153A JUMP JUMPDEST DUP3 ADD SWAP2 SWAP1 PUSH0 MSTORE PUSH1 0x20 PUSH0 KECCAK256 SWAP1 JUMPDEST DUP2 SLOAD DUP2 MSTORE SWAP1 PUSH1 0x1 ADD SWAP1 PUSH1 0x20 ADD DUP1 DUP4 GT PUSH2 0x151D JUMPI DUP3 SWAP1 SUB PUSH1 0x1F AND DUP3 ADD SWAP2 JUMPDEST POP POP POP POP POP SWAP10 POP DUP8 DUP1 SLOAD DUP1 PUSH1 0x20 MUL PUSH1 0x20 ADD PUSH1 0x40 MLOAD SWAP1 DUP2 ADD PUSH1 0x40 MSTORE DUP1 SWAP3 SWAP2 SWAP1 DUP2 DUP2 MSTORE PUSH1 0x20 ADD PUSH0 SWAP1 JUMPDEST DUP3 DUP3 LT ISZERO PUSH2 0x1609 JUMPI DUP4 DUP3 SWAP1 PUSH0 MSTORE PUSH1 0x20 PUSH0 KECCAK256 ADD DUP1 SLOAD PUSH2 0x157E SWAP1 PUSH2 0x3546 JUMP JUMPDEST DUP1 PUSH1 0x1F ADD PUSH1 0x20 DUP1 SWAP2 DIV MUL PUSH1 0x20 ADD PUSH1 0x40 MLOAD SWAP1 DUP2 ADD PUSH1 0x40 MSTORE DUP1 SWAP3 SWAP2 SWAP1 DUP2 DUP2 MSTORE PUSH1 0x20 ADD DUP3 DUP1 SLOAD PUSH2 0x15AA SWAP1 PUSH2 0x3546 JUMP JUMPDEST DUP1 ISZERO PUSH2 0x15F5 JUMPI DUP1 PUSH1 0x1F LT PUSH2 0x15CC JUMPI PUSH2 0x100 DUP1 DUP4 SLOAD DIV MUL DUP4 MSTORE SWAP2 PUSH1 0x20 ADD SWAP2 PUSH2 0x15F5 JUMP JUMPDEST DUP3 ADD SWAP2 SWAP1 PUSH0 MSTORE PUSH1 0x20 PUSH0 KECCAK256 SWAP1 JUMPDEST DUP2 SLOAD DUP2 MSTORE SWAP1 PUSH1 0x1 ADD SWAP1 PUSH1 0x20 ADD DUP1 DUP4 GT PUSH2 0x15D8 JUMPI DUP3 SWAP1 SUB PUSH1 0x1F AND DUP3 ADD SWAP2 JUMPDEST POP POP POP POP POP DUP2 MSTORE PUSH1 0x20 ADD SWAP1 PUSH1 0x1 ADD SWAP1 PUSH2 0x1561 JUMP JUMPDEST POP POP POP POP SWAP8 POP SWAP13 POP SWAP13 POP SWAP13 POP SWAP13 POP SWAP13 POP SWAP13 POP SWAP13 POP SWAP13 POP SWAP13 POP SWAP13 POP SWAP13 POP SWAP13 POP POP SWAP2 SWAP4 SWAP6 SWAP8 SWAP10 SWAP12 POP SWAP2 SWAP4 SWAP6 SWAP8 SWAP10 SWAP12 JUMP JUMPDEST PUSH1 0x2 PUSH1 0x20 MSTORE DUP1 PUSH0 MSTORE PUSH1 0x40 PUSH0 KECCAK256 PUSH0 SWAP2 POP SWAP1 POP DUP1 PUSH0 ADD PUSH1 0x40 MLOAD DUP1 PUSH1 0xA0 ADD PUSH1 0x40 MSTORE SWAP1 DUP2 PUSH0 DUP3 ADD DUP1 SLOAD PUSH2 0x1665 SWAP1 PUSH2 0x3546 JUMP JUMPDEST DUP1 PUSH1 0x1F ADD PUSH1 0x20 DUP1 SWAP2 DIV MUL PUSH1 0x20 ADD PUSH1 0x40 MLOAD SWAP1 DUP2 ADD PUSH1 0x40 MSTORE DUP1 SWAP3 SWAP2 SWAP1 DUP2 DUP2 MSTORE PUSH1 0x20 ADD DUP3 DUP1 SLOAD PUSH2 0x1691 SWAP1 PUSH2 0x3546 JUMP JUMPDEST DUP1 ISZERO PUSH2 0x16DC JUMPI DUP1 PUSH1 0x1F LT PUSH2 0x16B3 JUMPI PUSH2 0x100 DUP1 DUP4 SLOAD DIV MUL DUP4 MSTORE SWAP2 PUSH1 0x20 ADD SWAP2 PUSH2 0x16DC JUMP JUMPDEST DUP3 ADD SWAP2 SWAP1 PUSH0 MSTORE PUSH1 0x20 PUSH0 KECCAK256 SWAP1 JUMPDEST DUP2 SLOAD DUP2 MSTORE SWAP1 PUSH1 0x1 ADD SWAP1 PUSH1 0x20 ADD DUP1 DUP4 GT PUSH2 0x16BF JUMPI DUP3 SWAP1 SUB PUSH1 0x1F AND DUP3 ADD SWAP2 JUMPDEST POP POP POP POP POP DUP2 MSTORE PUSH1 0x20 ADD PUSH1 0x1 DUP3 ADD DUP1 SLOAD PUSH2 0x16F5 SWAP1 PUSH2 0x3546 JUMP JUMPDEST DUP1 PUSH1 0x1F ADD PUSH1 0x20 DUP1 SWAP2 DIV MUL PUSH1 0x20 ADD PUSH1 0x40 MLOAD SWAP1 DUP2 ADD PUSH1 0x40 MSTORE DUP1 SWAP3 SWAP2 SWAP1 DUP2 DUP2 MSTORE PUSH1 0x20 ADD DUP3 DUP1 SLOAD PUSH2 0x1721 SWAP1 PUSH2 0x3546 JUMP JUMPDEST DUP1 ISZERO PUSH2 0x176C JUMPI DUP1 PUSH1 0x1F LT PUSH2 0x1743 JUMPI PUSH2 0x100 DUP1 DUP4 SLOAD DIV MUL DUP4 MSTORE SWAP2 PUSH1 0x20 ADD SWAP2 PUSH2 0x176C JUMP JUMPDEST DUP3 ADD SWAP2 SWAP1 PUSH0 MSTORE PUSH1 0x20 PUSH0 KECCAK256 SWAP1 JUMPDEST DUP2 SLOAD DUP2 MSTORE SWAP1 PUSH1 0x1 ADD SWAP1 PUSH1 0x20 ADD DUP1 DUP4 GT PUSH2 0x174F JUMPI DUP3 SWAP1 SUB PUSH1 0x1F AND DUP3 ADD SWAP2 JUMPDEST POP POP POP POP POP DUP2 MSTORE PUSH1 0x20 ADD PUSH1 0x2 DUP3 ADD DUP1 SLOAD PUSH2 0x1785 SWAP1 PUSH2 0x3546 JUMP JUMPDEST DUP1 PUSH1 0x1F ADD PUSH1 0x20 DUP1 SWAP2 DIV MUL PUSH1 0x20 ADD PUSH1 0x40 MLOAD SWAP1 DUP2 ADD PUSH1 0x40 MSTORE DUP1 SWAP3 SWAP2 SWAP1 DUP2 DUP2 MSTORE PUSH1 0x20 ADD DUP3 DUP1 SLOAD PUSH2 0x17B1 SWAP1 PUSH2 0x3546 JUMP JUMPDEST DUP1 ISZERO PUSH2 0x17FC JUMPI DUP1 PUSH1 0x1F LT PUSH2 0x17D3 JUMPI PUSH2 0x100 DUP1 DUP4 SLOAD DIV MUL DUP4 MSTORE SWAP2 PUSH1 0x20 ADD SWAP2 PUSH2 0x17FC JUMP JUMPDEST DUP3 ADD SWAP2 SWAP1 PUSH0 MSTORE PUSH1 0x20 PUSH0 KECCAK256 SWAP1 JUMPDEST DUP2 SLOAD DUP2 MSTORE SWAP1 PUSH1 0x1 ADD SWAP1 PUSH1 0x20 ADD DUP1 DUP4 GT PUSH2 0x17DF JUMPI DUP3 SWAP1 SUB PUSH1 0x1F AND DUP3 ADD SWAP2 JUMPDEST POP POP POP POP POP DUP2 MSTORE PUSH1 0x20 ADD PUSH1 0x3 DUP3 ADD PUSH0 SWAP1 SLOAD SWAP1 PUSH2 0x100 EXP SWAP1 DIV PUSH1 0xFF AND PUSH1 0x5 DUP2 GT ISZERO PUSH2 0x1829 JUMPI PUSH2 0x1828 PUSH2 0x2B1D JUMP JUMPDEST JUMPDEST PUSH1 0x5 DUP2 GT ISZERO PUSH2 0x183B JUMPI PUSH2 0x183A PUSH2 0x2B1D JUMP JUMPDEST JUMPDEST DUP2 MSTORE PUSH1 0x20 ADD PUSH1 0x4 DUP3 ADD DUP1 SLOAD DUP1 PUSH1 0x20 MUL PUSH1 0x20 ADD PUSH1 0x40 MLOAD SWAP1 DUP2 ADD PUSH1 0x40 MSTORE DUP1 SWAP3 SWAP2 SWAP1 DUP2 DUP2 MSTORE PUSH1 0x20 ADD PUSH0 SWAP1 JUMPDEST DUP3 DUP3 LT ISZERO PUSH2 0x190B JUMPI DUP4 DUP3 SWAP1 PUSH0 MSTORE PUSH1 0x20 PUSH0 KECCAK256 ADD DUP1 SLOAD PUSH2 0x1880 SWAP1 PUSH2 0x3546 JUMP JUMPDEST DUP1 PUSH1 0x1F ADD PUSH1 0x20 DUP1 SWAP2 DIV MUL PUSH1 0x20 ADD PUSH1 0x40 MLOAD SWAP1 DUP2 ADD PUSH1 0x40 MSTORE DUP1 SWAP3 SWAP2 SWAP1 DUP2 DUP2 MSTORE PUSH1 0x20 ADD DUP3 DUP1 SLOAD PUSH2 0x18AC SWAP1 PUSH2 0x3546 JUMP JUMPDEST DUP1 ISZERO PUSH2 0x18F7 JUMPI DUP1 PUSH1 0x1F LT PUSH2 0x18CE JUMPI PUSH2 0x100 DUP1 DUP4 SLOAD DIV MUL DUP4 MSTORE SWAP2 PUSH1 0x20 ADD SWAP2 PUSH2 0x18F7 JUMP JUMPDEST DUP3 ADD SWAP2 SWAP1 PUSH0 MSTORE PUSH1 0x20 PUSH0 KECCAK256 SWAP1 JUMPDEST DUP2 SLOAD DUP2 MSTORE SWAP1 PUSH1 0x1 ADD SWAP1 PUSH1 0x20 ADD DUP1 DUP4 GT PUSH2 0x18DA JUMPI DUP3 SWAP1 SUB PUSH1 0x1F AND DUP3 ADD SWAP2 JUMPDEST POP POP POP POP POP DUP2 MSTORE PUSH1 0x20 ADD SWAP1 PUSH1 0x1 ADD SWAP1 PUSH2 0x1863 JUMP JUMPDEST POP POP POP POP DUP2 MSTORE POP POP SWAP1 DUP1 PUSH1 0x5 ADD PUSH1 0x40 MLOAD DUP1 PUSH1 0xC0 ADD PUSH1 0x40 MSTORE SWAP1 DUP2 PUSH0 DUP3 ADD SLOAD DUP2 MSTORE PUSH1 0x20 ADD PUSH1 0x1 DUP3 ADD SLOAD DUP2 MSTORE PUSH1 0x20 ADD PUSH1 0x2 DUP3 ADD SLOAD DUP2 MSTORE PUSH1 0x20 ADD PUSH1 0x3 DUP3 ADD SLOAD DUP2 MSTORE PUSH1 0x20 ADD PUSH1 0x4 DUP3 ADD PUSH0 SWAP1 SLOAD SWAP1 PUSH2 0x100 EXP SWAP1 DIV PUSH20 0xFFFFFFFFFFFFFFFFFFFFFFFFFFFFFFFFFFFFFFFF AND PUSH20 0xFFFFFFFFFFFFFFFFFFFFFFFFFFFFFFFFFFFFFFFF AND PUSH20 0xFFFFFFFFFFFFFFFFFFFFFFFFFFFFFFFFFFFFFFFF AND DUP2 MSTORE PUSH1 0x20 ADD PUSH1 0x5 DUP3 ADD SLOAD DUP2 MSTORE POP POP SWAP1 DUP1 PUSH1 0xB ADD SLOAD SWAP1 DUP1 PUSH1 0xC ADD SLOAD SWAP1 DUP1 PUSH1 0xD ADD PUSH0 SWAP1 SLOAD SWAP1 PUSH2 0x100 EXP SWAP1 DIV PUSH1 0xFF AND SWAP1 DUP1 PUSH1 0xE ADD SLOAD SWAP1 DUP1 PUSH1 0xF ADD SLOAD SWAP1 DUP1 PUSH1 0x10 ADD PUSH0 SWAP1 SLOAD SWAP1 PUSH2 0x100 EXP SWAP1 DIV PUSH20 0xFFFFFFFFFFFFFFFFFFFFFFFFFFFFFFFFFFFFFFFF AND SWAP1 DUP1 PUSH1 0x11 ADD SLOAD SWAP1 DUP1 PUSH1 0x12 ADD PUSH0 SWAP1 SLOAD SWAP1 PUSH2 0x100 EXP SWAP1 DIV PUSH1 0xFF AND SWAP1 POP DUP11 JUMP JUMPDEST PUSH1 0x4 SLOAD DUP2 JUMP JUMPDEST PUSH1 0x5 PUSH0 SWAP1 SLOAD SWAP1 PUSH2 0x100 EXP SWAP1 DIV PUSH20 0xFFFFFFFFFFFFFFFFFFFFFFFFFFFFFFFFFFFFFFFF AND DUP2 JUMP JUMPDEST PUSH2 0x1A48 PUSH2 0x2092 JUMP JUMPDEST PUSH0 PUSH20 0xFFFFFFFFFFFFFFFFFFFFFFFFFFFFFFFFFFFFFFFF AND DUP2 PUSH20 0xFFFFFFFFFFFFFFFFFFFFFFFFFFFFFFFFFFFFFFFF AND SUB PUSH2 0x1AB6 JUMPI PUSH1 0x40 MLOAD PUSH32 0x8C379A000000000000000000000000000000000000000000000000000000000 DUP2 MSTORE PUSH1 0x4 ADD PUSH2 0x1AAD SWAP1 PUSH2 0x3C34 JUMP JUMPDEST PUSH1 0x40 MLOAD DUP1 SWAP2 SUB SWAP1 REVERT JUMPDEST DUP1 PUSH1 0x5 PUSH0 PUSH2 0x100 EXP DUP2 SLOAD DUP2 PUSH20 0xFFFFFFFFFFFFFFFFFFFFFFFFFFFFFFFFFFFFFFFF MUL NOT AND SWAP1 DUP4 PUSH20 0xFFFFFFFFFFFFFFFFFFFFFFFFFFFFFFFFFFFFFFFF AND MUL OR SWAP1 SSTORE POP PUSH32 0xE5693914D19C789BDEE50A362998C0BC8D035A835F9871DA5D51152F0582C34F DUP2 PUSH1 0x40 MLOAD PUSH2 0x1B25 SWAP2 SWAP1 PUSH2 0x2A66 JUMP JUMPDEST PUSH1 0x40 MLOAD DUP1 SWAP2 SUB SWAP1 LOG1 POP JUMP JUMPDEST PUSH2 0x1B38 PUSH2 0x21DA JUMP JUMPDEST PUSH0 PUSH1 0x2 PUSH0 DUP6 DUP2 MSTORE PUSH1 0x20 ADD SWAP1 DUP2 MSTORE PUSH1 0x20 ADD PUSH0 KECCAK256 SWAP1 POP DUP1 PUSH1 0xB ADD SLOAD TIMESTAMP LT ISZERO PUSH2 0x1B93 JUMPI PUSH1 0x40 MLOAD PUSH32 0x8C379A000000000000000000000000000000000000000000000000000000000 DUP2 MSTORE PUSH1 0x4 ADD PUSH2 0x1B8A SWAP1 PUSH2 0x3C9C JUMP JUMPDEST PUSH1 0x40 MLOAD DUP1 SWAP2 SUB SWAP1 REVERT JUMPDEST DUP1 PUSH1 0xC ADD SLOAD TIMESTAMP LT PUSH2 0x1BD9 JUMPI PUSH1 0x40 MLOAD PUSH32 0x8C379A000000000000000000000000000000000000000000000000000000000 DUP2 MSTORE PUSH1 0x4 ADD PUSH2 0x1BD0 SWAP1 PUSH2 0x3D04 JUMP JUMPDEST PUSH1 0x40 MLOAD DUP1 SWAP2 SUB SWAP1 REVERT JUMPDEST PUSH0 PUSH1 0x3 DUP2 GT ISZERO PUSH2 0x1BEC JUMPI PUSH2 0x1BEB PUSH2 0x2B1D JUMP JUMPDEST JUMPDEST DUP2 PUSH1 0xD ADD PUSH0 SWAP1 SLOAD SWAP1 PUSH2 0x100 EXP SWAP1 DIV PUSH1 0xFF AND PUSH1 0x3 DUP2 GT ISZERO PUSH2 0x1C0F JUMPI PUSH2 0x1C0E PUSH2 0x2B1D JUMP JUMPDEST JUMPDEST EQ PUSH2 0x1C4F JUMPI PUSH1 0x40 MLOAD PUSH32 0x8C379A000000000000000000000000000000000000000000000000000000000 DUP2 MSTORE PUSH1 0x4 ADD PUSH2 0x1C46 SWAP1 PUSH2 0x3251 JUMP JUMPDEST PUSH1 0x40 MLOAD DUP1 SWAP2 SUB SWAP1 REVERT JUMPDEST PUSH0 DUP3 GT PUSH2 0x1C91 JUMPI PUSH1 0x40 MLOAD PUSH32 0x8C379A000000000000000000000000000000000000000000000000000000000 DUP2 MSTORE PUSH1 0x4 ADD PUSH2 0x1C88 SWAP1 PUSH2 0x3D6C JUMP JUMPDEST PUSH1 0x40 MLOAD DUP1 SWAP2 SUB SWAP1 REVERT JUMPDEST DUP1 PUSH1 0x10 ADD PUSH0 SWAP1 SLOAD SWAP1 PUSH2 0x100 EXP SWAP1 DIV PUSH20 0xFFFFFFFFFFFFFFFFFFFFFFFFFFFFFFFFFFFFFFFF AND PUSH20 0xFFFFFFFFFFFFFFFFFFFFFFFFFFFFFFFFFFFFFFFF AND PUSH4 0x23B872DD CALLER ADDRESS DUP6 PUSH1 0x40 MLOAD DUP5 PUSH4 0xFFFFFFFF AND PUSH1 0xE0 SHL DUP2 MSTORE PUSH1 0x4 ADD PUSH2 0x1CF1 SWAP4 SWAP3 SWAP2 SWAP1 PUSH2 0x3D8A JUMP JUMPDEST PUSH1 0x20 PUSH1 0x40 MLOAD DUP1 DUP4 SUB DUP2 PUSH0 DUP8 GAS CALL ISZERO DUP1 ISZERO PUSH2 0x1D0D JUMPI RETURNDATASIZE PUSH0 DUP1 RETURNDATACOPY RETURNDATASIZE PUSH0 REVERT JUMPDEST POP POP POP POP PUSH1 0x40 MLOAD RETURNDATASIZE PUSH1 0x1F NOT PUSH1 0x1F DUP3 ADD AND DUP3 ADD DUP1 PUSH1 0x40 MSTORE POP DUP2 ADD SWAP1 PUSH2 0x1D31 SWAP2 SWAP1 PUSH2 0x3AC8 JUMP JUMPDEST PUSH2 0x1D70 JUMPI PUSH1 0x40 MLOAD PUSH32 0x8C379A000000000000000000000000000000000000000000000000000000000 DUP2 MSTORE PUSH1 0x4 ADD PUSH2 0x1D67 SWAP1 PUSH2 0x3E09 JUMP JUMPDEST PUSH1 0x40 MLOAD DUP1 SWAP2 SUB SWAP1 REVERT JUMPDEST DUP3 ISZERO PUSH2 0x1DEA JUMPI DUP2 DUP2 PUSH1 0x13 ADD PUSH0 CALLER PUSH20 0xFFFFFFFFFFFFFFFFFFFFFFFFFFFFFFFFFFFFFFFF AND PUSH20 0xFFFFFFFFFFFFFFFFFFFFFFFFFFFFFFFFFFFFFFFF AND DUP2 MSTORE PUSH1 0x20 ADD SWAP1 DUP2 MSTORE PUSH1 0x20 ADD PUSH0 KECCAK256 PUSH0 DUP3 DUP3 SLOAD PUSH2 0x1DC4 SWAP2 SWAP1 PUSH2 0x37D9 JUMP JUMPDEST SWAP3 POP POP DUP2 SWAP1 SSTORE POP DUP2 DUP2 PUSH1 0xE ADD PUSH0 DUP3 DUP3 SLOAD PUSH2 0x1DDE SWAP2 SWAP1 PUSH2 0x37D9 JUMP JUMPDEST SWAP3 POP POP DUP2 SWAP1 SSTORE POP PUSH2 0x1E5A JUMP JUMPDEST DUP2 DUP2 PUSH1 0x14 ADD PUSH0 CALLER PUSH20 0xFFFFFFFFFFFFFFFFFFFFFFFFFFFFFFFFFFFFFFFF AND PUSH20 0xFFFFFFFFFFFFFFFFFFFFFFFFFFFFFFFFFFFFFFFF AND DUP2 MSTORE PUSH1 0x20 ADD SWAP1 DUP2 MSTORE PUSH1 0x20 ADD PUSH0 KECCAK256 PUSH0 DUP3 DUP3 SLOAD PUSH2 0x1E38 SWAP2 SWAP1 PUSH2 0x37D9 JUMP JUMPDEST SWAP3 POP POP DUP2 SWAP1 SSTORE POP DUP2 DUP2 PUSH1 0xF ADD PUSH0 DUP3 DUP3 SLOAD PUSH2 0x1E52 SWAP2 SWAP1 PUSH2 0x37D9 JUMP JUMPDEST SWAP3 POP POP DUP2 SWAP1 SSTORE POP JUMPDEST PUSH2 0x1E65 DUP5 CALLER DUP5 PUSH2 0x2232 JUMP JUMPDEST CALLER PUSH20 0xFFFFFFFFFFFFFFFFFFFFFFFFFFFFFFFFFFFFFFFF AND DUP5 PUSH32 0x77A255F45C79D26605C257D8DFC37F9A619F53963DDBED1E95AA0AAB1C801CEE DUP6 DUP6 TIMESTAMP PUSH1 0x40 MLOAD PUSH2 0x1EB0 SWAP4 SWAP3 SWAP2 SWAP1 PUSH2 0x3E27 JUMP JUMPDEST PUSH1 0x40 MLOAD DUP1 SWAP2 SUB SWAP1 LOG3 POP PUSH2 0x1EC1 PUSH2 0x2229 JUMP JUMPDEST POP POP POP JUMP JUMPDEST PUSH0 DUP1 PUSH0 DUP1 PUSH0 PUSH1 0x2 PUSH0 DUP9 DUP2 MSTORE PUSH1 0x20 ADD SWAP1 DUP2 MSTORE PUSH1 0x20 ADD PUSH0 KECCAK256 SWAP1 POP DUP1 PUSH1 0x13 ADD PUSH0 DUP8 PUSH20 0xFFFFFFFFFFFFFFFFFFFFFFFFFFFFFFFFFFFFFFFF AND PUSH20 0xFFFFFFFFFFFFFFFFFFFFFFFFFFFFFFFFFFFFFFFF AND DUP2 MSTORE PUSH1 0x20 ADD SWAP1 DUP2 MSTORE PUSH1 0x20 ADD PUSH0 KECCAK256 SLOAD DUP2 PUSH1 0x14 ADD PUSH0 DUP9 PUSH20 0xFFFFFFFFFFFFFFFFFFFFFFFFFFFFFFFFFFFFFFFF AND PUSH20 0xFFFFFFFFFFFFFFFFFFFFFFFFFFFFFFFFFFFFFFFF AND DUP2 MSTORE PUSH1 0x20 ADD SWAP1 DUP2 MSTORE PUSH1 0x20 ADD PUSH0 KECCAK256 SLOAD DUP3 PUSH1 0x15 ADD PUSH0 DUP10 PUSH20 0xFFFFFFFFFFFFFFFFFFFFFFFFFFFFFFFFFFFFFFFF AND PUSH20 0xFFFFFFFFFFFFFFFFFFFFFFFFFFFFFFFFFFFFFFFF AND DUP2 MSTORE PUSH1 0x20 ADD SWAP1 DUP2 MSTORE PUSH1 0x20 ADD PUSH0 KECCAK256 PUSH0 SWAP1 SLOAD SWAP1 PUSH2 0x100 EXP SWAP1 DIV PUSH1 0xFF AND DUP4 PUSH1 0x16 ADD PUSH0 DUP11 PUSH20 0xFFFFFFFFFFFFFFFFFFFFFFFFFFFFFFFFFFFFFFFF AND PUSH20 0xFFFFFFFFFFFFFFFFFFFFFFFFFFFFFFFFFFFFFFFF AND DUP2 MSTORE PUSH1 0x20 ADD SWAP1 DUP2 MSTORE PUSH1 0x20 ADD PUSH0 KECCAK256 PUSH0 SWAP1 SLOAD SWAP1 PUSH2 0x100 EXP SWAP1 DIV PUSH1 0xFF AND SWAP5 POP SWAP5 POP SWAP5 POP SWAP5 POP POP SWAP3 SWAP6 SWAP2 SWAP5 POP SWAP3 POP JUMP JUMPDEST PUSH1 0x3 SLOAD DUP2 JUMP JUMPDEST PUSH2 0x2016 PUSH2 0x2092 JUMP JUMPDEST PUSH0 PUSH20 0xFFFFFFFFFFFFFFFFFFFFFFFFFFFFFFFFFFFFFFFF AND DUP2 PUSH20 0xFFFFFFFFFFFFFFFFFFFFFFFFFFFFFFFFFFFFFFFF AND SUB PUSH2 0x2086 JUMPI PUSH0 PUSH1 0x40 MLOAD PUSH32 0x1E4FBDF700000000000000000000000000000000000000000000000000000000 DUP2 MSTORE PUSH1 0x4 ADD PUSH2 0x207D SWAP2 SWAP1 PUSH2 0x2A66 JUMP JUMPDEST PUSH1 0x40 MLOAD DUP1 SWAP2 SUB SWAP1 REVERT JUMPDEST PUSH2 0x208F DUP2 PUSH2 0x2119 JUMP JUMPDEST POP JUMP JUMPDEST PUSH2 0x209A PUSH2 0x23D0 JUMP JUMPDEST PUSH20 0xFFFFFFFFFFFFFFFFFFFFFFFFFFFFFFFFFFFFFFFF AND PUSH2 0x20B8 PUSH2 0xA64 JUMP JUMPDEST PUSH20 0xFFFFFFFFFFFFFFFFFFFFFFFFFFFFFFFFFFFFFFFF AND EQ PUSH2 0x2117 JUMPI PUSH2 0x20DB PUSH2 0x23D0 JUMP JUMPDEST PUSH1 0x40 MLOAD PUSH32 0x118CDAA700000000000000000000000000000000000000000000000000000000 DUP2 MSTORE PUSH1 0x4 ADD PUSH2 0x210E SWAP2 SWAP1 PUSH2 0x2A66 JUMP JUMPDEST PUSH1 0x40 MLOAD DUP1 SWAP2 SUB SWAP1 REVERT JUMPDEST JUMP JUMPDEST PUSH0 DUP1 PUSH0 SWAP1 SLOAD SWAP1 PUSH2 0x100 EXP SWAP1 DIV PUSH20 0xFFFFFFFFFFFFFFFFFFFFFFFFFFFFFFFFFFFFFFFF AND SWAP1 POP DUP2 PUSH0 DUP1 PUSH2 0x100 EXP DUP2 SLOAD DUP2 PUSH20 0xFFFFFFFFFFFFFFFFFFFFFFFFFFFFFFFFFFFFFFFF MUL NOT AND SWAP1 DUP4 PUSH20 0xFFFFFFFFFFFFFFFFFFFFFFFFFFFFFFFFFFFFFFFF AND MUL OR SWAP1 SSTORE POP DUP2 PUSH20 0xFFFFFFFFFFFFFFFFFFFFFFFFFFFFFFFFFFFFFFFF AND DUP2 PUSH20 0xFFFFFFFFFFFFFFFFFFFFFFFFFFFFFFFFFFFFFFFF AND PUSH32 0x8BE0079C531659141344CD1FD0A4F28419497F9722A3DAAFE3B4186F6B6457E0 PUSH1 0x40 MLOAD PUSH1 0x40 MLOAD DUP1 SWAP2 SUB SWAP1 LOG3 POP POP JUMP JUMPDEST PUSH1 0x2 PUSH1 0x1 SLOAD SUB PUSH2 0x221F JUMPI PUSH1 0x40 MLOAD PUSH32 0x8C379A000000000000000000000000000000000000000000000000000000000 DUP2 MSTORE PUSH1 0x4 ADD PUSH2 0x2216 SWAP1 PUSH2 0x3EA6 JUMP JUMPDEST PUSH1 0x40 MLOAD DUP1 SWAP2 SUB SWAP1 REVERT JUMPDEST PUSH1 0x2 PUSH1 0x1 DUP2 SWAP1 SSTORE POP JUMP JUMPDEST PUSH1 0x1 DUP1 DUP2 SWAP1 SSTORE POP JUMP JUMPDEST PUSH0 PUSH1 0x2 PUSH0 DUP6 DUP2 MSTORE PUSH1 0x20 ADD SWAP1 DUP2 MSTORE PUSH1 0x20 ADD PUSH0 KECCAK256 SWAP1 POP PUSH0 DUP2 PUSH1 0x5 ADD SWAP1 POP DUP2 PUSH1 0x15 ADD PUSH0 DUP6 PUSH20 0xFFFFFFFFFFFFFFFFFFFFFFFFFFFFFFFFFFFFFFFF AND PUSH20 0xFFFFFFFFFFFFFFFFFFFFFFFFFFFFFFFFFFFFFFFF AND DUP2 MSTORE PUSH1 0x20 ADD SWAP1 DUP2 MSTORE PUSH1 0x20 ADD PUSH0 KECCAK256 PUSH0 SWAP1 SLOAD SWAP1 PUSH2 0x100 EXP SWAP1 DIV PUSH1 0xFF AND PUSH2 0x230D JUMPI DUP1 PUSH0 ADD PUSH0 DUP2 SLOAD DUP1 SWAP3 SWAP2 SWAP1 PUSH2 0x22B0 SWAP1 PUSH2 0x34D2 JUMP JUMPDEST SWAP2 SWAP1 POP SSTORE POP PUSH1 0x1 DUP3 PUSH1 0x15 ADD PUSH0 DUP7 PUSH20 0xFFFFFFFFFFFFFFFFFFFFFFFFFFFFFFFFFFFFFFFF AND PUSH20 0xFFFFFFFFFFFFFFFFFFFFFFFFFFFFFFFFFFFFFFFF AND DUP2 MSTORE PUSH1 0x20 ADD SWAP1 DUP2 MSTORE PUSH1 0x20 ADD PUSH0 KECCAK256 PUSH0 PUSH2 0x100 EXP DUP2 SLOAD DUP2 PUSH1 0xFF MUL NOT AND SWAP1 DUP4 ISZERO ISZERO MUL OR SWAP1 SSTORE POP JUMPDEST DUP1 PUSH1 0x1 ADD PUSH0 DUP2 SLOAD DUP1 SWAP3 SWAP2 SWAP1 PUSH2 0x2321 SWAP1 PUSH2 0x34D2 JUMP JUMPDEST SWAP2 SWAP1 POP SSTORE POP DUP1 PUSH1 0x1 ADD SLOAD DUP4 PUSH1 0x1 DUP4 PUSH1 0x1 ADD SLOAD PUSH2 0x233D SWAP2 SWAP1 PUSH2 0x3A5A JUMP JUMPDEST DUP4 PUSH1 0x2 ADD SLOAD PUSH2 0x234C SWAP2 SWAP1 PUSH2 0x3954 JUMP JUMPDEST PUSH2 0x2356 SWAP2 SWAP1 PUSH2 0x37D9 JUMP JUMPDEST PUSH2 0x2360 SWAP2 SWAP1 PUSH2 0x39C2 JUMP JUMPDEST DUP2 PUSH1 0x2 ADD DUP2 SWAP1 SSTORE POP DUP1 PUSH1 0x3 ADD SLOAD DUP4 GT ISZERO PUSH2 0x23C0 JUMPI DUP3 DUP2 PUSH1 0x3 ADD DUP2 SWAP1 SSTORE POP DUP4 DUP2 PUSH1 0x4 ADD PUSH0 PUSH2 0x100 EXP DUP2 SLOAD DUP2 PUSH20 0xFFFFFFFFFFFFFFFFFFFFFFFFFFFFFFFFFFFFFFFF MUL NOT AND SWAP1 DUP4 PUSH20 0xFFFFFFFFFFFFFFFFFFFFFFFFFFFFFFFFFFFFFFFF AND MUL OR SWAP1 SSTORE POP JUMPDEST TIMESTAMP DUP2 PUSH1 0x5 ADD DUP2 SWAP1 SSTORE POP POP POP POP POP POP JUMP JUMPDEST PUSH0 CALLER SWAP1 POP SWAP1 JUMP JUMPDEST DUP3 DUP1 SLOAD DUP3 DUP3 SSTORE SWAP1 PUSH0 MSTORE PUSH1 0x20 PUSH0 KECCAK256 SWAP1 DUP2 ADD SWAP3 DUP3 ISZERO PUSH2 0x241D JUMPI SWAP2 PUSH1 0x20 MUL DUP3 ADD JUMPDEST DUP3 DUP2 GT ISZERO PUSH2 0x241C JUMPI DUP3 MLOAD DUP3 SWAP1 DUP2 PUSH2 0x240C SWAP2 SWAP1 PUSH2 0x370A JUMP JUMPDEST POP SWAP2 PUSH1 0x20 ADD SWAP2 SWAP1 PUSH1 0x1 ADD SWAP1 PUSH2 0x23F5 JUMP JUMPDEST JUMPDEST POP SWAP1 POP PUSH2 0x242A SWAP2 SWAP1 PUSH2 0x242E JUMP JUMPDEST POP SWAP1 JUMP JUMPDEST JUMPDEST DUP1 DUP3 GT ISZERO PUSH2 0x244D JUMPI PUSH0 DUP2 DUP2 PUSH2 0x2444 SWAP2 SWAP1 PUSH2 0x2451 JUMP JUMPDEST POP PUSH1 0x1 ADD PUSH2 0x242F JUMP JUMPDEST POP SWAP1 JUMP JUMPDEST POP DUP1 SLOAD PUSH2 0x245D SWAP1 PUSH2 0x3546 JUMP JUMPDEST PUSH0 DUP3 SSTORE DUP1 PUSH1 0x1F LT PUSH2 0x246E JUMPI POP PUSH2 0x248B JUMP JUMPDEST PUSH1 0x1F ADD PUSH1 0x20 SWAP1 DIV SWAP1 PUSH0 MSTORE PUSH1 0x20 PUSH0 KECCAK256 SWAP1 DUP2 ADD SWAP1 PUSH2 0x248A SWAP2 SWAP1 PUSH2 0x248E JUMP JUMPDEST JUMPDEST POP JUMP JUMPDEST JUMPDEST DUP1 DUP3 GT ISZERO PUSH2 0x24A5 JUMPI PUSH0 DUP2 PUSH0 SWAP1 SSTORE POP PUSH1 0x1 ADD PUSH2 0x248F JUMP JUMPDEST POP SWAP1 JUMP JUMPDEST PUSH0 PUSH1 0x40 MLOAD SWAP1 POP SWAP1 JUMP JUMPDEST PUSH0 DUP1 REVERT JUMPDEST PUSH0 DUP1 REVERT JUMPDEST PUSH0 DUP2 SWAP1 POP SWAP2 SWAP1 POP JUMP JUMPDEST PUSH2 0x24CC DUP2 PUSH2 0x24BA JUMP JUMPDEST DUP2 EQ PUSH2 0x24D6 JUMPI PUSH0 DUP1 REVERT JUMPDEST POP JUMP JUMPDEST PUSH0 DUP2 CALLDATALOAD SWAP1 POP PUSH2 0x24E7 DUP2 PUSH2 0x24C3 JUMP JUMPDEST SWAP3 SWAP2 POP POP JUMP JUMPDEST PUSH1 0x4 DUP2 LT PUSH2 0x24F9 JUMPI PUSH0 DUP1 REVERT JUMPDEST POP JUMP JUMPDEST PUSH0 DUP2 CALLDATALOAD SWAP1 POP PUSH2 0x250A DUP2 PUSH2 0x24ED JUMP JUMPDEST SWAP3 SWAP2 POP POP JUMP JUMPDEST PUSH0 DUP1 REVERT JUMPDEST PUSH0 DUP1 REVERT JUMPDEST PUSH0 PUSH1 0x1F NOT PUSH1 0x1F DUP4 ADD AND SWAP1 POP SWAP2 SWAP1 POP JUMP JUMPDEST PUSH32 0x4E487B7100000000000000000000000000000000000000000000000000000000 PUSH0 MSTORE PUSH1 0x41 PUSH1 0x4 MSTORE PUSH1 0x24 PUSH0 REVERT JUMPDEST PUSH2 0x255E DUP3 PUSH2 0x2518 JUMP JUMPDEST DUP2 ADD DUP2 DUP2 LT PUSH8 0xFFFFFFFFFFFFFFFF DUP3 GT OR ISZERO PUSH2 0x257D JUMPI PUSH2 0x257C PUSH2 0x2528 JUMP JUMPDEST JUMPDEST DUP1 PUSH1 0x40 MSTORE POP POP POP JUMP JUMPDEST PUSH0 PUSH2 0x258F PUSH2 0x24A9 JUMP JUMPDEST SWAP1 POP PUSH2 0x259B DUP3 DUP3 PUSH2 0x2555 JUMP JUMPDEST SWAP2 SWAP1 POP JUMP JUMPDEST PUSH0 PUSH8 0xFFFFFFFFFFFFFFFF DUP3 GT ISZERO PUSH2 0x25BA JUMPI PUSH2 0x25B9 PUSH2 0x2528 JUMP JUMPDEST JUMPDEST PUSH2 0x25C3 DUP3 PUSH2 0x2518 JUMP JUMPDEST SWAP1 POP PUSH1 0x20 DUP2 ADD SWAP1 POP SWAP2 SWAP1 POP JUMP JUMPDEST DUP3 DUP2 DUP4 CALLDATACOPY PUSH0 DUP4 DUP4 ADD MSTORE POP POP POP JUMP JUMPDEST PUSH0 PUSH2 0x25F0 PUSH2 0x25EB DUP5 PUSH2 0x25A0 JUMP JUMPDEST PUSH2 0x2586 JUMP JUMPDEST SWAP1 POP DUP3 DUP2 MSTORE PUSH1 0x20 DUP2 ADD DUP5 DUP5 DUP5 ADD GT ISZERO PUSH2 0x260C JUMPI PUSH2 0x260B PUSH2 0x2514 JUMP JUMPDEST JUMPDEST PUSH2 0x2617 DUP5 DUP3 DUP6 PUSH2 0x25D0 JUMP JUMPDEST POP SWAP4 SWAP3 POP POP POP JUMP JUMPDEST PUSH0 DUP3 PUSH1 0x1F DUP4 ADD SLT PUSH2 0x2633 JUMPI PUSH2 0x2632 PUSH2 0x2510 JUMP JUMPDEST JUMPDEST DUP2 CALLDATALOAD PUSH2 0x2643 DUP5 DUP3 PUSH1 0x20 DUP7 ADD PUSH2 0x25DE JUMP JUMPDEST SWAP2 POP POP SWAP3 SWAP2 POP POP JUMP JUMPDEST PUSH0 DUP1 PUSH0 PUSH1 0x60 DUP5 DUP7 SUB SLT ISZERO PUSH2 0x2663 JUMPI PUSH2 0x2662 PUSH2 0x24B2 JUMP JUMPDEST JUMPDEST PUSH0 PUSH2 0x2670 DUP7 DUP3 DUP8 ADD PUSH2 0x24D9 JUMP JUMPDEST SWAP4 POP POP PUSH1 0x20 PUSH2 0x2681 DUP7 DUP3 DUP8 ADD PUSH2 0x24FC JUMP JUMPDEST SWAP3 POP POP PUSH1 0x40 DUP5 ADD CALLDATALOAD PUSH8 0xFFFFFFFFFFFFFFFF DUP2 GT ISZERO PUSH2 0x26A2 JUMPI PUSH2 0x26A1 PUSH2 0x24B6 JUMP JUMPDEST JUMPDEST PUSH2 0x26AE DUP7 DUP3 DUP8 ADD PUSH2 0x261F JUMP JUMPDEST SWAP2 POP POP SWAP3 POP SWAP3 POP SWAP3 JUMP JUMPDEST PUSH0 PUSH1 0x20 DUP3 DUP5 SUB SLT ISZERO PUSH2 0x26CD JUMPI PUSH2 0x26CC PUSH2 0x24B2 JUMP JUMPDEST JUMPDEST PUSH0 PUSH2 0x26DA DUP5 DUP3 DUP6 ADD PUSH2 0x24D9 JUMP JUMPDEST SWAP2 POP POP SWAP3 SWAP2 POP POP JUMP JUMPDEST PUSH1 0x6 DUP2 LT PUSH2 0x26EF JUMPI PUSH0 DUP1 REVERT JUMPDEST POP JUMP JUMPDEST PUSH0 DUP2 CALLDATALOAD SWAP1 POP PUSH2 0x2700 DUP2 PUSH2 0x26E3 JUMP JUMPDEST SWAP3 SWAP2 POP POP JUMP JUMPDEST PUSH0 PUSH8 0xFFFFFFFFFFFFFFFF DUP3 GT ISZERO PUSH2 0x2720 JUMPI PUSH2 0x271F PUSH2 0x2528 JUMP JUMPDEST JUMPDEST PUSH1 0x20 DUP3 MUL SWAP1 POP PUSH1 0x20 DUP2 ADD SWAP1 POP SWAP2 SWAP1 POP JUMP JUMPDEST PUSH0 DUP1 REVERT JUMPDEST PUSH0 PUSH2 0x2747 PUSH2 0x2742 DUP5 PUSH2 0x2706 JUMP JUMPDEST PUSH2 0x2586 JUMP JUMPDEST SWAP1 POP DUP1 DUP4 DUP3 MSTORE PUSH1 0x20 DUP3 ADD SWAP1 POP PUSH1 0x20 DUP5 MUL DUP4 ADD DUP6 DUP2 GT ISZERO PUSH2 0x276A JUMPI PUSH2 0x2769 PUSH2 0x2731 JUMP JUMPDEST JUMPDEST DUP4 JUMPDEST DUP2 DUP2 LT ISZERO PUSH2 0x27B1 JUMPI DUP1 CALLDATALOAD PUSH8 0xFFFFFFFFFFFFFFFF DUP2 GT ISZERO PUSH2 0x278F JUMPI PUSH2 0x278E PUSH2 0x2510 JUMP JUMPDEST JUMPDEST DUP1 DUP7 ADD PUSH2 0x279C DUP10 DUP3 PUSH2 0x261F JUMP JUMPDEST DUP6 MSTORE PUSH1 0x20 DUP6 ADD SWAP5 POP POP POP PUSH1 0x20 DUP2 ADD SWAP1 POP PUSH2 0x276C JUMP JUMPDEST POP POP POP SWAP4 SWAP3 POP POP POP JUMP JUMPDEST PUSH0 DUP3 PUSH1 0x1F DUP4 ADD SLT PUSH2 0x27CF JUMPI PUSH2 0x27CE PUSH2 0x2510 JUMP JUMPDEST JUMPDEST DUP2 CALLDATALOAD PUSH2 0x27DF DUP5 DUP3 PUSH1 0x20 DUP7 ADD PUSH2 0x2735 JUMP JUMPDEST SWAP2 POP POP SWAP3 SWAP2 POP POP JUMP JUMPDEST PUSH0 PUSH20 0xFFFFFFFFFFFFFFFFFFFFFFFFFFFFFFFFFFFFFFFF DUP3 AND SWAP1 POP SWAP2 SWAP1 POP JUMP JUMPDEST PUSH0 PUSH2 0x2811 DUP3 PUSH2 0x27E8 JUMP JUMPDEST SWAP1 POP SWAP2 SWAP1 POP JUMP JUMPDEST PUSH2 0x2821 DUP2 PUSH2 0x2807 JUMP JUMPDEST DUP2 EQ PUSH2 0x282B JUMPI PUSH0 DUP1 REVERT JUMPDEST POP JUMP JUMPDEST PUSH0 DUP2 CALLDATALOAD SWAP1 POP PUSH2 0x283C DUP2 PUSH2 0x2818 JUMP JUMPDEST SWAP3 SWAP2 POP POP JUMP JUMPDEST PUSH0 DUP1 PUSH0 DUP1 PUSH0 DUP1 PUSH0 DUP1 PUSH0 PUSH2 0x120 DUP11 DUP13 SUB SLT ISZERO PUSH2 0x2860 JUMPI PUSH2 0x285F PUSH2 0x24B2 JUMP JUMPDEST JUMPDEST PUSH0 DUP11 ADD CALLDATALOAD PUSH8 0xFFFFFFFFFFFFFFFF DUP2 GT ISZERO PUSH2 0x287D JUMPI PUSH2 0x287C PUSH2 0x24B6 JUMP JUMPDEST JUMPDEST PUSH2 0x2889 DUP13 DUP3 DUP14 ADD PUSH2 0x261F JUMP JUMPDEST SWAP10 POP POP PUSH1 0x20 DUP11 ADD CALLDATALOAD PUSH8 0xFFFFFFFFFFFFFFFF DUP2 GT ISZERO PUSH2 0x28AA JUMPI PUSH2 0x28A9 PUSH2 0x24B6 JUMP JUMPDEST JUMPDEST PUSH2 0x28B6 DUP13 DUP3 DUP14 ADD PUSH2 0x261F JUMP JUMPDEST SWAP9 POP POP PUSH1 0x40 DUP11 ADD CALLDATALOAD PUSH8 0xFFFFFFFFFFFFFFFF DUP2 GT ISZERO PUSH2 0x28D7 JUMPI PUSH2 0x28D6 PUSH2 0x24B6 JUMP JUMPDEST JUMPDEST PUSH2 0x28E3 DUP13 DUP3 DUP14 ADD PUSH2 0x261F JUMP JUMPDEST SWAP8 POP POP PUSH1 0x60 PUSH2 0x28F4 DUP13 DUP3 DUP14 ADD PUSH2 0x26F2 JUMP JUMPDEST SWAP7 POP POP PUSH1 0x80 DUP11 ADD CALLDATALOAD PUSH8 0xFFFFFFFFFFFFFFFF DUP2 GT ISZERO PUSH2 0x2915 JUMPI PUSH2 0x2914 PUSH2 0x24B6 JUMP JUMPDEST JUMPDEST PUSH2 0x2921 DUP13 DUP3 DUP14 ADD PUSH2 0x27BB JUMP JUMPDEST SWAP6 POP POP PUSH1 0xA0 PUSH2 0x2932 DUP13 DUP3 DUP14 ADD PUSH2 0x24D9 JUMP JUMPDEST SWAP5 POP POP PUSH1 0xC0 PUSH2 0x2943 DUP13 DUP3 DUP14 ADD PUSH2 0x24D9 JUMP JUMPDEST SWAP4 POP POP PUSH1 0xE0 PUSH2 0x2954 DUP13 DUP3 DUP14 ADD PUSH2 0x282E JUMP JUMPDEST SWAP3 POP POP PUSH2 0x100 PUSH2 0x2966 DUP13 DUP3 DUP14 ADD PUSH2 0x24D9 JUMP JUMPDEST SWAP2 POP POP SWAP3 SWAP6 SWAP9 POP SWAP3 SWAP6 SWAP9 POP SWAP3 SWAP6 SWAP9 JUMP JUMPDEST PUSH2 0x297F DUP2 PUSH2 0x24BA JUMP JUMPDEST DUP3 MSTORE POP POP JUMP JUMPDEST PUSH0 PUSH1 0x20 DUP3 ADD SWAP1 POP PUSH2 0x2998 PUSH0 DUP4 ADD DUP5 PUSH2 0x2976 JUMP JUMPDEST SWAP3 SWAP2 POP POP JUMP JUMPDEST PUSH0 DUP1 PUSH1 0x40 DUP4 DUP6 SUB SLT ISZERO PUSH2 0x29B4 JUMPI PUSH2 0x29B3 PUSH2 0x24B2 JUMP JUMPDEST JUMPDEST PUSH0 PUSH2 0x29C1 DUP6 DUP3 DUP7 ADD PUSH2 0x24D9 JUMP JUMPDEST SWAP3 POP POP PUSH1 0x20 DUP4 ADD CALLDATALOAD PUSH8 0xFFFFFFFFFFFFFFFF DUP2 GT ISZERO PUSH2 0x29E2 JUMPI PUSH2 0x29E1 PUSH2 0x24B6 JUMP JUMPDEST JUMPDEST PUSH2 0x29EE DUP6 DUP3 DUP7 ADD PUSH2 0x261F JUMP JUMPDEST SWAP2 POP POP SWAP3 POP SWAP3 SWAP1 POP JUMP JUMPDEST PUSH2 0x2A01 DUP2 PUSH2 0x2807 JUMP JUMPDEST DUP3 MSTORE POP POP JUMP JUMPDEST PUSH0 PUSH1 0xC0 DUP3 ADD SWAP1 POP PUSH2 0x2A1A PUSH0 DUP4 ADD DUP10 PUSH2 0x2976 JUMP JUMPDEST PUSH2 0x2A27 PUSH1 0x20 DUP4 ADD DUP9 PUSH2 0x2976 JUMP JUMPDEST PUSH2 0x2A34 PUSH1 0x40 DUP4 ADD DUP8 PUSH2 0x2976 JUMP JUMPDEST PUSH2 0x2A41 PUSH1 0x60 DUP4 ADD DUP7 PUSH2 0x2976 JUMP JUMPDEST PUSH2 0x2A4E PUSH1 0x80 DUP4 ADD DUP6 PUSH2 0x29F8 JUMP JUMPDEST PUSH2 0x2A5B PUSH1 0xA0 DUP4 ADD DUP5 PUSH2 0x2976 JUMP JUMPDEST SWAP8 SWAP7 POP POP POP POP POP POP POP JUMP JUMPDEST PUSH0 PUSH1 0x20 DUP3 ADD SWAP1 POP PUSH2 0x2A79 PUSH0 DUP4 ADD DUP5 PUSH2 0x29F8 JUMP JUMPDEST SWAP3 SWAP2 POP POP JUMP JUMPDEST PUSH0 DUP1 PUSH1 0x40 DUP4 DUP6 SUB SLT ISZERO PUSH2 0x2A95 JUMPI PUSH2 0x2A94 PUSH2 0x24B2 JUMP JUMPDEST JUMPDEST PUSH0 PUSH2 0x2AA2 DUP6 DUP3 DUP7 ADD PUSH2 0x24D9 JUMP JUMPDEST SWAP3 POP POP PUSH1 0x20 PUSH2 0x2AB3 DUP6 DUP3 DUP7 ADD PUSH2 0x24D9 JUMP JUMPDEST SWAP2 POP POP SWAP3 POP SWAP3 SWAP1 POP JUMP JUMPDEST PUSH0 DUP2 MLOAD SWAP1 POP SWAP2 SWAP1 POP JUMP JUMPDEST PUSH0 DUP3 DUP3 MSTORE PUSH1 0x20 DUP3 ADD SWAP1 POP SWAP3 SWAP2 POP POP JUMP JUMPDEST DUP3 DUP2 DUP4 MCOPY PUSH0 DUP4 DUP4 ADD MSTORE POP POP POP JUMP JUMPDEST PUSH0 PUSH2 0x2AEF DUP3 PUSH2 0x2ABD JUMP JUMPDEST PUSH2 0x2AF9 DUP2 DUP6 PUSH2 0x2AC7 JUMP JUMPDEST SWAP4 POP PUSH2 0x2B09 DUP2 DUP6 PUSH1 0x20 DUP7 ADD PUSH2 0x2AD7 JUMP JUMPDEST PUSH2 0x2B12 DUP2 PUSH2 0x2518 JUMP JUMPDEST DUP5 ADD SWAP2 POP POP SWAP3 SWAP2 POP POP JUMP JUMPDEST PUSH32 0x4E487B7100000000000000000000000000000000000000000000000000000000 PUSH0 MSTORE PUSH1 0x21 PUSH1 0x4 MSTORE PUSH1 0x24 PUSH0 REVERT JUMPDEST PUSH1 0x6 DUP2 LT PUSH2 0x2B5B JUMPI PUSH2 0x2B5A PUSH2 0x2B1D JUMP JUMPDEST JUMPDEST POP JUMP JUMPDEST PUSH0 DUP2 SWAP1 POP PUSH2 0x2B6B DUP3 PUSH2 0x2B4A JUMP JUMPDEST SWAP2 SWAP1 POP JUMP JUMPDEST PUSH0 PUSH2 0x2B7A DUP3 PUSH2 0x2B5E JUMP JUMPDEST SWAP1 POP SWAP2 SWAP1 POP JUMP JUMPDEST PUSH2 0x2B8A DUP2 PUSH2 0x2B70 JUMP JUMPDEST DUP3 MSTORE POP POP JUMP JUMPDEST PUSH0 DUP2 MLOAD SWAP1 POP SWAP2 SWAP1 POP JUMP JUMPDEST PUSH0 DUP3 DUP3 MSTORE PUSH1 0x20 DUP3 ADD SWAP1 POP SWAP3 SWAP2 POP POP JUMP JUMPDEST PUSH0 DUP2 SWAP1 POP PUSH1 0x20 DUP3 ADD SWAP1 POP SWAP2 SWAP1 POP JUMP JUMPDEST PUSH0 DUP3 DUP3 MSTORE PUSH1 0x20 DUP3 ADD SWAP1 POP SWAP3 SWAP2 POP POP JUMP JUMPDEST PUSH0 PUSH2 0x2BD3 DUP3 PUSH2 0x2ABD JUMP JUMPDEST PUSH2 0x2BDD DUP2 DUP6 PUSH2 0x2BB9 JUMP JUMPDEST SWAP4 POP PUSH2 0x2BED DUP2 DUP6 PUSH1 0x20 DUP7 ADD PUSH2 0x2AD7 JUMP JUMPDEST PUSH2 0x2BF6 DUP2 PUSH2 0x2518 JUMP JUMPDEST DUP5 ADD SWAP2 POP POP SWAP3 SWAP2 POP POP JUMP JUMPDEST PUSH0 PUSH2 0x2C0C DUP4 DUP4 PUSH2 0x2BC9 JUMP JUMPDEST SWAP1 POP SWAP3 SWAP2 POP POP JUMP JUMPDEST PUSH0 PUSH1 0x20 DUP3 ADD SWAP1 POP SWAP2 SWAP1 POP JUMP JUMPDEST PUSH0 PUSH2 0x2C2A DUP3 PUSH2 0x2B90 JUMP JUMPDEST PUSH2 0x2C34 DUP2 DUP6 PUSH2 0x2B9A JUMP JUMPDEST SWAP4 POP DUP4 PUSH1 0x20 DUP3 MUL DUP6 ADD PUSH2 0x2C46 DUP6 PUSH2 0x2BAA JUMP JUMPDEST DUP1 PUSH0 JUMPDEST DUP6 DUP2 LT ISZERO PUSH2 0x2C81 JUMPI DUP5 DUP5 SUB DUP10 MSTORE DUP2 MLOAD PUSH2 0x2C62 DUP6 DUP3 PUSH2 0x2C01 JUMP JUMPDEST SWAP5 POP PUSH2 0x2C6D DUP4 PUSH2 0x2C14 JUMP JUMPDEST SWAP3 POP PUSH1 0x20 DUP11 ADD SWAP10 POP POP PUSH1 0x1 DUP2 ADD SWAP1 POP PUSH2 0x2C49 JUMP JUMPDEST POP DUP3 SWAP8 POP DUP8 SWAP6 POP POP POP POP POP POP SWAP3 SWAP2 POP POP JUMP JUMPDEST PUSH1 0x4 DUP2 LT PUSH2 0x2CA4 JUMPI PUSH2 0x2CA3 PUSH2 0x2B1D JUMP JUMPDEST JUMPDEST POP JUMP JUMPDEST PUSH0 DUP2 SWAP1 POP PUSH2 0x2CB4 DUP3 PUSH2 0x2C93 JUMP JUMPDEST SWAP2 SWAP1 POP JUMP JUMPDEST PUSH0 PUSH2 0x2CC3 DUP3 PUSH2 0x2CA7 JUMP JUMPDEST SWAP1 POP SWAP2 SWAP1 POP JUMP JUMPDEST PUSH2 0x2CD3 DUP2 PUSH2 0x2CB9 JUMP JUMPDEST DUP3 MSTORE POP POP JUMP JUMPDEST PUSH0 PUSH2 0x180 DUP3 ADD SWAP1 POP DUP2 DUP2 SUB PUSH0 DUP4 ADD MSTORE PUSH2 0x2CF2 DUP2 DUP16 PUSH2 0x2AE5 JUMP JUMPDEST SWAP1 POP DUP2 DUP2 SUB PUSH1 0x20 DUP4 ADD MSTORE PUSH2 0x2D06 DUP2 DUP15 PUSH2 0x2AE5 JUMP JUMPDEST SWAP1 POP DUP2 DUP2 SUB PUSH1 0x40 DUP4 ADD MSTORE PUSH2 0x2D1A DUP2 DUP14 PUSH2 0x2AE5 JUMP JUMPDEST SWAP1 POP PUSH2 0x2D29 PUSH1 0x60 DUP4 ADD DUP13 PUSH2 0x2B81 JUMP JUMPDEST DUP2 DUP2 SUB PUSH1 0x80 DUP4 ADD MSTORE PUSH2 0x2D3B DUP2 DUP12 PUSH2 0x2C20 JUMP JUMPDEST SWAP1 POP PUSH2 0x2D4A PUSH1 0xA0 DUP4 ADD DUP11 PUSH2 0x2976 JUMP JUMPDEST PUSH2 0x2D57 PUSH1 0xC0 DUP4 ADD DUP10 PUSH2 0x2976 JUMP JUMPDEST PUSH2 0x2D64 PUSH1 0xE0 DUP4 ADD DUP9 PUSH2 0x2CCA JUMP JUMPDEST PUSH2 0x2D72 PUSH2 0x100 DUP4 ADD DUP8 PUSH2 0x2976 JUMP JUMPDEST PUSH2 0x2D80 PUSH2 0x120 DUP4 ADD DUP7 PUSH2 0x2976 JUMP JUMPDEST PUSH2 0x2D8E PUSH2 0x140 DUP4 ADD DUP6 PUSH2 0x29F8 JUMP JUMPDEST PUSH2 0x2D9C PUSH2 0x160 DUP4 ADD DUP5 PUSH2 0x2976 JUMP JUMPDEST SWAP14 SWAP13 POP POP POP POP POP POP POP POP POP POP POP POP POP JUMP JUMPDEST PUSH2 0x2DB6 DUP2 PUSH2 0x2B70 JUMP JUMPDEST DUP3 MSTORE POP POP JUMP JUMPDEST PUSH0 DUP3 DUP3 MSTORE PUSH1 0x20 DUP3 ADD SWAP1 POP SWAP3 SWAP2 POP POP JUMP JUMPDEST PUSH0 PUSH2 0x2DD6 DUP3 PUSH2 0x2B90 JUMP JUMPDEST PUSH2 0x2DE0 DUP2 DUP6 PUSH2 0x2DBC JUMP JUMPDEST SWAP4 POP DUP4 PUSH1 0x20 DUP3 MUL DUP6 ADD PUSH2 0x2DF2 DUP6 PUSH2 0x2BAA JUMP JUMPDEST DUP1 PUSH0 JUMPDEST DUP6 DUP2 LT ISZERO PUSH2 0x2E2D JUMPI DUP5 DUP5 SUB DUP10 MSTORE DUP2 MLOAD PUSH2 0x2E0E DUP6 DUP3 PUSH2 0x2C01 JUMP JUMPDEST SWAP5 POP PUSH2 0x2E19 DUP4 PUSH2 0x2C14 JUMP JUMPDEST SWAP3 POP PUSH1 0x20 DUP11 ADD SWAP10 POP POP PUSH1 0x1 DUP2 ADD SWAP1 POP PUSH2 0x2DF5 JUMP JUMPDEST POP DUP3 SWAP8 POP DUP8 SWAP6 POP POP POP POP POP POP SWAP3 SWAP2 POP POP JUMP JUMPDEST PUSH0 PUSH1 0xA0 DUP4 ADD PUSH0 DUP4 ADD MLOAD DUP5 DUP3 SUB PUSH0 DUP7 ADD MSTORE PUSH2 0x2E59 DUP3 DUP3 PUSH2 0x2BC9 JUMP JUMPDEST SWAP2 POP POP PUSH1 0x20 DUP4 ADD MLOAD DUP5 DUP3 SUB PUSH1 0x20 DUP7 ADD MSTORE PUSH2 0x2E73 DUP3 DUP3 PUSH2 0x2BC9 JUMP JUMPDEST SWAP2 POP POP PUSH1 0x40 DUP4 ADD MLOAD DUP5 DUP3 SUB PUSH1 0x40 DUP7 ADD MSTORE PUSH2 0x2E8D DUP3 DUP3 PUSH2 0x2BC9 JUMP JUMPDEST SWAP2 POP POP PUSH1 0x60 DUP4 ADD MLOAD PUSH2 0x2EA2 PUSH1 0x60 DUP7 ADD DUP3 PUSH2 0x2DAD JUMP JUMPDEST POP PUSH1 0x80 DUP4 ADD MLOAD DUP5 DUP3 SUB PUSH1 0x80 DUP7 ADD MSTORE PUSH2 0x2EBA DUP3 DUP3 PUSH2 0x2DCC JUMP JUMPDEST SWAP2 POP POP DUP1 SWAP2 POP POP SWAP3 SWAP2 POP POP JUMP JUMPDEST PUSH2 0x2ED0 DUP2 PUSH2 0x24BA JUMP JUMPDEST DUP3 MSTORE POP POP JUMP JUMPDEST PUSH2 0x2EDF DUP2 PUSH2 0x2807 JUMP JUMPDEST DUP3 MSTORE POP POP JUMP JUMPDEST PUSH1 0xC0 DUP3 ADD PUSH0 DUP3 ADD MLOAD PUSH2 0x2EF9 PUSH0 DUP6 ADD DUP3 PUSH2 0x2EC7 JUMP JUMPDEST POP PUSH1 0x20 DUP3 ADD MLOAD PUSH2 0x2F0C PUSH1 0x20 DUP6 ADD DUP3 PUSH2 0x2EC7 JUMP JUMPDEST POP PUSH1 0x40 DUP3 ADD MLOAD PUSH2 0x2F1F PUSH1 0x40 DUP6 ADD DUP3 PUSH2 0x2EC7 JUMP JUMPDEST POP PUSH1 0x60 DUP3 ADD MLOAD PUSH2 0x2F32 PUSH1 0x60 DUP6 ADD DUP3 PUSH2 0x2EC7 JUMP JUMPDEST POP PUSH1 0x80 DUP3 ADD MLOAD PUSH2 0x2F45 PUSH1 0x80 DUP6 ADD DUP3 PUSH2 0x2ED6 JUMP JUMPDEST POP PUSH1 0xA0 DUP3 ADD MLOAD PUSH2 0x2F58 PUSH1 0xA0 DUP6 ADD DUP3 PUSH2 0x2EC7 JUMP JUMPDEST POP POP POP POP JUMP JUMPDEST PUSH0 DUP2 SWAP1 POP SWAP2 SWAP1 POP JUMP JUMPDEST PUSH0 PUSH2 0x2F81 PUSH2 0x2F7C PUSH2 0x2F77 DUP5 PUSH2 0x27E8 JUMP JUMPDEST PUSH2 0x2F5E JUMP JUMPDEST PUSH2 0x27E8 JUMP JUMPDEST SWAP1 POP SWAP2 SWAP1 POP JUMP JUMPDEST PUSH0 PUSH2 0x2F92 DUP3 PUSH2 0x2F67 JUMP JUMPDEST SWAP1 POP SWAP2 SWAP1 POP JUMP JUMPDEST PUSH0 PUSH2 0x2FA3 DUP3 PUSH2 0x2F88 JUMP JUMPDEST SWAP1 POP SWAP2 SWAP1 POP JUMP JUMPDEST PUSH2 0x2FB3 DUP2 PUSH2 0x2F99 JUMP JUMPDEST DUP3 MSTORE POP POP JUMP JUMPDEST PUSH0 DUP2 ISZERO ISZERO SWAP1 POP SWAP2 SWAP1 POP JUMP JUMPDEST PUSH2 0x2FCD DUP2 PUSH2 0x2FB9 JUMP JUMPDEST DUP3 MSTORE POP POP JUMP JUMPDEST PUSH0 PUSH2 0x1E0 DUP3 ADD SWAP1 POP DUP2 DUP2 SUB PUSH0 DUP4 ADD MSTORE PUSH2 0x2FEC DUP2 DUP14 PUSH2 0x2E3F JUMP JUMPDEST SWAP1 POP PUSH2 0x2FFB PUSH1 0x20 DUP4 ADD DUP13 PUSH2 0x2EE5 JUMP JUMPDEST PUSH2 0x3008 PUSH1 0xE0 DUP4 ADD DUP12 PUSH2 0x2976 JUMP JUMPDEST PUSH2 0x3016 PUSH2 0x100 DUP4 ADD DUP11 PUSH2 0x2976 JUMP JUMPDEST PUSH2 0x3024 PUSH2 0x120 DUP4 ADD DUP10 PUSH2 0x2CCA JUMP JUMPDEST PUSH2 0x3032 PUSH2 0x140 DUP4 ADD DUP9 PUSH2 0x2976 JUMP JUMPDEST PUSH2 0x3040 PUSH2 0x160 DUP4 ADD DUP8 PUSH2 0x2976 JUMP JUMPDEST PUSH2 0x304E PUSH2 0x180 DUP4 ADD DUP7 PUSH2 0x2FAA JUMP JUMPDEST PUSH2 0x305C PUSH2 0x1A0 DUP4 ADD DUP6 PUSH2 0x2976 JUMP JUMPDEST PUSH2 0x306A PUSH2 0x1C0 DUP4 ADD DUP5 PUSH2 0x2FC4 JUMP JUMPDEST SWAP12 SWAP11 POP POP POP POP POP POP POP POP POP POP POP JUMP JUMPDEST PUSH0 PUSH1 0x20 DUP3 DUP5 SUB SLT ISZERO PUSH2 0x308E JUMPI PUSH2 0x308D PUSH2 0x24B2 JUMP JUMPDEST JUMPDEST PUSH0 PUSH2 0x309B DUP5 DUP3 DUP6 ADD PUSH2 0x282E JUMP JUMPDEST SWAP2 POP POP SWAP3 SWAP2 POP POP JUMP JUMPDEST PUSH2 0x30AD DUP2 PUSH2 0x2FB9 JUMP JUMPDEST DUP2 EQ PUSH2 0x30B7 JUMPI PUSH0 DUP1 REVERT JUMPDEST POP JUMP JUMPDEST PUSH0 DUP2 CALLDATALOAD SWAP1 POP PUSH2 0x30C8 DUP2 PUSH2 0x30A4 JUMP JUMPDEST SWAP3 SWAP2 POP POP JUMP JUMPDEST PUSH0 DUP1 PUSH0 PUSH1 0x60 DUP5 DUP7 SUB SLT ISZERO PUSH2 0x30E5 JUMPI PUSH2 0x30E4 PUSH2 0x24B2 JUMP JUMPDEST JUMPDEST PUSH0 PUSH2 0x30F2 DUP7 DUP3 DUP8 ADD PUSH2 0x24D9 JUMP JUMPDEST SWAP4 POP POP PUSH1 0x20 PUSH2 0x3103 DUP7 DUP3 DUP8 ADD PUSH2 0x30BA JUMP JUMPDEST SWAP3 POP POP PUSH1 0x40 PUSH2 0x3114 DUP7 DUP3 DUP8 ADD PUSH2 0x24D9 JUMP JUMPDEST SWAP2 POP POP SWAP3 POP SWAP3 POP SWAP3 JUMP JUMPDEST PUSH0 DUP1 PUSH1 0x40 DUP4 DUP6 SUB SLT ISZERO PUSH2 0x3134 JUMPI PUSH2 0x3133 PUSH2 0x24B2 JUMP JUMPDEST JUMPDEST PUSH0 PUSH2 0x3141 DUP6 DUP3 DUP7 ADD PUSH2 0x24D9 JUMP JUMPDEST SWAP3 POP POP PUSH1 0x20 PUSH2 0x3152 DUP6 DUP3 DUP7 ADD PUSH2 0x282E JUMP JUMPDEST SWAP2 POP POP SWAP3 POP SWAP3 SWAP1 POP JUMP JUMPDEST PUSH0 PUSH1 0x80 DUP3 ADD SWAP1 POP PUSH2 0x316F PUSH0 DUP4 ADD DUP8 PUSH2 0x2976 JUMP JUMPDEST PUSH2 0x317C PUSH1 0x20 DUP4 ADD DUP7 PUSH2 0x2976 JUMP JUMPDEST PUSH2 0x3189 PUSH1 0x40 DUP4 ADD DUP6 PUSH2 0x2FC4 JUMP JUMPDEST PUSH2 0x3196 PUSH1 0x60 DUP4 ADD DUP5 PUSH2 0x2FC4 JUMP JUMPDEST SWAP6 SWAP5 POP POP POP POP POP JUMP JUMPDEST PUSH32 0x4D61726B6574206E6F7420656E64656420796574000000000000000000000000 PUSH0 DUP3 ADD MSTORE POP JUMP JUMPDEST PUSH0 PUSH2 0x31D3 PUSH1 0x14 DUP4 PUSH2 0x2AC7 JUMP JUMPDEST SWAP2 POP PUSH2 0x31DE DUP3 PUSH2 0x319F JUMP JUMPDEST PUSH1 0x20 DUP3 ADD SWAP1 POP SWAP2 SWAP1 POP JUMP JUMPDEST PUSH0 PUSH1 0x20 DUP3 ADD SWAP1 POP DUP2 DUP2 SUB PUSH0 DUP4 ADD MSTORE PUSH2 0x3200 DUP2 PUSH2 0x31C7 JUMP JUMPDEST SWAP1 POP SWAP2 SWAP1 POP JUMP JUMPDEST PUSH32 0x4D61726B657420616C7265616479207265736F6C766564000000000000000000 PUSH0 DUP3 ADD MSTORE POP JUMP JUMPDEST PUSH0 PUSH2 0x323B PUSH1 0x17 DUP4 PUSH2 0x2AC7 JUMP JUMPDEST SWAP2 POP PUSH2 0x3246 DUP3 PUSH2 0x3207 JUMP JUMPDEST PUSH1 0x20 DUP3 ADD SWAP1 POP SWAP2 SWAP1 POP JUMP JUMPDEST PUSH0 PUSH1 0x20 DUP3 ADD SWAP1 POP DUP2 DUP2 SUB PUSH0 DUP4 ADD MSTORE PUSH2 0x3268 DUP2 PUSH2 0x322F JUMP JUMPDEST SWAP1 POP SWAP2 SWAP1 POP JUMP JUMPDEST PUSH32 0x496E76616C6964206F7574636F6D650000000000000000000000000000000000 PUSH0 DUP3 ADD MSTORE POP JUMP JUMPDEST PUSH0 PUSH2 0x32A3 PUSH1 0xF DUP4 PUSH2 0x2AC7 JUMP JUMPDEST SWAP2 POP PUSH2 0x32AE DUP3 PUSH2 0x326F JUMP JUMPDEST PUSH1 0x20 DUP3 ADD SWAP1 POP SWAP2 SWAP1 POP JUMP JUMPDEST PUSH0 PUSH1 0x20 DUP3 ADD SWAP1 POP DUP2 DUP2 SUB PUSH0 DUP4 ADD MSTORE PUSH2 0x32D0 DUP2 PUSH2 0x3297 JUMP JUMPDEST SWAP1 POP SWAP2 SWAP1 POP JUMP JUMPDEST PUSH0 PUSH1 0x40 DUP3 ADD SWAP1 POP PUSH2 0x32EA PUSH0 DUP4 ADD DUP6 PUSH2 0x2CCA JUMP JUMPDEST DUP2 DUP2 SUB PUSH1 0x20 DUP4 ADD MSTORE PUSH2 0x32FC DUP2 DUP5 PUSH2 0x2AE5 JUMP JUMPDEST SWAP1 POP SWAP4 SWAP3 POP POP POP JUMP JUMPDEST PUSH32 0x4665652070657263656E7461676520746F6F2068696768000000000000000000 PUSH0 DUP3 ADD MSTORE POP JUMP JUMPDEST PUSH0 PUSH2 0x3339 PUSH1 0x17 DUP4 PUSH2 0x2AC7 JUMP JUMPDEST SWAP2 POP PUSH2 0x3344 DUP3 PUSH2 0x3305 JUMP JUMPDEST PUSH1 0x20 DUP3 ADD SWAP1 POP SWAP2 SWAP1 POP JUMP JUMPDEST PUSH0 PUSH1 0x20 DUP3 ADD SWAP1 POP DUP2 DUP2 SUB PUSH0 DUP4 ADD MSTORE PUSH2 0x3366 DUP2 PUSH2 0x332D JUMP JUMPDEST SWAP1 POP SWAP2 SWAP1 POP JUMP JUMPDEST PUSH32 0x53746172742074696D65206D75737420626520696E2074686520667574757265 PUSH0 DUP3 ADD MSTORE POP JUMP JUMPDEST PUSH0 PUSH2 0x33A1 PUSH1 0x20 DUP4 PUSH2 0x2AC7 JUMP JUMPDEST SWAP2 POP PUSH2 0x33AC DUP3 PUSH2 0x336D JUMP JUMPDEST PUSH1 0x20 DUP3 ADD SWAP1 POP SWAP2 SWAP1 POP JUMP JUMPDEST PUSH0 PUSH1 0x20 DUP3 ADD SWAP1 POP DUP2 DUP2 SUB PUSH0 DUP4 ADD MSTORE PUSH2 0x33CE DUP2 PUSH2 0x3395 JUMP JUMPDEST SWAP1 POP SWAP2 SWAP1 POP JUMP JUMPDEST PUSH32 0x4475726174696F6E206D75737420626520706F73697469766500000000000000 PUSH0 DUP3 ADD MSTORE POP JUMP JUMPDEST PUSH0 PUSH2 0x3409 PUSH1 0x19 DUP4 PUSH2 0x2AC7 JUMP JUMPDEST SWAP2 POP PUSH2 0x3414 DUP3 PUSH2 0x33D5 JUMP JUMPDEST PUSH1 0x20 DUP3 ADD SWAP1 POP SWAP2 SWAP1 POP JUMP JUMPDEST PUSH0 PUSH1 0x20 DUP3 ADD SWAP1 POP DUP2 DUP2 SUB PUSH0 DUP4 ADD MSTORE PUSH2 0x3436 DUP2 PUSH2 0x33FD JUMP JUMPDEST SWAP1 POP SWAP2 SWAP1 POP JUMP JUMPDEST PUSH32 0x496E76616C696420746F6B656E20616464726573730000000000000000000000 PUSH0 DUP3 ADD MSTORE POP JUMP JUMPDEST PUSH0 PUSH2 0x3471 PUSH1 0x15 DUP4 PUSH2 0x2AC7 JUMP JUMPDEST SWAP2 POP PUSH2 0x347C DUP3 PUSH2 0x343D JUMP JUMPDEST PUSH1 0x20 DUP3 ADD SWAP1 POP SWAP2 SWAP1 POP JUMP JUMPDEST PUSH0 PUSH1 0x20 DUP3 ADD SWAP1 POP DUP2 DUP2 SUB PUSH0 DUP4 ADD MSTORE PUSH2 0x349E DUP2 PUSH2 0x3465 JUMP JUMPDEST SWAP1 POP SWAP2 SWAP1 POP JUMP JUMPDEST PUSH32 0x4E487B7100000000000000000000000000000000000000000000000000000000 PUSH0 MSTORE PUSH1 0x11 PUSH1 0x4 MSTORE PUSH1 0x24 PUSH0 REVERT JUMPDEST PUSH0 PUSH2 0x34DC DUP3 PUSH2 0x24BA JUMP JUMPDEST SWAP2 POP PUSH32 0xFFFFFFFFFFFFFFFFFFFFFFFFFFFFFFFFFFFFFFFFFFFFFFFFFFFFFFFFFFFFFFFF DUP3 SUB PUSH2 0x350E JUMPI PUSH2 0x350D PUSH2 0x34A5 JUMP JUMPDEST JUMPDEST PUSH1 0x1 DUP3 ADD SWAP1 POP SWAP2 SWAP1 POP JUMP JUMPDEST PUSH32 0x4E487B7100000000000000000000000000000000000000000000000000000000 PUSH0 MSTORE PUSH1 0x22 PUSH1 0x4 MSTORE PUSH1 0x24 PUSH0 REVERT JUMPDEST PUSH0 PUSH1 0x2 DUP3 DIV SWAP1 POP PUSH1 0x1 DUP3 AND DUP1 PUSH2 0x355D JUMPI PUSH1 0x7F DUP3 AND SWAP2 POP JUMPDEST PUSH1 0x20 DUP3 LT DUP2 SUB PUSH2 0x3570 JUMPI PUSH2 0x356F PUSH2 0x3519 JUMP JUMPDEST JUMPDEST POP SWAP2 SWAP1 POP JUMP JUMPDEST PUSH0 DUP2 SWAP1 POP DUP2 PUSH0 MSTORE PUSH1 0x20 PUSH0 KECCAK256 SWAP1 POP SWAP2 SWAP1 POP JUMP JUMPDEST PUSH0 PUSH1 0x20 PUSH1 0x1F DUP4 ADD DIV SWAP1 POP SWAP2 SWAP1 POP JUMP JUMPDEST PUSH0 DUP3 DUP3 SHL SWAP1 POP SWAP3 SWAP2 POP POP JUMP JUMPDEST PUSH0 PUSH1 0x8 DUP4 MUL PUSH2 0x35D2 PUSH32 0xFFFFFFFFFFFFFFFFFFFFFFFFFFFFFFFFFFFFFFFFFFFFFFFFFFFFFFFFFFFFFFFF DUP3 PUSH2 0x3597 JUMP JUMPDEST PUSH2 0x35DC DUP7 DUP4 PUSH2 0x3597 JUMP JUMPDEST SWAP6 POP DUP1 NOT DUP5 AND SWAP4 POP DUP1 DUP7 AND DUP5 OR SWAP3 POP POP POP SWAP4 SWAP3 POP POP POP JUMP JUMPDEST PUSH0 PUSH2 0x360E PUSH2 0x3609 PUSH2 0x3604 DUP5 PUSH2 0x24BA JUMP JUMPDEST PUSH2 0x2F5E JUMP JUMPDEST PUSH2 0x24BA JUMP JUMPDEST SWAP1 POP SWAP2 SWAP1 POP JUMP JUMPDEST PUSH0 DUP2 SWAP1 POP SWAP2 SWAP1 POP JUMP JUMPDEST PUSH2 0x3627 DUP4 PUSH2 0x35F4 JUMP JUMPDEST PUSH2 0x363B PUSH2 0x3633 DUP3 PUSH2 0x3615 JUMP JUMPDEST DUP5 DUP5 SLOAD PUSH2 0x35A3 JUMP JUMPDEST DUP3 SSTORE POP POP POP POP JUMP JUMPDEST PUSH0 SWAP1 JUMP JUMPDEST PUSH2 0x364F PUSH2 0x3643 JUMP JUMPDEST PUSH2 0x365A DUP2 DUP5 DUP5 PUSH2 0x361E JUMP JUMPDEST POP POP POP JUMP JUMPDEST JUMPDEST DUP2 DUP2 LT ISZERO PUSH2 0x367D JUMPI PUSH2 0x3672 PUSH0 DUP3 PUSH2 0x3647 JUMP JUMPDEST PUSH1 0x1 DUP2 ADD SWAP1 POP PUSH2 0x3660 JUMP JUMPDEST POP POP JUMP JUMPDEST PUSH1 0x1F DUP3 GT ISZERO PUSH2 0x36C2 JUMPI PUSH2 0x3693 DUP2 PUSH2 0x3576 JUMP JUMPDEST PUSH2 0x369C DUP5 PUSH2 0x3588 JUMP JUMPDEST DUP2 ADD PUSH1 0x20 DUP6 LT ISZERO PUSH2 0x36AB JUMPI DUP2 SWAP1 POP JUMPDEST PUSH2 0x36BF PUSH2 0x36B7 DUP6 PUSH2 0x3588 JUMP JUMPDEST DUP4 ADD DUP3 PUSH2 0x365F JUMP JUMPDEST POP POP JUMPDEST POP POP POP JUMP JUMPDEST PUSH0 DUP3 DUP3 SHR SWAP1 POP SWAP3 SWAP2 POP POP JUMP JUMPDEST PUSH0 PUSH2 0x36E2 PUSH0 NOT DUP5 PUSH1 0x8 MUL PUSH2 0x36C7 JUMP JUMPDEST NOT DUP1 DUP4 AND SWAP2 POP POP SWAP3 SWAP2 POP POP JUMP JUMPDEST PUSH0 PUSH2 0x36FA DUP4 DUP4 PUSH2 0x36D3 JUMP JUMPDEST SWAP2 POP DUP3 PUSH1 0x2 MUL DUP3 OR SWAP1 POP SWAP3 SWAP2 POP POP JUMP JUMPDEST PUSH2 0x3713 DUP3 PUSH2 0x2ABD JUMP JUMPDEST PUSH8 0xFFFFFFFFFFFFFFFF DUP2 GT ISZERO PUSH2 0x372C JUMPI PUSH2 0x372B PUSH2 0x2528 JUMP JUMPDEST JUMPDEST PUSH2 0x3736 DUP3 SLOAD PUSH2 0x3546 JUMP JUMPDEST PUSH2 0x3741 DUP3 DUP3 DUP6 PUSH2 0x3681 JUMP JUMPDEST PUSH0 PUSH1 0x20 SWAP1 POP PUSH1 0x1F DUP4 GT PUSH1 0x1 DUP2 EQ PUSH2 0x3772 JUMPI PUSH0 DUP5 ISZERO PUSH2 0x3760 JUMPI DUP3 DUP8 ADD MLOAD SWAP1 POP JUMPDEST PUSH2 0x376A DUP6 DUP3 PUSH2 0x36EF JUMP JUMPDEST DUP7 SSTORE POP PUSH2 0x37D1 JUMP JUMPDEST PUSH1 0x1F NOT DUP5 AND PUSH2 0x3780 DUP7 PUSH2 0x3576 JUMP JUMPDEST PUSH0 JUMPDEST DUP3 DUP2 LT ISZERO PUSH2 0x37A7 JUMPI DUP5 DUP10 ADD MLOAD DUP3 SSTORE PUSH1 0x1 DUP3 ADD SWAP2 POP PUSH1 0x20 DUP6 ADD SWAP5 POP PUSH1 0x20 DUP2 ADD SWAP1 POP PUSH2 0x3782 JUMP JUMPDEST DUP7 DUP4 LT ISZERO PUSH2 0x37C4 JUMPI DUP5 DUP10 ADD MLOAD PUSH2 0x37C0 PUSH1 0x1F DUP10 AND DUP3 PUSH2 0x36D3 JUMP JUMPDEST DUP4 SSTORE POP JUMPDEST PUSH1 0x1 PUSH1 0x2 DUP9 MUL ADD DUP9 SSTORE POP POP POP JUMPDEST POP POP POP POP POP POP JUMP JUMPDEST PUSH0 PUSH2 0x37E3 DUP3 PUSH2 0x24BA JUMP JUMPDEST SWAP2 POP PUSH2 0x37EE DUP4 PUSH2 0x24BA JUMP JUMPDEST SWAP3 POP DUP3 DUP3 ADD SWAP1 POP DUP1 DUP3 GT ISZERO PUSH2 0x3806 JUMPI PUSH2 0x3805 PUSH2 0x34A5 JUMP JUMPDEST JUMPDEST SWAP3 SWAP2 POP POP JUMP JUMPDEST PUSH0 PUSH1 0xA0 DUP3 ADD SWAP1 POP DUP2 DUP2 SUB PUSH0 DUP4 ADD MSTORE PUSH2 0x3824 DUP2 DUP9 PUSH2 0x2AE5 JUMP JUMPDEST SWAP1 POP PUSH2 0x3833 PUSH1 0x20 DUP4 ADD DUP8 PUSH2 0x2976 JUMP JUMPDEST PUSH2 0x3840 PUSH1 0x40 DUP4 ADD DUP7 PUSH2 0x2976 JUMP JUMPDEST PUSH2 0x384D PUSH1 0x60 DUP4 ADD DUP6 PUSH2 0x29F8 JUMP JUMPDEST PUSH2 0x385A PUSH1 0x80 DUP4 ADD DUP5 PUSH2 0x2B81 JUMP JUMPDEST SWAP7 SWAP6 POP POP POP POP POP POP JUMP JUMPDEST PUSH0 PUSH1 0x20 DUP3 ADD SWAP1 POP DUP2 DUP2 SUB PUSH0 DUP4 ADD MSTORE PUSH2 0x387C DUP2 DUP5 PUSH2 0x2AE5 JUMP JUMPDEST SWAP1 POP SWAP3 SWAP2 POP POP JUMP JUMPDEST PUSH32 0x4D61726B6574206E6F74207265736F6C76656420796574000000000000000000 PUSH0 DUP3 ADD MSTORE POP JUMP JUMPDEST PUSH0 PUSH2 0x38B8 PUSH1 0x17 DUP4 PUSH2 0x2AC7 JUMP JUMPDEST SWAP2 POP PUSH2 0x38C3 DUP3 PUSH2 0x3884 JUMP JUMPDEST PUSH1 0x20 DUP3 ADD SWAP1 POP SWAP2 SWAP1 POP JUMP JUMPDEST PUSH0 PUSH1 0x20 DUP3 ADD SWAP1 POP DUP2 DUP2 SUB PUSH0 DUP4 ADD MSTORE PUSH2 0x38E5 DUP2 PUSH2 0x38AC JUMP JUMPDEST SWAP1 POP SWAP2 SWAP1 POP JUMP JUMPDEST PUSH32 0x52657761726420616C726561647920636C61696D656400000000000000000000 PUSH0 DUP3 ADD MSTORE POP JUMP JUMPDEST PUSH0 PUSH2 0x3920 PUSH1 0x16 DUP4 PUSH2 0x2AC7 JUMP JUMPDEST SWAP2 POP PUSH2 0x392B DUP3 PUSH2 0x38EC JUMP JUMPDEST PUSH1 0x20 DUP3 ADD SWAP1 POP SWAP2 SWAP1 POP JUMP JUMPDEST PUSH0 PUSH1 0x20 DUP3 ADD SWAP1 POP DUP2 DUP2 SUB PUSH0 DUP4 ADD MSTORE PUSH2 0x394D DUP2 PUSH2 0x3914 JUMP JUMPDEST SWAP1 POP SWAP2 SWAP1 POP JUMP JUMPDEST PUSH0 PUSH2 0x395E DUP3 PUSH2 0x24BA JUMP JUMPDEST SWAP2 POP PUSH2 0x3969 DUP4 PUSH2 0x24BA JUMP JUMPDEST SWAP3 POP DUP3 DUP3 MUL PUSH2 0x3977 DUP2 PUSH2 0x24BA JUMP JUMPDEST SWAP2 POP DUP3 DUP3 DIV DUP5 EQ DUP4 ISZERO OR PUSH2 0x398E JUMPI PUSH2 0x398D PUSH2 0x34A5 JUMP JUMPDEST JUMPDEST POP SWAP3 SWAP2 POP POP JUMP JUMPDEST PUSH32 0x4E487B7100000000000000000000000000000000000000000000000000000000 PUSH0 MSTORE PUSH1 0x12 PUSH1 0x4 MSTORE PUSH1 0x24 PUSH0 REVERT JUMPDEST PUSH0 PUSH2 0x39CC DUP3 PUSH2 0x24BA JUMP JUMPDEST SWAP2 POP PUSH2 0x39D7 DUP4 PUSH2 0x24BA JUMP JUMPDEST SWAP3 POP DUP3 PUSH2 0x39E7 JUMPI PUSH2 0x39E6 PUSH2 0x3995 JUMP JUMPDEST JUMPDEST DUP3 DUP3 DIV SWAP1 POP SWAP3 SWAP2 POP POP JUMP JUMPDEST PUSH32 0x4E6F2072657761726420746F20636C61696D0000000000000000000000000000 PUSH0 DUP3 ADD MSTORE POP JUMP JUMPDEST PUSH0 PUSH2 0x3A26 PUSH1 0x12 DUP4 PUSH2 0x2AC7 JUMP JUMPDEST SWAP2 POP PUSH2 0x3A31 DUP3 PUSH2 0x39F2 JUMP JUMPDEST PUSH1 0x20 DUP3 ADD SWAP1 POP SWAP2 SWAP1 POP JUMP JUMPDEST PUSH0 PUSH1 0x20 DUP3 ADD SWAP1 POP DUP2 DUP2 SUB PUSH0 DUP4 ADD MSTORE PUSH2 0x3A53 DUP2 PUSH2 0x3A1A JUMP JUMPDEST SWAP1 POP SWAP2 SWAP1 POP JUMP JUMPDEST PUSH0 PUSH2 0x3A64 DUP3 PUSH2 0x24BA JUMP JUMPDEST SWAP2 POP PUSH2 0x3A6F DUP4 PUSH2 0x24BA JUMP JUMPDEST SWAP3 POP DUP3 DUP3 SUB SWAP1 POP DUP2 DUP2 GT ISZERO PUSH2 0x3A87 JUMPI PUSH2 0x3A86 PUSH2 0x34A5 JUMP JUMPDEST JUMPDEST SWAP3 SWAP2 POP POP JUMP JUMPDEST PUSH0 PUSH1 0x40 DUP3 ADD SWAP1 POP PUSH2 0x3AA0 PUSH0 DUP4 ADD DUP6 PUSH2 0x29F8 JUMP JUMPDEST PUSH2 0x3AAD PUSH1 0x20 DUP4 ADD DUP5 PUSH2 0x2976 JUMP JUMPDEST SWAP4 SWAP3 POP POP POP JUMP JUMPDEST PUSH0 DUP2 MLOAD SWAP1 POP PUSH2 0x3AC2 DUP2 PUSH2 0x30A4 JUMP JUMPDEST SWAP3 SWAP2 POP POP JUMP JUMPDEST PUSH0 PUSH1 0x20 DUP3 DUP5 SUB SLT ISZERO PUSH2 0x3ADD JUMPI PUSH2 0x3ADC PUSH2 0x24B2 JUMP JUMPDEST JUMPDEST PUSH0 PUSH2 0x3AEA DUP5 DUP3 DUP6 ADD PUSH2 0x3AB4 JUMP JUMPDEST SWAP2 POP POP SWAP3 SWAP2 POP POP JUMP JUMPDEST PUSH32 0x526577617264207472616E73666572206661696C656400000000000000000000 PUSH0 DUP3 ADD MSTORE POP JUMP JUMPDEST PUSH0 PUSH2 0x3B27 PUSH1 0x16 DUP4 PUSH2 0x2AC7 JUMP JUMPDEST SWAP2 POP PUSH2 0x3B32 DUP3 PUSH2 0x3AF3 JUMP JUMPDEST PUSH1 0x20 DUP3 ADD SWAP1 POP SWAP2 SWAP1 POP JUMP JUMPDEST PUSH0 PUSH1 0x20 DUP3 ADD SWAP1 POP DUP2 DUP2 SUB PUSH0 DUP4 ADD MSTORE PUSH2 0x3B54 DUP2 PUSH2 0x3B1B JUMP JUMPDEST SWAP1 POP SWAP2 SWAP1 POP JUMP JUMPDEST PUSH32 0x466565207472616E73666572206661696C656400000000000000000000000000 PUSH0 DUP3 ADD MSTORE POP JUMP JUMPDEST PUSH0 PUSH2 0x3B8F PUSH1 0x13 DUP4 PUSH2 0x2AC7 JUMP JUMPDEST SWAP2 POP PUSH2 0x3B9A DUP3 PUSH2 0x3B5B JUMP JUMPDEST PUSH1 0x20 DUP3 ADD SWAP1 POP SWAP2 SWAP1 POP JUMP JUMPDEST PUSH0 PUSH1 0x20 DUP3 ADD SWAP1 POP DUP2 DUP2 SUB PUSH0 DUP4 ADD MSTORE PUSH2 0x3BBC DUP2 PUSH2 0x3B83 JUMP JUMPDEST SWAP1 POP SWAP2 SWAP1 POP JUMP JUMPDEST PUSH0 PUSH1 0x40 DUP3 ADD SWAP1 POP PUSH2 0x3BD6 PUSH0 DUP4 ADD DUP6 PUSH2 0x2976 JUMP JUMPDEST PUSH2 0x3BE3 PUSH1 0x20 DUP4 ADD DUP5 PUSH2 0x2976 JUMP JUMPDEST SWAP4 SWAP3 POP POP POP JUMP JUMPDEST PUSH32 0x496E76616C696420616464726573730000000000000000000000000000000000 PUSH0 DUP3 ADD MSTORE POP JUMP JUMPDEST PUSH0 PUSH2 0x3C1E PUSH1 0xF DUP4 PUSH2 0x2AC7 JUMP JUMPDEST SWAP2 POP PUSH2 0x3C29 DUP3 PUSH2 0x3BEA JUMP JUMPDEST PUSH1 0x20 DUP3 ADD SWAP1 POP SWAP2 SWAP1 POP JUMP JUMPDEST PUSH0 PUSH1 0x20 DUP3 ADD SWAP1 POP DUP2 DUP2 SUB PUSH0 DUP4 ADD MSTORE PUSH2 0x3C4B DUP2 PUSH2 0x3C12 JUMP JUMPDEST SWAP1 POP SWAP2 SWAP1 POP JUMP JUMPDEST PUSH32 0x4D61726B6574206E6F7420737461727465640000000000000000000000000000 PUSH0 DUP3 ADD MSTORE POP JUMP JUMPDEST PUSH0 PUSH2 0x3C86 PUSH1 0x12 DUP4 PUSH2 0x2AC7 JUMP JUMPDEST SWAP2 POP PUSH2 0x3C91 DUP3 PUSH2 0x3C52 JUMP JUMPDEST PUSH1 0x20 DUP3 ADD SWAP1 POP SWAP2 SWAP1 POP JUMP JUMPDEST PUSH0 PUSH1 0x20 DUP3 ADD SWAP1 POP DUP2 DUP2 SUB PUSH0 DUP4 ADD MSTORE PUSH2 0x3CB3 DUP2 PUSH2 0x3C7A JUMP JUMPDEST SWAP1 POP SWAP2 SWAP1 POP JUMP JUMPDEST PUSH32 0x4D61726B65742068617320656E64656400000000000000000000000000000000 PUSH0 DUP3 ADD MSTORE POP JUMP JUMPDEST PUSH0 PUSH2 0x3CEE PUSH1 0x10 DUP4 PUSH2 0x2AC7 JUMP JUMPDEST SWAP2 POP PUSH2 0x3CF9 DUP3 PUSH2 0x3CBA JUMP JUMPDEST PUSH1 0x20 DUP3 ADD SWAP1 POP SWAP2 SWAP1 POP JUMP JUMPDEST PUSH0 PUSH1 0x20 DUP3 ADD SWAP1 POP DUP2 DUP2 SUB PUSH0 DUP4 ADD MSTORE PUSH2 0x3D1B DUP2 PUSH2 0x3CE2 JUMP JUMPDEST SWAP1 POP SWAP2 SWAP1 POP JUMP JUMPDEST PUSH32 0x416D6F756E74206D75737420626520706F736974697665000000000000000000 PUSH0 DUP3 ADD MSTORE POP JUMP JUMPDEST PUSH0 PUSH2 0x3D56 PUSH1 0x17 DUP4 PUSH2 0x2AC7 JUMP JUMPDEST SWAP2 POP PUSH2 0x3D61 DUP3 PUSH2 0x3D22 JUMP JUMPDEST PUSH1 0x20 DUP3 ADD SWAP1 POP SWAP2 SWAP1 POP JUMP JUMPDEST PUSH0 PUSH1 0x20 DUP3 ADD SWAP1 POP DUP2 DUP2 SUB PUSH0 DUP4 ADD MSTORE PUSH2 0x3D83 DUP2 PUSH2 0x3D4A JUMP JUMPDEST SWAP1 POP SWAP2 SWAP1 POP JUMP JUMPDEST PUSH0 PUSH1 0x60 DUP3 ADD SWAP1 POP PUSH2 0x3D9D PUSH0 DUP4 ADD DUP7 PUSH2 0x29F8 JUMP JUMPDEST PUSH2 0x3DAA PUSH1 0x20 DUP4 ADD DUP6 PUSH2 0x29F8 JUMP JUMPDEST PUSH2 0x3DB7 PUSH1 0x40 DUP4 ADD DUP5 PUSH2 0x2976 JUMP JUMPDEST SWAP5 SWAP4 POP POP POP POP JUMP JUMPDEST PUSH32 0x546F6B656E207472616E73666572206661696C65640000000000000000000000 PUSH0 DUP3 ADD MSTORE POP JUMP JUMPDEST PUSH0 PUSH2 0x3DF3 PUSH1 0x15 DUP4 PUSH2 0x2AC7 JUMP JUMPDEST SWAP2 POP PUSH2 0x3DFE DUP3 PUSH2 0x3DBF JUMP JUMPDEST PUSH1 0x20 DUP3 ADD SWAP1 POP SWAP2 SWAP1 POP JUMP JUMPDEST PUSH0 PUSH1 0x20 DUP3 ADD SWAP1 POP DUP2 DUP2 SUB PUSH0 DUP4 ADD MSTORE PUSH2 0x3E20 DUP2 PUSH2 0x3DE7 JUMP JUMPDEST SWAP1 POP SWAP2 SWAP1 POP JUMP JUMPDEST PUSH0 PUSH1 0x60 DUP3 ADD SWAP1 POP PUSH2 0x3E3A PUSH0 DUP4 ADD DUP7 PUSH2 0x2FC4 JUMP JUMPDEST PUSH2 0x3E47 PUSH1 0x20 DUP4 ADD DUP6 PUSH2 0x2976 JUMP JUMPDEST PUSH2 0x3E54 PUSH1 0x40 DUP4 ADD DUP5 PUSH2 0x2976 JUMP JUMPDEST SWAP5 SWAP4 POP POP POP POP JUMP JUMPDEST PUSH32 0x5265656E7472616E637947756172643A207265656E7472616E742063616C6C00 PUSH0 DUP3 ADD MSTORE POP JUMP JUMPDEST PUSH0 PUSH2 0x3E90 PUSH1 0x1F DUP4 PUSH2 0x2AC7 JUMP JUMPDEST SWAP2 POP PUSH2 0x3E9B DUP3 PUSH2 0x3E5C JUMP JUMPDEST PUSH1 0x20 DUP3 ADD SWAP1 POP SWAP2 SWAP1 POP JUMP JUMPDEST PUSH0 PUSH1 0x20 DUP3 ADD SWAP1 POP DUP2 DUP2 SUB PUSH0 DUP4 ADD MSTORE PUSH2 0x3EBD DUP2 PUSH2 0x3E84 JUMP JUMPDEST SWAP1 POP SWAP2 SWAP1 POP JUMP INVALID LOG2 PUSH5 0x6970667358 0x22 SLT KECCAK256 DUP13 STATICCALL 0xAA CHAINID 0xD6 STOP DUP14 PUSH2 0x3A05 0xAE 0xCB 0xB8 0xC0 ORIGIN 0xC8 CODESIZE GAS 0xAE 0xE7 PUSH29 0xCF0D110BAF4AB594F4010264736F6C634300081A003300000000000000 "
		},
		"gasEstimates": {
			"creation": {
				"codeDepositCost": "3224400",
				"executionCost": "infinite",
				"totalCost": "infinite"
			},
			"external": {
				"cancelMarket(uint256,string)": "infinite",
				"claimReward(uint256)": "infinite",
				"createMarket(string,string,string,uint8,string[],uint256,uint256,address,uint256)": "infinite",
				"defaultFeePercentage()": "2492",
				"feeCollector()": "2597",
				"getMarketDetails(uint256)": "infinite",
				"getMarketStats(uint256)": "infinite",
				"getUserVotes(uint256,address)": "infinite",
				"marketCount()": "2513",
				"markets(uint256)": "infinite",
				"owner()": "2582",
				"renounceOwnership()": "infinite",
				"resolveMarket(uint256,uint8,string)": "infinite",
				"transferOwnership(address)": "infinite",
				"updateDefaultFeePercentage(uint256)": "infinite",
				"updateFeeCollector(address)": "infinite",
				"updateMarketFeePercentage(uint256,uint256)": "infinite",
				"vote(uint256,bool,uint256)": "infinite"
			},
			"internal": {
				"_updateMarketStats(uint256,address,uint256)": "infinite"
			}
		},
		"methodIdentifiers": {
			"cancelMarket(uint256,string)": "456051f1",
			"claimReward(uint256)": "ae169a50",
			"createMarket(string,string,string,uint8,string[],uint256,uint256,address,uint256)": "380ca1c5",
			"defaultFeePercentage()": "b4824034",
			"feeCollector()": "c415b95c",
			"getMarketDetails(uint256)": "b06c1ba3",
			"getMarketStats(uint256)": "58057fe5",
			"getUserVotes(uint256,address)": "e8abfd94",
			"marketCount()": "ec979082",
			"markets(uint256)": "b1283e77",
			"owner()": "8da5cb5b",
			"renounceOwnership()": "715018a6",
			"resolveMarket(uint256,uint8,string)": "301e996b",
			"transferOwnership(address)": "f2fde38b",
			"updateDefaultFeePercentage(uint256)": "31932130",
			"updateFeeCollector(address)": "d2c35ce8",
			"updateMarketFeePercentage(uint256,uint256)": "919a27b5",
			"vote(uint256,bool,uint256)": "d46a5d7e"
		}
	},
	"abi": [
		{
			"inputs": [],
			"stateMutability": "nonpayable",
			"type": "constructor"
		},
		{
			"inputs": [
				{
					"internalType": "address",
					"name": "owner",
					"type": "address"
				}
			],
			"name": "OwnableInvalidOwner",
			"type": "error"
		},
		{
			"inputs": [
				{
					"internalType": "address",
					"name": "account",
					"type": "address"
				}
			],
			"name": "OwnableUnauthorizedAccount",
			"type": "error"
		},
		{
			"anonymous": false,
			"inputs": [
				{
					"indexed": false,
					"internalType": "uint256",
					"name": "newDefaultFeePercentage",
					"type": "uint256"
				}
			],
			"name": "DefaultFeePercentageUpdated",
			"type": "event"
		},
		{
			"anonymous": false,
			"inputs": [
				{
					"indexed": true,
					"internalType": "uint256",
					"name": "marketId",
					"type": "uint256"
				},
				{
					"indexed": false,
					"internalType": "uint256",
					"name": "amount",
					"type": "uint256"
				}
			],
			"name": "FeeClaimed",
			"type": "event"
		},
		{
			"anonymous": false,
			"inputs": [
				{
					"indexed": false,
					"internalType": "address",
					"name": "newFeeCollector",
					"type": "address"
				}
			],
			"name": "FeeCollectorUpdated",
			"type": "event"
		},
		{
			"anonymous": false,
			"inputs": [
				{
					"indexed": true,
					"internalType": "uint256",
					"name": "marketId",
					"type": "uint256"
				},
				{
					"indexed": false,
					"internalType": "uint256",
					"name": "newFeePercentage",
					"type": "uint256"
				}
			],
			"name": "FeePercentageUpdated",
			"type": "event"
		},
		{
			"anonymous": false,
			"inputs": [
				{
					"indexed": true,
					"internalType": "uint256",
					"name": "marketId",
					"type": "uint256"
				},
				{
					"indexed": false,
					"internalType": "string",
					"name": "reason",
					"type": "string"
				}
			],
			"name": "MarketCancelled",
			"type": "event"
		},
		{
			"anonymous": false,
			"inputs": [
				{
					"indexed": true,
					"internalType": "uint256",
					"name": "marketId",
					"type": "uint256"
				},
				{
					"indexed": false,
					"internalType": "string",
					"name": "title",
					"type": "string"
				},
				{
					"indexed": false,
					"internalType": "uint256",
					"name": "startTime",
					"type": "uint256"
				},
				{
					"indexed": false,
					"internalType": "uint256",
					"name": "endTime",
					"type": "uint256"
				},
				{
					"indexed": false,
					"internalType": "address",
					"name": "votingToken",
					"type": "address"
				},
				{
					"indexed": false,
					"internalType": "enum PredictionMarket.MarketCategory",
					"name": "category",
					"type": "uint8"
				}
			],
			"name": "MarketCreated",
			"type": "event"
		},
		{
			"anonymous": false,
			"inputs": [
				{
					"indexed": true,
					"internalType": "uint256",
					"name": "marketId",
					"type": "uint256"
				},
				{
					"indexed": false,
					"internalType": "enum PredictionMarket.MarketOutcome",
					"name": "outcome",
					"type": "uint8"
				},
				{
					"indexed": false,
					"internalType": "string",
					"name": "resolutionDetails",
					"type": "string"
				}
			],
			"name": "MarketResolved",
			"type": "event"
		},
		{
			"anonymous": false,
			"inputs": [
				{
					"indexed": true,
					"internalType": "address",
					"name": "previousOwner",
					"type": "address"
				},
				{
					"indexed": true,
					"internalType": "address",
					"name": "newOwner",
					"type": "address"
				}
			],
			"name": "OwnershipTransferred",
			"type": "event"
		},
		{
			"anonymous": false,
			"inputs": [
				{
					"indexed": true,
					"internalType": "uint256",
					"name": "marketId",
					"type": "uint256"
				},
				{
					"indexed": true,
					"internalType": "address",
					"name": "voter",
					"type": "address"
				},
				{
					"indexed": false,
					"internalType": "uint256",
					"name": "amount",
					"type": "uint256"
				},
				{
					"indexed": false,
					"internalType": "uint256",
					"name": "feeAmount",
					"type": "uint256"
				}
			],
			"name": "RewardClaimed",
			"type": "event"
		},
		{
			"anonymous": false,
			"inputs": [
				{
					"indexed": true,
					"internalType": "uint256",
					"name": "marketId",
					"type": "uint256"
				},
				{
					"indexed": true,
					"internalType": "address",
					"name": "voter",
					"type": "address"
				},
				{
					"indexed": false,
					"internalType": "bool",
					"name": "isYes",
					"type": "bool"
				},
				{
					"indexed": false,
					"internalType": "uint256",
					"name": "amount",
					"type": "uint256"
				},
				{
					"indexed": false,
					"internalType": "uint256",
					"name": "timestamp",
					"type": "uint256"
				}
			],
			"name": "VoteCast",
			"type": "event"
		},
		{
			"anonymous": false,
			"inputs": [
				{
					"indexed": true,
					"internalType": "uint256",
					"name": "marketId",
					"type": "uint256"
				},
				{
					"indexed": false,
					"internalType": "address",
					"name": "newToken",
					"type": "address"
				}
			],
			"name": "VotingTokenUpdated",
			"type": "event"
		},
		{
			"inputs": [
				{
					"internalType": "uint256",
					"name": "marketId",
					"type": "uint256"
				},
				{
					"internalType": "string",
					"name": "reason",
					"type": "string"
				}
			],
			"name": "cancelMarket",
			"outputs": [],
			"stateMutability": "nonpayable",
			"type": "function"
		},
		{
			"inputs": [
				{
					"internalType": "uint256",
					"name": "marketId",
					"type": "uint256"
				}
			],
			"name": "claimReward",
			"outputs": [],
			"stateMutability": "nonpayable",
			"type": "function"
		},
		{
			"inputs": [
				{
					"internalType": "string",
					"name": "title",
					"type": "string"
				},
				{
					"internalType": "string",
					"name": "description",
					"type": "string"
				},
				{
					"internalType": "string",
					"name": "resolutionSource",
					"type": "string"
				},
				{
					"internalType": "enum PredictionMarket.MarketCategory",
					"name": "category",
					"type": "uint8"
				},
				{
					"internalType": "string[]",
					"name": "tags",
					"type": "string[]"
				},
				{
					"internalType": "uint256",
					"name": "startTime",
					"type": "uint256"
				},
				{
					"internalType": "uint256",
					"name": "duration",
					"type": "uint256"
				},
				{
					"internalType": "address",
					"name": "votingToken",
					"type": "address"
				},
				{
					"internalType": "uint256",
					"name": "customFeePercentage",
					"type": "uint256"
				}
			],
			"name": "createMarket",
			"outputs": [
				{
					"internalType": "uint256",
					"name": "",
					"type": "uint256"
				}
			],
			"stateMutability": "nonpayable",
			"type": "function"
		},
		{
			"inputs": [],
			"name": "defaultFeePercentage",
			"outputs": [
				{
					"internalType": "uint256",
					"name": "",
					"type": "uint256"
				}
			],
			"stateMutability": "view",
			"type": "function"
		},
		{
			"inputs": [],
			"name": "feeCollector",
			"outputs": [
				{
					"internalType": "address",
					"name": "",
					"type": "address"
				}
			],
			"stateMutability": "view",
			"type": "function"
		},
		{
			"inputs": [
				{
					"internalType": "uint256",
					"name": "marketId",
					"type": "uint256"
				}
			],
			"name": "getMarketDetails",
			"outputs": [
				{
					"internalType": "string",
					"name": "title",
					"type": "string"
				},
				{
					"internalType": "string",
					"name": "description",
					"type": "string"
				},
				{
					"internalType": "string",
					"name": "resolutionSource",
					"type": "string"
				},
				{
					"internalType": "enum PredictionMarket.MarketCategory",
					"name": "category",
					"type": "uint8"
				},
				{
					"internalType": "string[]",
					"name": "tags",
					"type": "string[]"
				},
				{
					"internalType": "uint256",
					"name": "startTime",
					"type": "uint256"
				},
				{
					"internalType": "uint256",
					"name": "endTime",
					"type": "uint256"
				},
				{
					"internalType": "enum PredictionMarket.MarketOutcome",
					"name": "outcome",
					"type": "uint8"
				},
				{
					"internalType": "uint256",
					"name": "totalYesAmount",
					"type": "uint256"
				},
				{
					"internalType": "uint256",
					"name": "totalNoAmount",
					"type": "uint256"
				},
				{
					"internalType": "address",
					"name": "votingToken",
					"type": "address"
				},
				{
					"internalType": "uint256",
					"name": "feePercentage",
					"type": "uint256"
				}
			],
			"stateMutability": "view",
			"type": "function"
		},
		{
			"inputs": [
				{
					"internalType": "uint256",
					"name": "marketId",
					"type": "uint256"
				}
			],
			"name": "getMarketStats",
			"outputs": [
				{
					"internalType": "uint256",
					"name": "uniqueVoters",
					"type": "uint256"
				},
				{
					"internalType": "uint256",
					"name": "totalTransactions",
					"type": "uint256"
				},
				{
					"internalType": "uint256",
					"name": "avgVoteAmount",
					"type": "uint256"
				},
				{
					"internalType": "uint256",
					"name": "largestVote",
					"type": "uint256"
				},
				{
					"internalType": "address",
					"name": "largestVoter",
					"type": "address"
				},
				{
					"internalType": "uint256",
					"name": "lastUpdateTime",
					"type": "uint256"
				}
			],
			"stateMutability": "view",
			"type": "function"
		},
		{
			"inputs": [
				{
					"internalType": "uint256",
					"name": "marketId",
					"type": "uint256"
				},
				{
					"internalType": "address",
					"name": "user",
					"type": "address"
				}
			],
			"name": "getUserVotes",
			"outputs": [
				{
					"internalType": "uint256",
					"name": "yesVotes",
					"type": "uint256"
				},
				{
					"internalType": "uint256",
					"name": "noVotes",
					"type": "uint256"
				},
				{
					"internalType": "bool",
					"name": "hasVoted",
					"type": "bool"
				},
				{
					"internalType": "bool",
					"name": "hasClaimed",
					"type": "bool"
				}
			],
			"stateMutability": "view",
			"type": "function"
		},
		{
			"inputs": [],
			"name": "marketCount",
			"outputs": [
				{
					"internalType": "uint256",
					"name": "",
					"type": "uint256"
				}
			],
			"stateMutability": "view",
			"type": "function"
		},
		{
			"inputs": [
				{
					"internalType": "uint256",
					"name": "",
					"type": "uint256"
				}
			],
			"name": "markets",
			"outputs": [
				{
					"components": [
						{
							"internalType": "string",
							"name": "title",
							"type": "string"
						},
						{
							"internalType": "string",
							"name": "description",
							"type": "string"
						},
						{
							"internalType": "string",
							"name": "resolutionSource",
							"type": "string"
						},
						{
							"internalType": "enum PredictionMarket.MarketCategory",
							"name": "category",
							"type": "uint8"
						},
						{
							"internalType": "string[]",
							"name": "tags",
							"type": "string[]"
						}
					],
					"internalType": "struct PredictionMarket.MarketMetadata",
					"name": "metadata",
					"type": "tuple"
				},
				{
					"components": [
						{
							"internalType": "uint256",
							"name": "uniqueVoters",
							"type": "uint256"
						},
						{
							"internalType": "uint256",
							"name": "totalTransactions",
							"type": "uint256"
						},
						{
							"internalType": "uint256",
							"name": "avgVoteAmount",
							"type": "uint256"
						},
						{
							"internalType": "uint256",
							"name": "largestVote",
							"type": "uint256"
						},
						{
							"internalType": "address",
							"name": "largestVoter",
							"type": "address"
						},
						{
							"internalType": "uint256",
							"name": "lastUpdateTime",
							"type": "uint256"
						}
					],
					"internalType": "struct PredictionMarket.MarketStats",
					"name": "stats",
					"type": "tuple"
				},
				{
					"internalType": "uint256",
					"name": "startTime",
					"type": "uint256"
				},
				{
					"internalType": "uint256",
					"name": "endTime",
					"type": "uint256"
				},
				{
					"internalType": "enum PredictionMarket.MarketOutcome",
					"name": "outcome",
					"type": "uint8"
				},
				{
					"internalType": "uint256",
					"name": "totalYesAmount",
					"type": "uint256"
				},
				{
					"internalType": "uint256",
					"name": "totalNoAmount",
					"type": "uint256"
				},
				{
					"internalType": "contract IERC20",
					"name": "votingToken",
					"type": "address"
				},
				{
					"internalType": "uint256",
					"name": "feePercentage",
					"type": "uint256"
				},
				{
					"internalType": "bool",
					"name": "feeClaimed",
					"type": "bool"
				}
			],
			"stateMutability": "view",
			"type": "function"
		},
		{
			"inputs": [],
			"name": "owner",
			"outputs": [
				{
					"internalType": "address",
					"name": "",
					"type": "address"
				}
			],
			"stateMutability": "view",
			"type": "function"
		},
		{
			"inputs": [],
			"name": "renounceOwnership",
			"outputs": [],
			"stateMutability": "nonpayable",
			"type": "function"
		},
		{
			"inputs": [
				{
					"internalType": "uint256",
					"name": "marketId",
					"type": "uint256"
				},
				{
					"internalType": "enum PredictionMarket.MarketOutcome",
					"name": "outcome",
					"type": "uint8"
				},
				{
					"internalType": "string",
					"name": "resolutionDetails",
					"type": "string"
				}
			],
			"name": "resolveMarket",
			"outputs": [],
			"stateMutability": "nonpayable",
			"type": "function"
		},
		{
			"inputs": [
				{
					"internalType": "address",
					"name": "newOwner",
					"type": "address"
				}
			],
			"name": "transferOwnership",
			"outputs": [],
			"stateMutability": "nonpayable",
			"type": "function"
		},
		{
			"inputs": [
				{
					"internalType": "uint256",
					"name": "newFeePercentage",
					"type": "uint256"
				}
			],
			"name": "updateDefaultFeePercentage",
			"outputs": [],
			"stateMutability": "nonpayable",
			"type": "function"
		},
		{
			"inputs": [
				{
					"internalType": "address",
					"name": "newFeeCollector",
					"type": "address"
				}
			],
			"name": "updateFeeCollector",
			"outputs": [],
			"stateMutability": "nonpayable",
			"type": "function"
		},
		{
			"inputs": [
				{
					"internalType": "uint256",
					"name": "marketId",
					"type": "uint256"
				},
				{
					"internalType": "uint256",
					"name": "newFeePercentage",
					"type": "uint256"
				}
			],
			"name": "updateMarketFeePercentage",
			"outputs": [],
			"stateMutability": "nonpayable",
			"type": "function"
		},
		{
			"inputs": [
				{
					"internalType": "uint256",
					"name": "marketId",
					"type": "uint256"
				},
				{
					"internalType": "bool",
					"name": "isYes",
					"type": "bool"
				},
				{
					"internalType": "uint256",
					"name": "amount",
					"type": "uint256"
				}
			],
			"name": "vote",
			"outputs": [],
			"stateMutability": "nonpayable",
			"type": "function"
		}
	]
}